{
	"contracts/MyToken.sol": {
		"HeroToken": {
			"abi": [
				{
					"inputs": [],
					"stateMutability": "nonpayable",
					"type": "constructor"
				},
				{
					"anonymous": false,
					"inputs": [
						{
							"indexed": true,
							"internalType": "address",
							"name": "owner",
							"type": "address"
						},
						{
							"indexed": true,
							"internalType": "address",
							"name": "spender",
							"type": "address"
						},
						{
							"indexed": false,
							"internalType": "uint256",
							"name": "value",
							"type": "uint256"
						}
					],
					"name": "Approval",
					"type": "event"
				},
				{
					"anonymous": false,
					"inputs": [
						{
							"indexed": false,
							"internalType": "uint8",
							"name": "version",
							"type": "uint8"
						}
					],
					"name": "Initialized",
					"type": "event"
				},
				{
					"anonymous": false,
					"inputs": [
						{
							"indexed": true,
							"internalType": "address",
							"name": "previousOwner",
							"type": "address"
						},
						{
							"indexed": true,
							"internalType": "address",
							"name": "newOwner",
							"type": "address"
						}
					],
					"name": "OwnershipTransferred",
					"type": "event"
				},
				{
					"anonymous": false,
					"inputs": [
						{
							"indexed": true,
							"internalType": "address",
							"name": "from",
							"type": "address"
						},
						{
							"indexed": true,
							"internalType": "address",
							"name": "to",
							"type": "address"
						},
						{
							"indexed": false,
							"internalType": "uint256",
							"name": "value",
							"type": "uint256"
						}
					],
					"name": "Transfer",
					"type": "event"
				},
				{
					"inputs": [
						{
							"internalType": "address",
							"name": "owner",
							"type": "address"
						},
						{
							"internalType": "address",
							"name": "spender",
							"type": "address"
						}
					],
					"name": "allowance",
					"outputs": [
						{
							"internalType": "uint256",
							"name": "",
							"type": "uint256"
						}
					],
					"stateMutability": "view",
					"type": "function"
				},
				{
					"inputs": [
						{
							"internalType": "address",
							"name": "spender",
							"type": "address"
						},
						{
							"internalType": "uint256",
							"name": "amount",
							"type": "uint256"
						}
					],
					"name": "approve",
					"outputs": [
						{
							"internalType": "bool",
							"name": "",
							"type": "bool"
						}
					],
					"stateMutability": "nonpayable",
					"type": "function"
				},
				{
					"inputs": [
						{
							"internalType": "address",
							"name": "account",
							"type": "address"
						}
					],
					"name": "balanceOf",
					"outputs": [
						{
							"internalType": "uint256",
							"name": "",
							"type": "uint256"
						}
					],
					"stateMutability": "view",
					"type": "function"
				},
				{
					"inputs": [],
					"name": "decimals",
					"outputs": [
						{
							"internalType": "uint8",
							"name": "",
							"type": "uint8"
						}
					],
					"stateMutability": "view",
					"type": "function"
				},
				{
					"inputs": [
						{
							"internalType": "address",
							"name": "spender",
							"type": "address"
						},
						{
							"internalType": "uint256",
							"name": "subtractedValue",
							"type": "uint256"
						}
					],
					"name": "decreaseAllowance",
					"outputs": [
						{
							"internalType": "bool",
							"name": "",
							"type": "bool"
						}
					],
					"stateMutability": "nonpayable",
					"type": "function"
				},
				{
					"inputs": [
						{
							"internalType": "address",
							"name": "spender",
							"type": "address"
						},
						{
							"internalType": "uint256",
							"name": "addedValue",
							"type": "uint256"
						}
					],
					"name": "increaseAllowance",
					"outputs": [
						{
							"internalType": "bool",
							"name": "",
							"type": "bool"
						}
					],
					"stateMutability": "nonpayable",
					"type": "function"
				},
				{
					"inputs": [],
					"name": "initialize",
					"outputs": [],
					"stateMutability": "nonpayable",
					"type": "function"
				},
				{
					"inputs": [
						{
							"internalType": "address",
							"name": "to",
							"type": "address"
						},
						{
							"internalType": "uint256",
							"name": "amount",
							"type": "uint256"
						}
					],
					"name": "mint",
					"outputs": [],
					"stateMutability": "nonpayable",
					"type": "function"
				},
				{
					"inputs": [],
					"name": "name",
					"outputs": [
						{
							"internalType": "string",
							"name": "",
							"type": "string"
						}
					],
					"stateMutability": "view",
					"type": "function"
				},
				{
					"inputs": [],
					"name": "owner",
					"outputs": [
						{
							"internalType": "address",
							"name": "",
							"type": "address"
						}
					],
					"stateMutability": "view",
					"type": "function"
				},
				{
					"inputs": [],
					"name": "renounceOwnership",
					"outputs": [],
					"stateMutability": "nonpayable",
					"type": "function"
				},
				{
					"inputs": [],
					"name": "symbol",
					"outputs": [
						{
							"internalType": "string",
							"name": "",
							"type": "string"
						}
					],
					"stateMutability": "view",
					"type": "function"
				},
				{
					"inputs": [],
					"name": "totalSupply",
					"outputs": [
						{
							"internalType": "uint256",
							"name": "",
							"type": "uint256"
						}
					],
					"stateMutability": "view",
					"type": "function"
				},
				{
					"inputs": [
						{
							"internalType": "address",
							"name": "to",
							"type": "address"
						},
						{
							"internalType": "uint256",
							"name": "amount",
							"type": "uint256"
						}
					],
					"name": "transfer",
					"outputs": [
						{
							"internalType": "bool",
							"name": "",
							"type": "bool"
						}
					],
					"stateMutability": "nonpayable",
					"type": "function"
				},
				{
					"inputs": [
						{
							"internalType": "address",
							"name": "from",
							"type": "address"
						},
						{
							"internalType": "address",
							"name": "to",
							"type": "address"
						},
						{
							"internalType": "uint256",
							"name": "amount",
							"type": "uint256"
						}
					],
					"name": "transferFrom",
					"outputs": [
						{
							"internalType": "bool",
							"name": "",
							"type": "bool"
						}
					],
					"stateMutability": "nonpayable",
					"type": "function"
				},
				{
					"inputs": [
						{
							"internalType": "address",
							"name": "newOwner",
							"type": "address"
						}
					],
					"name": "transferOwnership",
					"outputs": [],
					"stateMutability": "nonpayable",
					"type": "function"
				}
			],
			"devdoc": {
				"events": {
					"Approval(address,address,uint256)": {
						"details": "Emitted when the allowance of a `spender` for an `owner` is set by a call to {approve}. `value` is the new allowance."
					},
					"Initialized(uint8)": {
						"details": "Triggered when the contract has been initialized or reinitialized."
					},
					"Transfer(address,address,uint256)": {
						"details": "Emitted when `value` tokens are moved from one account (`from`) to another (`to`). Note that `value` may be zero."
					}
				},
				"kind": "dev",
				"methods": {
					"allowance(address,address)": {
						"details": "See {IERC20-allowance}."
					},
					"approve(address,uint256)": {
						"details": "See {IERC20-approve}. NOTE: If `amount` is the maximum `uint256`, the allowance is not updated on `transferFrom`. This is semantically equivalent to an infinite approval. Requirements: - `spender` cannot be the zero address."
					},
					"balanceOf(address)": {
						"details": "See {IERC20-balanceOf}."
					},
					"constructor": {
						"custom:oz-upgrades-unsafe-allow": "constructor"
					},
					"decimals()": {
						"details": "Returns the number of decimals used to get its user representation. For example, if `decimals` equals `2`, a balance of `505` tokens should be displayed to a user as `5.05` (`505 / 10 ** 2`). Tokens usually opt for a value of 18, imitating the relationship between Ether and Wei. This is the value {ERC20} uses, unless this function is overridden; NOTE: This information is only used for _display_ purposes: it in no way affects any of the arithmetic of the contract, including {IERC20-balanceOf} and {IERC20-transfer}."
					},
					"decreaseAllowance(address,uint256)": {
						"details": "Atomically decreases the allowance granted to `spender` by the caller. This is an alternative to {approve} that can be used as a mitigation for problems described in {IERC20-approve}. Emits an {Approval} event indicating the updated allowance. Requirements: - `spender` cannot be the zero address. - `spender` must have allowance for the caller of at least `subtractedValue`."
					},
					"increaseAllowance(address,uint256)": {
						"details": "Atomically increases the allowance granted to `spender` by the caller. This is an alternative to {approve} that can be used as a mitigation for problems described in {IERC20-approve}. Emits an {Approval} event indicating the updated allowance. Requirements: - `spender` cannot be the zero address."
					},
					"name()": {
						"details": "Returns the name of the token."
					},
					"owner()": {
						"details": "Returns the address of the current owner."
					},
					"renounceOwnership()": {
						"details": "Leaves the contract without owner. It will not be possible to call `onlyOwner` functions anymore. Can only be called by the current owner. NOTE: Renouncing ownership will leave the contract without an owner, thereby removing any functionality that is only available to the owner."
					},
					"symbol()": {
						"details": "Returns the symbol of the token, usually a shorter version of the name."
					},
					"totalSupply()": {
						"details": "See {IERC20-totalSupply}."
					},
					"transfer(address,uint256)": {
						"details": "See {IERC20-transfer}. Requirements: - `to` cannot be the zero address. - the caller must have a balance of at least `amount`."
					},
					"transferFrom(address,address,uint256)": {
						"details": "See {IERC20-transferFrom}. Emits an {Approval} event indicating the updated allowance. This is not required by the EIP. See the note at the beginning of {ERC20}. NOTE: Does not update the allowance if the current allowance is the maximum `uint256`. Requirements: - `from` and `to` cannot be the zero address. - `from` must have a balance of at least `amount`. - the caller must have allowance for ``from``'s tokens of at least `amount`."
					},
					"transferOwnership(address)": {
						"details": "Transfers ownership of the contract to a new account (`newOwner`). Can only be called by the current owner."
					}
				},
				"version": 1
			},
			"evm": {
				"assembly": "    /* \"contracts/MyToken.sol\":289:698  contract HeroToken is Initializable, ERC20Upgradeable, OwnableUpgradeable {... */\n  mstore(0x40, 0x80)\n    /* \"contracts/MyToken.sol\":422:475  constructor() {... */\n  callvalue\n  dup1\n  iszero\n  tag_1\n  jumpi\n  0x00\n  dup1\n  revert\ntag_1:\n  pop\n    /* \"contracts/MyToken.sol\":446:468  _disableInitializers() */\n  tag_4\n    /* \"contracts/MyToken.sol\":446:466  _disableInitializers */\n  shl(0x20, tag_5)\n    /* \"contracts/MyToken.sol\":446:468  _disableInitializers() */\n  0x20\n  shr\n  jump\t// in\ntag_4:\n    /* \"contracts/MyToken.sol\":289:698  contract HeroToken is Initializable, ERC20Upgradeable, OwnableUpgradeable {... */\n  jump(tag_6)\n    /* \"@openzeppelin/contracts-upgradeable/proxy/utils/Initializable.sol\":5928:6207  function _disableInitializers() internal virtual {... */\ntag_5:\n    /* \"@openzeppelin/contracts-upgradeable/proxy/utils/Initializable.sol\":5996:6009  _initializing */\n  0x00\n  0x01\n  swap1\n  sload\n  swap1\n  0x0100\n  exp\n  swap1\n  div\n  0xff\n  and\n    /* \"@openzeppelin/contracts-upgradeable/proxy/utils/Initializable.sol\":5995:6009  !_initializing */\n  iszero\n    /* \"@openzeppelin/contracts-upgradeable/proxy/utils/Initializable.sol\":5987:6053  require(!_initializing, \"Initializable: contract is initializing\") */\n  tag_8\n  jumpi\n  mload(0x40)\n  0x08c379a000000000000000000000000000000000000000000000000000000000\n  dup2\n  mstore\n  0x04\n  add\n  tag_9\n  swap1\n  tag_10\n  jump\t// in\ntag_9:\n  mload(0x40)\n  dup1\n  swap2\n  sub\n  swap1\n  revert\ntag_8:\n    /* \"@openzeppelin/contracts-upgradeable/proxy/utils/Initializable.sol\":6082:6097  type(uint8).max */\n  0xff\n    /* \"@openzeppelin/contracts-upgradeable/proxy/utils/Initializable.sol\":6067:6097  _initialized < type(uint8).max */\n  dup1\n  and\n    /* \"@openzeppelin/contracts-upgradeable/proxy/utils/Initializable.sol\":6067:6079  _initialized */\n  0x00\n  dup1\n  sload\n  swap1\n  0x0100\n  exp\n  swap1\n  div\n  0xff\n  and\n    /* \"@openzeppelin/contracts-upgradeable/proxy/utils/Initializable.sol\":6067:6097  _initialized < type(uint8).max */\n  0xff\n  and\n  lt\n    /* \"@openzeppelin/contracts-upgradeable/proxy/utils/Initializable.sol\":6063:6201  if (_initialized < type(uint8).max) {... */\n  iszero\n  tag_11\n  jumpi\n    /* \"@openzeppelin/contracts-upgradeable/proxy/utils/Initializable.sol\":6128:6143  type(uint8).max */\n  0xff\n    /* \"@openzeppelin/contracts-upgradeable/proxy/utils/Initializable.sol\":6113:6125  _initialized */\n  0x00\n  dup1\n    /* \"@openzeppelin/contracts-upgradeable/proxy/utils/Initializable.sol\":6113:6143  _initialized = type(uint8).max */\n  0x0100\n  exp\n  dup2\n  sload\n  dup2\n  0xff\n  mul\n  not\n  and\n  swap1\n  dup4\n  0xff\n  and\n  mul\n  or\n  swap1\n  sstore\n  pop\n    /* \"@openzeppelin/contracts-upgradeable/proxy/utils/Initializable.sol\":6162:6190  Initialized(type(uint8).max) */\n  0x7f26b83ff96e1f2b6a682f133852f6798a09c465da95921460cefb3847402498\n    /* \"@openzeppelin/contracts-upgradeable/proxy/utils/Initializable.sol\":6174:6189  type(uint8).max */\n  0xff\n    /* \"@openzeppelin/contracts-upgradeable/proxy/utils/Initializable.sol\":6162:6190  Initialized(type(uint8).max) */\n  mload(0x40)\n  tag_12\n  swap2\n  swap1\n  tag_13\n  jump\t// in\ntag_12:\n  mload(0x40)\n  dup1\n  swap2\n  sub\n  swap1\n  log1\n    /* \"@openzeppelin/contracts-upgradeable/proxy/utils/Initializable.sol\":6063:6201  if (_initialized < type(uint8).max) {... */\ntag_11:\n    /* \"@openzeppelin/contracts-upgradeable/proxy/utils/Initializable.sol\":5928:6207  function _disableInitializers() internal virtual {... */\n  jump\t// out\n    /* \"#utility.yul\":7:176   */\ntag_14:\n    /* \"#utility.yul\":91:102   */\n  0x00\n    /* \"#utility.yul\":125:131   */\n  dup3\n    /* \"#utility.yul\":120:123   */\n  dup3\n    /* \"#utility.yul\":113:132   */\n  mstore\n    /* \"#utility.yul\":165:169   */\n  0x20\n    /* \"#utility.yul\":160:163   */\n  dup3\n    /* \"#utility.yul\":156:170   */\n  add\n    /* \"#utility.yul\":141:170   */\n  swap1\n  pop\n    /* \"#utility.yul\":7:176   */\n  swap3\n  swap2\n  pop\n  pop\n  jump\t// out\n    /* \"#utility.yul\":182:408   */\ntag_15:\n    /* \"#utility.yul\":322:356   */\n  0x496e697469616c697a61626c653a20636f6e747261637420697320696e697469\n    /* \"#utility.yul\":318:319   */\n  0x00\n    /* \"#utility.yul\":310:316   */\n  dup3\n    /* \"#utility.yul\":306:320   */\n  add\n    /* \"#utility.yul\":299:357   */\n  mstore\n    /* \"#utility.yul\":391:400   */\n  0x616c697a696e6700000000000000000000000000000000000000000000000000\n    /* \"#utility.yul\":386:388   */\n  0x20\n    /* \"#utility.yul\":378:384   */\n  dup3\n    /* \"#utility.yul\":374:389   */\n  add\n    /* \"#utility.yul\":367:401   */\n  mstore\n    /* \"#utility.yul\":182:408   */\n  pop\n  jump\t// out\n    /* \"#utility.yul\":414:780   */\ntag_16:\n    /* \"#utility.yul\":556:559   */\n  0x00\n    /* \"#utility.yul\":577:644   */\n  tag_23\n    /* \"#utility.yul\":641:643   */\n  0x27\n    /* \"#utility.yul\":636:639   */\n  dup4\n    /* \"#utility.yul\":577:644   */\n  tag_14\n  jump\t// in\ntag_23:\n    /* \"#utility.yul\":570:644   */\n  swap2\n  pop\n    /* \"#utility.yul\":653:746   */\n  tag_24\n    /* \"#utility.yul\":742:745   */\n  dup3\n    /* \"#utility.yul\":653:746   */\n  tag_15\n  jump\t// in\ntag_24:\n    /* \"#utility.yul\":771:773   */\n  0x40\n    /* \"#utility.yul\":766:769   */\n  dup3\n    /* \"#utility.yul\":762:774   */\n  add\n    /* \"#utility.yul\":755:774   */\n  swap1\n  pop\n    /* \"#utility.yul\":414:780   */\n  swap2\n  swap1\n  pop\n  jump\t// out\n    /* \"#utility.yul\":786:1205   */\ntag_10:\n    /* \"#utility.yul\":952:956   */\n  0x00\n    /* \"#utility.yul\":990:992   */\n  0x20\n    /* \"#utility.yul\":979:988   */\n  dup3\n    /* \"#utility.yul\":975:993   */\n  add\n    /* \"#utility.yul\":967:993   */\n  swap1\n  pop\n    /* \"#utility.yul\":1039:1048   */\n  dup2\n    /* \"#utility.yul\":1033:1037   */\n  dup2\n    /* \"#utility.yul\":1029:1049   */\n  sub\n    /* \"#utility.yul\":1025:1026   */\n  0x00\n    /* \"#utility.yul\":1014:1023   */\n  dup4\n    /* \"#utility.yul\":1010:1027   */\n  add\n    /* \"#utility.yul\":1003:1050   */\n  mstore\n    /* \"#utility.yul\":1067:1198   */\n  tag_26\n    /* \"#utility.yul\":1193:1197   */\n  dup2\n    /* \"#utility.yul\":1067:1198   */\n  tag_16\n  jump\t// in\ntag_26:\n    /* \"#utility.yul\":1059:1198   */\n  swap1\n  pop\n    /* \"#utility.yul\":786:1205   */\n  swap2\n  swap1\n  pop\n  jump\t// out\n    /* \"#utility.yul\":1211:1297   */\ntag_17:\n    /* \"#utility.yul\":1246:1253   */\n  0x00\n    /* \"#utility.yul\":1286:1290   */\n  0xff\n    /* \"#utility.yul\":1279:1284   */\n  dup3\n    /* \"#utility.yul\":1275:1291   */\n  and\n    /* \"#utility.yul\":1264:1291   */\n  swap1\n  pop\n    /* \"#utility.yul\":1211:1297   */\n  swap2\n  swap1\n  pop\n  jump\t// out\n    /* \"#utility.yul\":1303:1415   */\ntag_18:\n    /* \"#utility.yul\":1386:1408   */\n  tag_29\n    /* \"#utility.yul\":1402:1407   */\n  dup2\n    /* \"#utility.yul\":1386:1408   */\n  tag_17\n  jump\t// in\ntag_29:\n    /* \"#utility.yul\":1381:1384   */\n  dup3\n    /* \"#utility.yul\":1374:1409   */\n  mstore\n    /* \"#utility.yul\":1303:1415   */\n  pop\n  pop\n  jump\t// out\n    /* \"#utility.yul\":1421:1635   */\ntag_13:\n    /* \"#utility.yul\":1510:1514   */\n  0x00\n    /* \"#utility.yul\":1548:1550   */\n  0x20\n    /* \"#utility.yul\":1537:1546   */\n  dup3\n    /* \"#utility.yul\":1533:1551   */\n  add\n    /* \"#utility.yul\":1525:1551   */\n  swap1\n  pop\n    /* \"#utility.yul\":1561:1628   */\n  tag_31\n    /* \"#utility.yul\":1625:1626   */\n  0x00\n    /* \"#utility.yul\":1614:1623   */\n  dup4\n    /* \"#utility.yul\":1610:1627   */\n  add\n    /* \"#utility.yul\":1601:1607   */\n  dup5\n    /* \"#utility.yul\":1561:1628   */\n  tag_18\n  jump\t// in\ntag_31:\n    /* \"#utility.yul\":1421:1635   */\n  swap3\n  swap2\n  pop\n  pop\n  jump\t// out\n    /* \"contracts/MyToken.sol\":289:698  contract HeroToken is Initializable, ERC20Upgradeable, OwnableUpgradeable {... */\ntag_6:\n  dataSize(sub_0)\n  dup1\n  dataOffset(sub_0)\n  0x00\n  codecopy\n  0x00\n  return\nstop\n\nsub_0: assembly {\n        /* \"contracts/MyToken.sol\":289:698  contract HeroToken is Initializable, ERC20Upgradeable, OwnableUpgradeable {... */\n      mstore(0x40, 0x80)\n      callvalue\n      dup1\n      iszero\n      tag_1\n      jumpi\n      0x00\n      dup1\n      revert\n    tag_1:\n      pop\n      jumpi(tag_2, lt(calldatasize, 0x04))\n      shr(0xe0, calldataload(0x00))\n      dup1\n      0x715018a6\n      gt\n      tag_19\n      jumpi\n      dup1\n      0xa457c2d7\n      gt\n      tag_20\n      jumpi\n      dup1\n      0xa457c2d7\n      eq\n      tag_15\n      jumpi\n      dup1\n      0xa9059cbb\n      eq\n      tag_16\n      jumpi\n      dup1\n      0xdd62ed3e\n      eq\n      tag_17\n      jumpi\n      dup1\n      0xf2fde38b\n      eq\n      tag_18\n      jumpi\n      jump(tag_2)\n    tag_20:\n      dup1\n      0x715018a6\n      eq\n      tag_11\n      jumpi\n      dup1\n      0x8129fc1c\n      eq\n      tag_12\n      jumpi\n      dup1\n      0x8da5cb5b\n      eq\n      tag_13\n      jumpi\n      dup1\n      0x95d89b41\n      eq\n      tag_14\n      jumpi\n      jump(tag_2)\n    tag_19:\n      dup1\n      0x313ce567\n      gt\n      tag_21\n      jumpi\n      dup1\n      0x313ce567\n      eq\n      tag_7\n      jumpi\n      dup1\n      0x39509351\n      eq\n      tag_8\n      jumpi\n      dup1\n      0x40c10f19\n      eq\n      tag_9\n      jumpi\n      dup1\n      0x70a08231\n      eq\n      tag_10\n      jumpi\n      jump(tag_2)\n    tag_21:\n      dup1\n      0x06fdde03\n      eq\n      tag_3\n      jumpi\n      dup1\n      0x095ea7b3\n      eq\n      tag_4\n      jumpi\n      dup1\n      0x18160ddd\n      eq\n      tag_5\n      jumpi\n      dup1\n      0x23b872dd\n      eq\n      tag_6\n      jumpi\n    tag_2:\n      0x00\n      dup1\n      revert\n        /* \"@openzeppelin/contracts-upgradeable/token/ERC20/ERC20Upgradeable.sol\":2491:2589  function name() public view virtual override returns (string memory) {... */\n    tag_3:\n      tag_22\n      tag_23\n      jump\t// in\n    tag_22:\n      mload(0x40)\n      tag_24\n      swap2\n      swap1\n      tag_25\n      jump\t// in\n    tag_24:\n      mload(0x40)\n      dup1\n      swap2\n      sub\n      swap1\n      return\n        /* \"@openzeppelin/contracts-upgradeable/token/ERC20/ERC20Upgradeable.sol\":4768:4965  function approve(address spender, uint256 amount) public virtual override returns (bool) {... */\n    tag_4:\n      tag_26\n      0x04\n      dup1\n      calldatasize\n      sub\n      dup2\n      add\n      swap1\n      tag_27\n      swap2\n      swap1\n      tag_28\n      jump\t// in\n    tag_27:\n      tag_29\n      jump\t// in\n    tag_26:\n      mload(0x40)\n      tag_30\n      swap2\n      swap1\n      tag_31\n      jump\t// in\n    tag_30:\n      mload(0x40)\n      dup1\n      swap2\n      sub\n      swap1\n      return\n        /* \"@openzeppelin/contracts-upgradeable/token/ERC20/ERC20Upgradeable.sol\":3579:3685  function totalSupply() public view virtual override returns (uint256) {... */\n    tag_5:\n      tag_32\n      tag_33\n      jump\t// in\n    tag_32:\n      mload(0x40)\n      tag_34\n      swap2\n      swap1\n      tag_35\n      jump\t// in\n    tag_34:\n      mload(0x40)\n      dup1\n      swap2\n      sub\n      swap1\n      return\n        /* \"@openzeppelin/contracts-upgradeable/token/ERC20/ERC20Upgradeable.sol\":5527:5813  function transferFrom(... */\n    tag_6:\n      tag_36\n      0x04\n      dup1\n      calldatasize\n      sub\n      dup2\n      add\n      swap1\n      tag_37\n      swap2\n      swap1\n      tag_38\n      jump\t// in\n    tag_37:\n      tag_39\n      jump\t// in\n    tag_36:\n      mload(0x40)\n      tag_40\n      swap2\n      swap1\n      tag_31\n      jump\t// in\n    tag_40:\n      mload(0x40)\n      dup1\n      swap2\n      sub\n      swap1\n      return\n        /* \"@openzeppelin/contracts-upgradeable/token/ERC20/ERC20Upgradeable.sol\":3428:3519  function decimals() public view virtual override returns (uint8) {... */\n    tag_7:\n      tag_41\n      tag_42\n      jump\t// in\n    tag_41:\n      mload(0x40)\n      tag_43\n      swap2\n      swap1\n      tag_44\n      jump\t// in\n    tag_43:\n      mload(0x40)\n      dup1\n      swap2\n      sub\n      swap1\n      return\n        /* \"@openzeppelin/contracts-upgradeable/token/ERC20/ERC20Upgradeable.sol\":6208:6442  function increaseAllowance(address spender, uint256 addedValue) public virtual returns (bool) {... */\n    tag_8:\n      tag_45\n      0x04\n      dup1\n      calldatasize\n      sub\n      dup2\n      add\n      swap1\n      tag_46\n      swap2\n      swap1\n      tag_28\n      jump\t// in\n    tag_46:\n      tag_47\n      jump\t// in\n    tag_45:\n      mload(0x40)\n      tag_48\n      swap2\n      swap1\n      tag_31\n      jump\t// in\n    tag_48:\n      mload(0x40)\n      dup1\n      swap2\n      sub\n      swap1\n      return\n        /* \"contracts/MyToken.sol\":603:696  function mint(address to, uint256 amount) public onlyOwner {... */\n    tag_9:\n      tag_49\n      0x04\n      dup1\n      calldatasize\n      sub\n      dup2\n      add\n      swap1\n      tag_50\n      swap2\n      swap1\n      tag_28\n      jump\t// in\n    tag_50:\n      tag_51\n      jump\t// in\n    tag_49:\n      stop\n        /* \"@openzeppelin/contracts-upgradeable/token/ERC20/ERC20Upgradeable.sol\":3743:3868  function balanceOf(address account) public view virtual override returns (uint256) {... */\n    tag_10:\n      tag_52\n      0x04\n      dup1\n      calldatasize\n      sub\n      dup2\n      add\n      swap1\n      tag_53\n      swap2\n      swap1\n      tag_54\n      jump\t// in\n    tag_53:\n      tag_55\n      jump\t// in\n    tag_52:\n      mload(0x40)\n      tag_56\n      swap2\n      swap1\n      tag_35\n      jump\t// in\n    tag_56:\n      mload(0x40)\n      dup1\n      swap2\n      sub\n      swap1\n      return\n        /* \"@openzeppelin/contracts-upgradeable/access/OwnableUpgradeable.sol\":2071:2172  function renounceOwnership() public virtual onlyOwner {... */\n    tag_11:\n      tag_57\n      tag_58\n      jump\t// in\n    tag_57:\n      stop\n        /* \"contracts/MyToken.sol\":481:597  function initialize() initializer public {... */\n    tag_12:\n      tag_59\n      tag_60\n      jump\t// in\n    tag_59:\n      stop\n        /* \"@openzeppelin/contracts-upgradeable/access/OwnableUpgradeable.sol\":1441:1526  function owner() public view virtual returns (address) {... */\n    tag_13:\n      tag_61\n      tag_62\n      jump\t// in\n    tag_61:\n      mload(0x40)\n      tag_63\n      swap2\n      swap1\n      tag_64\n      jump\t// in\n    tag_63:\n      mload(0x40)\n      dup1\n      swap2\n      sub\n      swap1\n      return\n        /* \"@openzeppelin/contracts-upgradeable/token/ERC20/ERC20Upgradeable.sol\":2702:2804  function symbol() public view virtual override returns (string memory) {... */\n    tag_14:\n      tag_65\n      tag_66\n      jump\t// in\n    tag_65:\n      mload(0x40)\n      tag_67\n      swap2\n      swap1\n      tag_25\n      jump\t// in\n    tag_67:\n      mload(0x40)\n      dup1\n      swap2\n      sub\n      swap1\n      return\n        /* \"@openzeppelin/contracts-upgradeable/token/ERC20/ERC20Upgradeable.sol\":6929:7356  function decreaseAllowance(address spender, uint256 subtractedValue) public virtual returns (bool) {... */\n    tag_15:\n      tag_68\n      0x04\n      dup1\n      calldatasize\n      sub\n      dup2\n      add\n      swap1\n      tag_69\n      swap2\n      swap1\n      tag_28\n      jump\t// in\n    tag_69:\n      tag_70\n      jump\t// in\n    tag_68:\n      mload(0x40)\n      tag_71\n      swap2\n      swap1\n      tag_31\n      jump\t// in\n    tag_71:\n      mload(0x40)\n      dup1\n      swap2\n      sub\n      swap1\n      return\n        /* \"@openzeppelin/contracts-upgradeable/token/ERC20/ERC20Upgradeable.sol\":4064:4253  function transfer(address to, uint256 amount) public virtual override returns (bool) {... */\n    tag_16:\n      tag_72\n      0x04\n      dup1\n      calldatasize\n      sub\n      dup2\n      add\n      swap1\n      tag_73\n      swap2\n      swap1\n      tag_28\n      jump\t// in\n    tag_73:\n      tag_74\n      jump\t// in\n    tag_72:\n      mload(0x40)\n      tag_75\n      swap2\n      swap1\n      tag_31\n      jump\t// in\n    tag_75:\n      mload(0x40)\n      dup1\n      swap2\n      sub\n      swap1\n      return\n        /* \"@openzeppelin/contracts-upgradeable/token/ERC20/ERC20Upgradeable.sol\":4311:4460  function allowance(address owner, address spender) public view virtual override returns (uint256) {... */\n    tag_17:\n      tag_76\n      0x04\n      dup1\n      calldatasize\n      sub\n      dup2\n      add\n      swap1\n      tag_77\n      swap2\n      swap1\n      tag_78\n      jump\t// in\n    tag_77:\n      tag_79\n      jump\t// in\n    tag_76:\n      mload(0x40)\n      tag_80\n      swap2\n      swap1\n      tag_35\n      jump\t// in\n    tag_80:\n      mload(0x40)\n      dup1\n      swap2\n      sub\n      swap1\n      return\n        /* \"@openzeppelin/contracts-upgradeable/access/OwnableUpgradeable.sol\":2321:2519  function transferOwnership(address newOwner) public virtual onlyOwner {... */\n    tag_18:\n      tag_81\n      0x04\n      dup1\n      calldatasize\n      sub\n      dup2\n      add\n      swap1\n      tag_82\n      swap2\n      swap1\n      tag_54\n      jump\t// in\n    tag_82:\n      tag_83\n      jump\t// in\n    tag_81:\n      stop\n        /* \"@openzeppelin/contracts-upgradeable/token/ERC20/ERC20Upgradeable.sol\":2491:2589  function name() public view virtual override returns (string memory) {... */\n    tag_23:\n        /* \"@openzeppelin/contracts-upgradeable/token/ERC20/ERC20Upgradeable.sol\":2545:2558  string memory */\n      0x60\n        /* \"@openzeppelin/contracts-upgradeable/token/ERC20/ERC20Upgradeable.sol\":2577:2582  _name */\n      0x36\n        /* \"@openzeppelin/contracts-upgradeable/token/ERC20/ERC20Upgradeable.sol\":2570:2582  return _name */\n      dup1\n      sload\n      tag_85\n      swap1\n      tag_86\n      jump\t// in\n    tag_85:\n      dup1\n      0x1f\n      add\n      0x20\n      dup1\n      swap2\n      div\n      mul\n      0x20\n      add\n      mload(0x40)\n      swap1\n      dup2\n      add\n      0x40\n      mstore\n      dup1\n      swap3\n      swap2\n      swap1\n      dup2\n      dup2\n      mstore\n      0x20\n      add\n      dup3\n      dup1\n      sload\n      tag_87\n      swap1\n      tag_86\n      jump\t// in\n    tag_87:\n      dup1\n      iszero\n      tag_88\n      jumpi\n      dup1\n      0x1f\n      lt\n      tag_89\n      jumpi\n      0x0100\n      dup1\n      dup4\n      sload\n      div\n      mul\n      dup4\n      mstore\n      swap2\n      0x20\n      add\n      swap2\n      jump(tag_88)\n    tag_89:\n      dup3\n      add\n      swap2\n      swap1\n      0x00\n      mstore\n      keccak256(0x00, 0x20)\n      swap1\n    tag_90:\n      dup2\n      sload\n      dup2\n      mstore\n      swap1\n      0x01\n      add\n      swap1\n      0x20\n      add\n      dup1\n      dup4\n      gt\n      tag_90\n      jumpi\n      dup3\n      swap1\n      sub\n      0x1f\n      and\n      dup3\n      add\n      swap2\n    tag_88:\n      pop\n      pop\n      pop\n      pop\n      pop\n      swap1\n      pop\n        /* \"@openzeppelin/contracts-upgradeable/token/ERC20/ERC20Upgradeable.sol\":2491:2589  function name() public view virtual override returns (string memory) {... */\n      swap1\n      jump\t// out\n        /* \"@openzeppelin/contracts-upgradeable/token/ERC20/ERC20Upgradeable.sol\":4768:4965  function approve(address spender, uint256 amount) public virtual override returns (bool) {... */\n    tag_29:\n        /* \"@openzeppelin/contracts-upgradeable/token/ERC20/ERC20Upgradeable.sol\":4851:4855  bool */\n      0x00\n        /* \"@openzeppelin/contracts-upgradeable/token/ERC20/ERC20Upgradeable.sol\":4867:4880  address owner */\n      dup1\n        /* \"@openzeppelin/contracts-upgradeable/token/ERC20/ERC20Upgradeable.sol\":4883:4895  _msgSender() */\n      tag_92\n        /* \"@openzeppelin/contracts-upgradeable/token/ERC20/ERC20Upgradeable.sol\":4883:4893  _msgSender */\n      tag_93\n        /* \"@openzeppelin/contracts-upgradeable/token/ERC20/ERC20Upgradeable.sol\":4883:4895  _msgSender() */\n      jump\t// in\n    tag_92:\n        /* \"@openzeppelin/contracts-upgradeable/token/ERC20/ERC20Upgradeable.sol\":4867:4895  address owner = _msgSender() */\n      swap1\n      pop\n        /* \"@openzeppelin/contracts-upgradeable/token/ERC20/ERC20Upgradeable.sol\":4905:4937  _approve(owner, spender, amount) */\n      tag_94\n        /* \"@openzeppelin/contracts-upgradeable/token/ERC20/ERC20Upgradeable.sol\":4914:4919  owner */\n      dup2\n        /* \"@openzeppelin/contracts-upgradeable/token/ERC20/ERC20Upgradeable.sol\":4921:4928  spender */\n      dup6\n        /* \"@openzeppelin/contracts-upgradeable/token/ERC20/ERC20Upgradeable.sol\":4930:4936  amount */\n      dup6\n        /* \"@openzeppelin/contracts-upgradeable/token/ERC20/ERC20Upgradeable.sol\":4905:4913  _approve */\n      tag_95\n        /* \"@openzeppelin/contracts-upgradeable/token/ERC20/ERC20Upgradeable.sol\":4905:4937  _approve(owner, spender, amount) */\n      jump\t// in\n    tag_94:\n        /* \"@openzeppelin/contracts-upgradeable/token/ERC20/ERC20Upgradeable.sol\":4954:4958  true */\n      0x01\n        /* \"@openzeppelin/contracts-upgradeable/token/ERC20/ERC20Upgradeable.sol\":4947:4958  return true */\n      swap2\n      pop\n      pop\n        /* \"@openzeppelin/contracts-upgradeable/token/ERC20/ERC20Upgradeable.sol\":4768:4965  function approve(address spender, uint256 amount) public virtual override returns (bool) {... */\n      swap3\n      swap2\n      pop\n      pop\n      jump\t// out\n        /* \"@openzeppelin/contracts-upgradeable/token/ERC20/ERC20Upgradeable.sol\":3579:3685  function totalSupply() public view virtual override returns (uint256) {... */\n    tag_33:\n        /* \"@openzeppelin/contracts-upgradeable/token/ERC20/ERC20Upgradeable.sol\":3640:3647  uint256 */\n      0x00\n        /* \"@openzeppelin/contracts-upgradeable/token/ERC20/ERC20Upgradeable.sol\":3666:3678  _totalSupply */\n      sload(0x35)\n        /* \"@openzeppelin/contracts-upgradeable/token/ERC20/ERC20Upgradeable.sol\":3659:3678  return _totalSupply */\n      swap1\n      pop\n        /* \"@openzeppelin/contracts-upgradeable/token/ERC20/ERC20Upgradeable.sol\":3579:3685  function totalSupply() public view virtual override returns (uint256) {... */\n      swap1\n      jump\t// out\n        /* \"@openzeppelin/contracts-upgradeable/token/ERC20/ERC20Upgradeable.sol\":5527:5813  function transferFrom(... */\n    tag_39:\n        /* \"@openzeppelin/contracts-upgradeable/token/ERC20/ERC20Upgradeable.sol\":5654:5658  bool */\n      0x00\n        /* \"@openzeppelin/contracts-upgradeable/token/ERC20/ERC20Upgradeable.sol\":5670:5685  address spender */\n      dup1\n        /* \"@openzeppelin/contracts-upgradeable/token/ERC20/ERC20Upgradeable.sol\":5688:5700  _msgSender() */\n      tag_98\n        /* \"@openzeppelin/contracts-upgradeable/token/ERC20/ERC20Upgradeable.sol\":5688:5698  _msgSender */\n      tag_93\n        /* \"@openzeppelin/contracts-upgradeable/token/ERC20/ERC20Upgradeable.sol\":5688:5700  _msgSender() */\n      jump\t// in\n    tag_98:\n        /* \"@openzeppelin/contracts-upgradeable/token/ERC20/ERC20Upgradeable.sol\":5670:5700  address spender = _msgSender() */\n      swap1\n      pop\n        /* \"@openzeppelin/contracts-upgradeable/token/ERC20/ERC20Upgradeable.sol\":5710:5748  _spendAllowance(from, spender, amount) */\n      tag_99\n        /* \"@openzeppelin/contracts-upgradeable/token/ERC20/ERC20Upgradeable.sol\":5726:5730  from */\n      dup6\n        /* \"@openzeppelin/contracts-upgradeable/token/ERC20/ERC20Upgradeable.sol\":5732:5739  spender */\n      dup3\n        /* \"@openzeppelin/contracts-upgradeable/token/ERC20/ERC20Upgradeable.sol\":5741:5747  amount */\n      dup6\n        /* \"@openzeppelin/contracts-upgradeable/token/ERC20/ERC20Upgradeable.sol\":5710:5725  _spendAllowance */\n      tag_100\n        /* \"@openzeppelin/contracts-upgradeable/token/ERC20/ERC20Upgradeable.sol\":5710:5748  _spendAllowance(from, spender, amount) */\n      jump\t// in\n    tag_99:\n        /* \"@openzeppelin/contracts-upgradeable/token/ERC20/ERC20Upgradeable.sol\":5758:5785  _transfer(from, to, amount) */\n      tag_101\n        /* \"@openzeppelin/contracts-upgradeable/token/ERC20/ERC20Upgradeable.sol\":5768:5772  from */\n      dup6\n        /* \"@openzeppelin/contracts-upgradeable/token/ERC20/ERC20Upgradeable.sol\":5774:5776  to */\n      dup6\n        /* \"@openzeppelin/contracts-upgradeable/token/ERC20/ERC20Upgradeable.sol\":5778:5784  amount */\n      dup6\n        /* \"@openzeppelin/contracts-upgradeable/token/ERC20/ERC20Upgradeable.sol\":5758:5767  _transfer */\n      tag_102\n        /* \"@openzeppelin/contracts-upgradeable/token/ERC20/ERC20Upgradeable.sol\":5758:5785  _transfer(from, to, amount) */\n      jump\t// in\n    tag_101:\n        /* \"@openzeppelin/contracts-upgradeable/token/ERC20/ERC20Upgradeable.sol\":5802:5806  true */\n      0x01\n        /* \"@openzeppelin/contracts-upgradeable/token/ERC20/ERC20Upgradeable.sol\":5795:5806  return true */\n      swap2\n      pop\n      pop\n        /* \"@openzeppelin/contracts-upgradeable/token/ERC20/ERC20Upgradeable.sol\":5527:5813  function transferFrom(... */\n      swap4\n      swap3\n      pop\n      pop\n      pop\n      jump\t// out\n        /* \"@openzeppelin/contracts-upgradeable/token/ERC20/ERC20Upgradeable.sol\":3428:3519  function decimals() public view virtual override returns (uint8) {... */\n    tag_42:\n        /* \"@openzeppelin/contracts-upgradeable/token/ERC20/ERC20Upgradeable.sol\":3486:3491  uint8 */\n      0x00\n        /* \"@openzeppelin/contracts-upgradeable/token/ERC20/ERC20Upgradeable.sol\":3510:3512  18 */\n      0x12\n        /* \"@openzeppelin/contracts-upgradeable/token/ERC20/ERC20Upgradeable.sol\":3503:3512  return 18 */\n      swap1\n      pop\n        /* \"@openzeppelin/contracts-upgradeable/token/ERC20/ERC20Upgradeable.sol\":3428:3519  function decimals() public view virtual override returns (uint8) {... */\n      swap1\n      jump\t// out\n        /* \"@openzeppelin/contracts-upgradeable/token/ERC20/ERC20Upgradeable.sol\":6208:6442  function increaseAllowance(address spender, uint256 addedValue) public virtual returns (bool) {... */\n    tag_47:\n        /* \"@openzeppelin/contracts-upgradeable/token/ERC20/ERC20Upgradeable.sol\":6296:6300  bool */\n      0x00\n        /* \"@openzeppelin/contracts-upgradeable/token/ERC20/ERC20Upgradeable.sol\":6312:6325  address owner */\n      dup1\n        /* \"@openzeppelin/contracts-upgradeable/token/ERC20/ERC20Upgradeable.sol\":6328:6340  _msgSender() */\n      tag_105\n        /* \"@openzeppelin/contracts-upgradeable/token/ERC20/ERC20Upgradeable.sol\":6328:6338  _msgSender */\n      tag_93\n        /* \"@openzeppelin/contracts-upgradeable/token/ERC20/ERC20Upgradeable.sol\":6328:6340  _msgSender() */\n      jump\t// in\n    tag_105:\n        /* \"@openzeppelin/contracts-upgradeable/token/ERC20/ERC20Upgradeable.sol\":6312:6340  address owner = _msgSender() */\n      swap1\n      pop\n        /* \"@openzeppelin/contracts-upgradeable/token/ERC20/ERC20Upgradeable.sol\":6350:6414  _approve(owner, spender, allowance(owner, spender) + addedValue) */\n      tag_106\n        /* \"@openzeppelin/contracts-upgradeable/token/ERC20/ERC20Upgradeable.sol\":6359:6364  owner */\n      dup2\n        /* \"@openzeppelin/contracts-upgradeable/token/ERC20/ERC20Upgradeable.sol\":6366:6373  spender */\n      dup6\n        /* \"@openzeppelin/contracts-upgradeable/token/ERC20/ERC20Upgradeable.sol\":6403:6413  addedValue */\n      dup6\n        /* \"@openzeppelin/contracts-upgradeable/token/ERC20/ERC20Upgradeable.sol\":6375:6400  allowance(owner, spender) */\n      tag_107\n        /* \"@openzeppelin/contracts-upgradeable/token/ERC20/ERC20Upgradeable.sol\":6385:6390  owner */\n      dup6\n        /* \"@openzeppelin/contracts-upgradeable/token/ERC20/ERC20Upgradeable.sol\":6392:6399  spender */\n      dup10\n        /* \"@openzeppelin/contracts-upgradeable/token/ERC20/ERC20Upgradeable.sol\":6375:6384  allowance */\n      tag_79\n        /* \"@openzeppelin/contracts-upgradeable/token/ERC20/ERC20Upgradeable.sol\":6375:6400  allowance(owner, spender) */\n      jump\t// in\n    tag_107:\n        /* \"@openzeppelin/contracts-upgradeable/token/ERC20/ERC20Upgradeable.sol\":6375:6413  allowance(owner, spender) + addedValue */\n      tag_108\n      swap2\n      swap1\n      tag_109\n      jump\t// in\n    tag_108:\n        /* \"@openzeppelin/contracts-upgradeable/token/ERC20/ERC20Upgradeable.sol\":6350:6358  _approve */\n      tag_95\n        /* \"@openzeppelin/contracts-upgradeable/token/ERC20/ERC20Upgradeable.sol\":6350:6414  _approve(owner, spender, allowance(owner, spender) + addedValue) */\n      jump\t// in\n    tag_106:\n        /* \"@openzeppelin/contracts-upgradeable/token/ERC20/ERC20Upgradeable.sol\":6431:6435  true */\n      0x01\n        /* \"@openzeppelin/contracts-upgradeable/token/ERC20/ERC20Upgradeable.sol\":6424:6435  return true */\n      swap2\n      pop\n      pop\n        /* \"@openzeppelin/contracts-upgradeable/token/ERC20/ERC20Upgradeable.sol\":6208:6442  function increaseAllowance(address spender, uint256 addedValue) public virtual returns (bool) {... */\n      swap3\n      swap2\n      pop\n      pop\n      jump\t// out\n        /* \"contracts/MyToken.sol\":603:696  function mint(address to, uint256 amount) public onlyOwner {... */\n    tag_51:\n        /* \"@openzeppelin/contracts-upgradeable/access/OwnableUpgradeable.sol\":1334:1347  _checkOwner() */\n      tag_111\n        /* \"@openzeppelin/contracts-upgradeable/access/OwnableUpgradeable.sol\":1334:1345  _checkOwner */\n      tag_112\n        /* \"@openzeppelin/contracts-upgradeable/access/OwnableUpgradeable.sol\":1334:1347  _checkOwner() */\n      jump\t// in\n    tag_111:\n        /* \"contracts/MyToken.sol\":672:689  _mint(to, amount) */\n      tag_114\n        /* \"contracts/MyToken.sol\":678:680  to */\n      dup3\n        /* \"contracts/MyToken.sol\":682:688  amount */\n      dup3\n        /* \"contracts/MyToken.sol\":672:677  _mint */\n      tag_115\n        /* \"contracts/MyToken.sol\":672:689  _mint(to, amount) */\n      jump\t// in\n    tag_114:\n        /* \"contracts/MyToken.sol\":603:696  function mint(address to, uint256 amount) public onlyOwner {... */\n      pop\n      pop\n      jump\t// out\n        /* \"@openzeppelin/contracts-upgradeable/token/ERC20/ERC20Upgradeable.sol\":3743:3868  function balanceOf(address account) public view virtual override returns (uint256) {... */\n    tag_55:\n        /* \"@openzeppelin/contracts-upgradeable/token/ERC20/ERC20Upgradeable.sol\":3817:3824  uint256 */\n      0x00\n        /* \"@openzeppelin/contracts-upgradeable/token/ERC20/ERC20Upgradeable.sol\":3843:3852  _balances */\n      0x33\n        /* \"@openzeppelin/contracts-upgradeable/token/ERC20/ERC20Upgradeable.sol\":3843:3861  _balances[account] */\n      0x00\n        /* \"@openzeppelin/contracts-upgradeable/token/ERC20/ERC20Upgradeable.sol\":3853:3860  account */\n      dup4\n        /* \"@openzeppelin/contracts-upgradeable/token/ERC20/ERC20Upgradeable.sol\":3843:3861  _balances[account] */\n      0xffffffffffffffffffffffffffffffffffffffff\n      and\n      0xffffffffffffffffffffffffffffffffffffffff\n      and\n      dup2\n      mstore\n      0x20\n      add\n      swap1\n      dup2\n      mstore\n      0x20\n      add\n      0x00\n      keccak256\n      sload\n        /* \"@openzeppelin/contracts-upgradeable/token/ERC20/ERC20Upgradeable.sol\":3836:3861  return _balances[account] */\n      swap1\n      pop\n        /* \"@openzeppelin/contracts-upgradeable/token/ERC20/ERC20Upgradeable.sol\":3743:3868  function balanceOf(address account) public view virtual override returns (uint256) {... */\n      swap2\n      swap1\n      pop\n      jump\t// out\n        /* \"@openzeppelin/contracts-upgradeable/access/OwnableUpgradeable.sol\":2071:2172  function renounceOwnership() public virtual onlyOwner {... */\n    tag_58:\n        /* \"@openzeppelin/contracts-upgradeable/access/OwnableUpgradeable.sol\":1334:1347  _checkOwner() */\n      tag_118\n        /* \"@openzeppelin/contracts-upgradeable/access/OwnableUpgradeable.sol\":1334:1345  _checkOwner */\n      tag_112\n        /* \"@openzeppelin/contracts-upgradeable/access/OwnableUpgradeable.sol\":1334:1347  _checkOwner() */\n      jump\t// in\n    tag_118:\n        /* \"@openzeppelin/contracts-upgradeable/access/OwnableUpgradeable.sol\":2135:2165  _transferOwnership(address(0)) */\n      tag_120\n        /* \"@openzeppelin/contracts-upgradeable/access/OwnableUpgradeable.sol\":2162:2163  0 */\n      0x00\n        /* \"@openzeppelin/contracts-upgradeable/access/OwnableUpgradeable.sol\":2135:2153  _transferOwnership */\n      tag_121\n        /* \"@openzeppelin/contracts-upgradeable/access/OwnableUpgradeable.sol\":2135:2165  _transferOwnership(address(0)) */\n      jump\t// in\n    tag_120:\n        /* \"@openzeppelin/contracts-upgradeable/access/OwnableUpgradeable.sol\":2071:2172  function renounceOwnership() public virtual onlyOwner {... */\n      jump\t// out\n        /* \"contracts/MyToken.sol\":481:597  function initialize() initializer public {... */\n    tag_60:\n        /* \"@openzeppelin/contracts-upgradeable/proxy/utils/Initializable.sol\":3268:3287  bool isTopLevelCall */\n      0x00\n        /* \"@openzeppelin/contracts-upgradeable/proxy/utils/Initializable.sol\":3291:3304  _initializing */\n      dup1\n      0x01\n      swap1\n      sload\n      swap1\n      0x0100\n      exp\n      swap1\n      div\n      0xff\n      and\n        /* \"@openzeppelin/contracts-upgradeable/proxy/utils/Initializable.sol\":3290:3304  !_initializing */\n      iszero\n        /* \"@openzeppelin/contracts-upgradeable/proxy/utils/Initializable.sol\":3268:3304  bool isTopLevelCall = !_initializing */\n      swap1\n      pop\n        /* \"@openzeppelin/contracts-upgradeable/proxy/utils/Initializable.sol\":3336:3350  isTopLevelCall */\n      dup1\n        /* \"@openzeppelin/contracts-upgradeable/proxy/utils/Initializable.sol\":3336:3370  isTopLevelCall && _initialized < 1 */\n      dup1\n      iszero\n      tag_123\n      jumpi\n      pop\n        /* \"@openzeppelin/contracts-upgradeable/proxy/utils/Initializable.sol\":3369:3370  1 */\n      0x01\n        /* \"@openzeppelin/contracts-upgradeable/proxy/utils/Initializable.sol\":3354:3366  _initialized */\n      0x00\n      dup1\n      sload\n      swap1\n      0x0100\n      exp\n      swap1\n      div\n      0xff\n      and\n        /* \"@openzeppelin/contracts-upgradeable/proxy/utils/Initializable.sol\":3354:3370  _initialized < 1 */\n      0xff\n      and\n      lt\n        /* \"@openzeppelin/contracts-upgradeable/proxy/utils/Initializable.sol\":3336:3370  isTopLevelCall && _initialized < 1 */\n    tag_123:\n        /* \"@openzeppelin/contracts-upgradeable/proxy/utils/Initializable.sol\":3335:3443  (isTopLevelCall && _initialized < 1) || (!AddressUpgradeable.isContract(address(this)) && _initialized == 1) */\n      dup1\n      tag_124\n      jumpi\n      pop\n        /* \"@openzeppelin/contracts-upgradeable/proxy/utils/Initializable.sol\":3377:3421  AddressUpgradeable.isContract(address(this)) */\n      tag_125\n        /* \"@openzeppelin/contracts-upgradeable/proxy/utils/Initializable.sol\":3415:3419  this */\n      address\n        /* \"@openzeppelin/contracts-upgradeable/proxy/utils/Initializable.sol\":3377:3406  AddressUpgradeable.isContract */\n      tag_126\n        /* \"@openzeppelin/contracts-upgradeable/proxy/utils/Initializable.sol\":3377:3421  AddressUpgradeable.isContract(address(this)) */\n      jump\t// in\n    tag_125:\n        /* \"@openzeppelin/contracts-upgradeable/proxy/utils/Initializable.sol\":3376:3421  !AddressUpgradeable.isContract(address(this)) */\n      iszero\n        /* \"@openzeppelin/contracts-upgradeable/proxy/utils/Initializable.sol\":3376:3442  !AddressUpgradeable.isContract(address(this)) && _initialized == 1 */\n      dup1\n      iszero\n      tag_127\n      jumpi\n      pop\n        /* \"@openzeppelin/contracts-upgradeable/proxy/utils/Initializable.sol\":3441:3442  1 */\n      0x01\n        /* \"@openzeppelin/contracts-upgradeable/proxy/utils/Initializable.sol\":3425:3437  _initialized */\n      0x00\n      dup1\n      sload\n      swap1\n      0x0100\n      exp\n      swap1\n      div\n      0xff\n      and\n        /* \"@openzeppelin/contracts-upgradeable/proxy/utils/Initializable.sol\":3425:3442  _initialized == 1 */\n      0xff\n      and\n      eq\n        /* \"@openzeppelin/contracts-upgradeable/proxy/utils/Initializable.sol\":3376:3442  !AddressUpgradeable.isContract(address(this)) && _initialized == 1 */\n    tag_127:\n        /* \"@openzeppelin/contracts-upgradeable/proxy/utils/Initializable.sol\":3335:3443  (isTopLevelCall && _initialized < 1) || (!AddressUpgradeable.isContract(address(this)) && _initialized == 1) */\n    tag_124:\n        /* \"@openzeppelin/contracts-upgradeable/proxy/utils/Initializable.sol\":3314:3515  require(... */\n      tag_128\n      jumpi\n      mload(0x40)\n      0x08c379a000000000000000000000000000000000000000000000000000000000\n      dup2\n      mstore\n      0x04\n      add\n      tag_129\n      swap1\n      tag_130\n      jump\t// in\n    tag_129:\n      mload(0x40)\n      dup1\n      swap2\n      sub\n      swap1\n      revert\n    tag_128:\n        /* \"@openzeppelin/contracts-upgradeable/proxy/utils/Initializable.sol\":3540:3541  1 */\n      0x01\n        /* \"@openzeppelin/contracts-upgradeable/proxy/utils/Initializable.sol\":3525:3537  _initialized */\n      0x00\n      dup1\n        /* \"@openzeppelin/contracts-upgradeable/proxy/utils/Initializable.sol\":3525:3541  _initialized = 1 */\n      0x0100\n      exp\n      dup2\n      sload\n      dup2\n      0xff\n      mul\n      not\n      and\n      swap1\n      dup4\n      0xff\n      and\n      mul\n      or\n      swap1\n      sstore\n      pop\n        /* \"@openzeppelin/contracts-upgradeable/proxy/utils/Initializable.sol\":3555:3569  isTopLevelCall */\n      dup1\n        /* \"@openzeppelin/contracts-upgradeable/proxy/utils/Initializable.sol\":3551:3616  if (isTopLevelCall) {... */\n      iszero\n      tag_131\n      jumpi\n        /* \"@openzeppelin/contracts-upgradeable/proxy/utils/Initializable.sol\":3601:3605  true */\n      0x01\n        /* \"@openzeppelin/contracts-upgradeable/proxy/utils/Initializable.sol\":3585:3598  _initializing */\n      0x00\n      0x01\n        /* \"@openzeppelin/contracts-upgradeable/proxy/utils/Initializable.sol\":3585:3605  _initializing = true */\n      0x0100\n      exp\n      dup2\n      sload\n      dup2\n      0xff\n      mul\n      not\n      and\n      swap1\n      dup4\n      iszero\n      iszero\n      mul\n      or\n      swap1\n      sstore\n      pop\n        /* \"@openzeppelin/contracts-upgradeable/proxy/utils/Initializable.sol\":3551:3616  if (isTopLevelCall) {... */\n    tag_131:\n        /* \"contracts/MyToken.sol\":532:564  __ERC20_init(\"HeroToken\", \"HTK\") */\n      tag_133\n      mload(0x40)\n      dup1\n      0x40\n      add\n      0x40\n      mstore\n      dup1\n      0x09\n      dup2\n      mstore\n      0x20\n      add\n      0x4865726f546f6b656e0000000000000000000000000000000000000000000000\n      dup2\n      mstore\n      pop\n      mload(0x40)\n      dup1\n      0x40\n      add\n      0x40\n      mstore\n      dup1\n      0x03\n      dup2\n      mstore\n      0x20\n      add\n      0x48544b0000000000000000000000000000000000000000000000000000000000\n      dup2\n      mstore\n      pop\n        /* \"contracts/MyToken.sol\":532:544  __ERC20_init */\n      tag_134\n        /* \"contracts/MyToken.sol\":532:564  __ERC20_init(\"HeroToken\", \"HTK\") */\n      jump\t// in\n    tag_133:\n        /* \"contracts/MyToken.sol\":574:590  __Ownable_init() */\n      tag_135\n        /* \"contracts/MyToken.sol\":574:588  __Ownable_init */\n      tag_136\n        /* \"contracts/MyToken.sol\":574:590  __Ownable_init() */\n      jump\t// in\n    tag_135:\n        /* \"@openzeppelin/contracts-upgradeable/proxy/utils/Initializable.sol\":3640:3654  isTopLevelCall */\n      dup1\n        /* \"@openzeppelin/contracts-upgradeable/proxy/utils/Initializable.sol\":3636:3735  if (isTopLevelCall) {... */\n      iszero\n      tag_137\n      jumpi\n        /* \"@openzeppelin/contracts-upgradeable/proxy/utils/Initializable.sol\":3686:3691  false */\n      0x00\n        /* \"@openzeppelin/contracts-upgradeable/proxy/utils/Initializable.sol\":3670:3683  _initializing */\n      dup1\n      0x01\n        /* \"@openzeppelin/contracts-upgradeable/proxy/utils/Initializable.sol\":3670:3691  _initializing = false */\n      0x0100\n      exp\n      dup2\n      sload\n      dup2\n      0xff\n      mul\n      not\n      and\n      swap1\n      dup4\n      iszero\n      iszero\n      mul\n      or\n      swap1\n      sstore\n      pop\n        /* \"@openzeppelin/contracts-upgradeable/proxy/utils/Initializable.sol\":3710:3724  Initialized(1) */\n      0x7f26b83ff96e1f2b6a682f133852f6798a09c465da95921460cefb3847402498\n        /* \"@openzeppelin/contracts-upgradeable/proxy/utils/Initializable.sol\":3722:3723  1 */\n      0x01\n        /* \"@openzeppelin/contracts-upgradeable/proxy/utils/Initializable.sol\":3710:3724  Initialized(1) */\n      mload(0x40)\n      tag_138\n      swap2\n      swap1\n      tag_139\n      jump\t// in\n    tag_138:\n      mload(0x40)\n      dup1\n      swap2\n      sub\n      swap1\n      log1\n        /* \"@openzeppelin/contracts-upgradeable/proxy/utils/Initializable.sol\":3636:3735  if (isTopLevelCall) {... */\n    tag_137:\n        /* \"@openzeppelin/contracts-upgradeable/proxy/utils/Initializable.sol\":3258:3741  {... */\n      pop\n        /* \"contracts/MyToken.sol\":481:597  function initialize() initializer public {... */\n      jump\t// out\n        /* \"@openzeppelin/contracts-upgradeable/access/OwnableUpgradeable.sol\":1441:1526  function owner() public view virtual returns (address) {... */\n    tag_62:\n        /* \"@openzeppelin/contracts-upgradeable/access/OwnableUpgradeable.sol\":1487:1494  address */\n      0x00\n        /* \"@openzeppelin/contracts-upgradeable/access/OwnableUpgradeable.sol\":1513:1519  _owner */\n      0x65\n      0x00\n      swap1\n      sload\n      swap1\n      0x0100\n      exp\n      swap1\n      div\n      0xffffffffffffffffffffffffffffffffffffffff\n      and\n        /* \"@openzeppelin/contracts-upgradeable/access/OwnableUpgradeable.sol\":1506:1519  return _owner */\n      swap1\n      pop\n        /* \"@openzeppelin/contracts-upgradeable/access/OwnableUpgradeable.sol\":1441:1526  function owner() public view virtual returns (address) {... */\n      swap1\n      jump\t// out\n        /* \"@openzeppelin/contracts-upgradeable/token/ERC20/ERC20Upgradeable.sol\":2702:2804  function symbol() public view virtual override returns (string memory) {... */\n    tag_66:\n        /* \"@openzeppelin/contracts-upgradeable/token/ERC20/ERC20Upgradeable.sol\":2758:2771  string memory */\n      0x60\n        /* \"@openzeppelin/contracts-upgradeable/token/ERC20/ERC20Upgradeable.sol\":2790:2797  _symbol */\n      0x37\n        /* \"@openzeppelin/contracts-upgradeable/token/ERC20/ERC20Upgradeable.sol\":2783:2797  return _symbol */\n      dup1\n      sload\n      tag_142\n      swap1\n      tag_86\n      jump\t// in\n    tag_142:\n      dup1\n      0x1f\n      add\n      0x20\n      dup1\n      swap2\n      div\n      mul\n      0x20\n      add\n      mload(0x40)\n      swap1\n      dup2\n      add\n      0x40\n      mstore\n      dup1\n      swap3\n      swap2\n      swap1\n      dup2\n      dup2\n      mstore\n      0x20\n      add\n      dup3\n      dup1\n      sload\n      tag_143\n      swap1\n      tag_86\n      jump\t// in\n    tag_143:\n      dup1\n      iszero\n      tag_144\n      jumpi\n      dup1\n      0x1f\n      lt\n      tag_145\n      jumpi\n      0x0100\n      dup1\n      dup4\n      sload\n      div\n      mul\n      dup4\n      mstore\n      swap2\n      0x20\n      add\n      swap2\n      jump(tag_144)\n    tag_145:\n      dup3\n      add\n      swap2\n      swap1\n      0x00\n      mstore\n      keccak256(0x00, 0x20)\n      swap1\n    tag_146:\n      dup2\n      sload\n      dup2\n      mstore\n      swap1\n      0x01\n      add\n      swap1\n      0x20\n      add\n      dup1\n      dup4\n      gt\n      tag_146\n      jumpi\n      dup3\n      swap1\n      sub\n      0x1f\n      and\n      dup3\n      add\n      swap2\n    tag_144:\n      pop\n      pop\n      pop\n      pop\n      pop\n      swap1\n      pop\n        /* \"@openzeppelin/contracts-upgradeable/token/ERC20/ERC20Upgradeable.sol\":2702:2804  function symbol() public view virtual override returns (string memory) {... */\n      swap1\n      jump\t// out\n        /* \"@openzeppelin/contracts-upgradeable/token/ERC20/ERC20Upgradeable.sol\":6929:7356  function decreaseAllowance(address spender, uint256 subtractedValue) public virtual returns (bool) {... */\n    tag_70:\n        /* \"@openzeppelin/contracts-upgradeable/token/ERC20/ERC20Upgradeable.sol\":7022:7026  bool */\n      0x00\n        /* \"@openzeppelin/contracts-upgradeable/token/ERC20/ERC20Upgradeable.sol\":7038:7051  address owner */\n      dup1\n        /* \"@openzeppelin/contracts-upgradeable/token/ERC20/ERC20Upgradeable.sol\":7054:7066  _msgSender() */\n      tag_148\n        /* \"@openzeppelin/contracts-upgradeable/token/ERC20/ERC20Upgradeable.sol\":7054:7064  _msgSender */\n      tag_93\n        /* \"@openzeppelin/contracts-upgradeable/token/ERC20/ERC20Upgradeable.sol\":7054:7066  _msgSender() */\n      jump\t// in\n    tag_148:\n        /* \"@openzeppelin/contracts-upgradeable/token/ERC20/ERC20Upgradeable.sol\":7038:7066  address owner = _msgSender() */\n      swap1\n      pop\n        /* \"@openzeppelin/contracts-upgradeable/token/ERC20/ERC20Upgradeable.sol\":7076:7100  uint256 currentAllowance */\n      0x00\n        /* \"@openzeppelin/contracts-upgradeable/token/ERC20/ERC20Upgradeable.sol\":7103:7128  allowance(owner, spender) */\n      tag_149\n        /* \"@openzeppelin/contracts-upgradeable/token/ERC20/ERC20Upgradeable.sol\":7113:7118  owner */\n      dup3\n        /* \"@openzeppelin/contracts-upgradeable/token/ERC20/ERC20Upgradeable.sol\":7120:7127  spender */\n      dup7\n        /* \"@openzeppelin/contracts-upgradeable/token/ERC20/ERC20Upgradeable.sol\":7103:7112  allowance */\n      tag_79\n        /* \"@openzeppelin/contracts-upgradeable/token/ERC20/ERC20Upgradeable.sol\":7103:7128  allowance(owner, spender) */\n      jump\t// in\n    tag_149:\n        /* \"@openzeppelin/contracts-upgradeable/token/ERC20/ERC20Upgradeable.sol\":7076:7128  uint256 currentAllowance = allowance(owner, spender) */\n      swap1\n      pop\n        /* \"@openzeppelin/contracts-upgradeable/token/ERC20/ERC20Upgradeable.sol\":7166:7181  subtractedValue */\n      dup4\n        /* \"@openzeppelin/contracts-upgradeable/token/ERC20/ERC20Upgradeable.sol\":7146:7162  currentAllowance */\n      dup2\n        /* \"@openzeppelin/contracts-upgradeable/token/ERC20/ERC20Upgradeable.sol\":7146:7181  currentAllowance >= subtractedValue */\n      lt\n      iszero\n        /* \"@openzeppelin/contracts-upgradeable/token/ERC20/ERC20Upgradeable.sol\":7138:7223  require(currentAllowance >= subtractedValue, \"ERC20: decreased allowance below zero\") */\n      tag_150\n      jumpi\n      mload(0x40)\n      0x08c379a000000000000000000000000000000000000000000000000000000000\n      dup2\n      mstore\n      0x04\n      add\n      tag_151\n      swap1\n      tag_152\n      jump\t// in\n    tag_151:\n      mload(0x40)\n      dup1\n      swap2\n      sub\n      swap1\n      revert\n    tag_150:\n        /* \"@openzeppelin/contracts-upgradeable/token/ERC20/ERC20Upgradeable.sol\":7257:7317  _approve(owner, spender, currentAllowance - subtractedValue) */\n      tag_153\n        /* \"@openzeppelin/contracts-upgradeable/token/ERC20/ERC20Upgradeable.sol\":7266:7271  owner */\n      dup3\n        /* \"@openzeppelin/contracts-upgradeable/token/ERC20/ERC20Upgradeable.sol\":7273:7280  spender */\n      dup7\n        /* \"@openzeppelin/contracts-upgradeable/token/ERC20/ERC20Upgradeable.sol\":7301:7316  subtractedValue */\n      dup7\n        /* \"@openzeppelin/contracts-upgradeable/token/ERC20/ERC20Upgradeable.sol\":7282:7298  currentAllowance */\n      dup5\n        /* \"@openzeppelin/contracts-upgradeable/token/ERC20/ERC20Upgradeable.sol\":7282:7316  currentAllowance - subtractedValue */\n      sub\n        /* \"@openzeppelin/contracts-upgradeable/token/ERC20/ERC20Upgradeable.sol\":7257:7265  _approve */\n      tag_95\n        /* \"@openzeppelin/contracts-upgradeable/token/ERC20/ERC20Upgradeable.sol\":7257:7317  _approve(owner, spender, currentAllowance - subtractedValue) */\n      jump\t// in\n    tag_153:\n        /* \"@openzeppelin/contracts-upgradeable/token/ERC20/ERC20Upgradeable.sol\":7345:7349  true */\n      0x01\n        /* \"@openzeppelin/contracts-upgradeable/token/ERC20/ERC20Upgradeable.sol\":7338:7349  return true */\n      swap3\n      pop\n      pop\n      pop\n        /* \"@openzeppelin/contracts-upgradeable/token/ERC20/ERC20Upgradeable.sol\":6929:7356  function decreaseAllowance(address spender, uint256 subtractedValue) public virtual returns (bool) {... */\n      swap3\n      swap2\n      pop\n      pop\n      jump\t// out\n        /* \"@openzeppelin/contracts-upgradeable/token/ERC20/ERC20Upgradeable.sol\":4064:4253  function transfer(address to, uint256 amount) public virtual override returns (bool) {... */\n    tag_74:\n        /* \"@openzeppelin/contracts-upgradeable/token/ERC20/ERC20Upgradeable.sol\":4143:4147  bool */\n      0x00\n        /* \"@openzeppelin/contracts-upgradeable/token/ERC20/ERC20Upgradeable.sol\":4159:4172  address owner */\n      dup1\n        /* \"@openzeppelin/contracts-upgradeable/token/ERC20/ERC20Upgradeable.sol\":4175:4187  _msgSender() */\n      tag_155\n        /* \"@openzeppelin/contracts-upgradeable/token/ERC20/ERC20Upgradeable.sol\":4175:4185  _msgSender */\n      tag_93\n        /* \"@openzeppelin/contracts-upgradeable/token/ERC20/ERC20Upgradeable.sol\":4175:4187  _msgSender() */\n      jump\t// in\n    tag_155:\n        /* \"@openzeppelin/contracts-upgradeable/token/ERC20/ERC20Upgradeable.sol\":4159:4187  address owner = _msgSender() */\n      swap1\n      pop\n        /* \"@openzeppelin/contracts-upgradeable/token/ERC20/ERC20Upgradeable.sol\":4197:4225  _transfer(owner, to, amount) */\n      tag_156\n        /* \"@openzeppelin/contracts-upgradeable/token/ERC20/ERC20Upgradeable.sol\":4207:4212  owner */\n      dup2\n        /* \"@openzeppelin/contracts-upgradeable/token/ERC20/ERC20Upgradeable.sol\":4214:4216  to */\n      dup6\n        /* \"@openzeppelin/contracts-upgradeable/token/ERC20/ERC20Upgradeable.sol\":4218:4224  amount */\n      dup6\n        /* \"@openzeppelin/contracts-upgradeable/token/ERC20/ERC20Upgradeable.sol\":4197:4206  _transfer */\n      tag_102\n        /* \"@openzeppelin/contracts-upgradeable/token/ERC20/ERC20Upgradeable.sol\":4197:4225  _transfer(owner, to, amount) */\n      jump\t// in\n    tag_156:\n        /* \"@openzeppelin/contracts-upgradeable/token/ERC20/ERC20Upgradeable.sol\":4242:4246  true */\n      0x01\n        /* \"@openzeppelin/contracts-upgradeable/token/ERC20/ERC20Upgradeable.sol\":4235:4246  return true */\n      swap2\n      pop\n      pop\n        /* \"@openzeppelin/contracts-upgradeable/token/ERC20/ERC20Upgradeable.sol\":4064:4253  function transfer(address to, uint256 amount) public virtual override returns (bool) {... */\n      swap3\n      swap2\n      pop\n      pop\n      jump\t// out\n        /* \"@openzeppelin/contracts-upgradeable/token/ERC20/ERC20Upgradeable.sol\":4311:4460  function allowance(address owner, address spender) public view virtual override returns (uint256) {... */\n    tag_79:\n        /* \"@openzeppelin/contracts-upgradeable/token/ERC20/ERC20Upgradeable.sol\":4400:4407  uint256 */\n      0x00\n        /* \"@openzeppelin/contracts-upgradeable/token/ERC20/ERC20Upgradeable.sol\":4426:4437  _allowances */\n      0x34\n        /* \"@openzeppelin/contracts-upgradeable/token/ERC20/ERC20Upgradeable.sol\":4426:4444  _allowances[owner] */\n      0x00\n        /* \"@openzeppelin/contracts-upgradeable/token/ERC20/ERC20Upgradeable.sol\":4438:4443  owner */\n      dup5\n        /* \"@openzeppelin/contracts-upgradeable/token/ERC20/ERC20Upgradeable.sol\":4426:4444  _allowances[owner] */\n      0xffffffffffffffffffffffffffffffffffffffff\n      and\n      0xffffffffffffffffffffffffffffffffffffffff\n      and\n      dup2\n      mstore\n      0x20\n      add\n      swap1\n      dup2\n      mstore\n      0x20\n      add\n      0x00\n      keccak256\n        /* \"@openzeppelin/contracts-upgradeable/token/ERC20/ERC20Upgradeable.sol\":4426:4453  _allowances[owner][spender] */\n      0x00\n        /* \"@openzeppelin/contracts-upgradeable/token/ERC20/ERC20Upgradeable.sol\":4445:4452  spender */\n      dup4\n        /* \"@openzeppelin/contracts-upgradeable/token/ERC20/ERC20Upgradeable.sol\":4426:4453  _allowances[owner][spender] */\n      0xffffffffffffffffffffffffffffffffffffffff\n      and\n      0xffffffffffffffffffffffffffffffffffffffff\n      and\n      dup2\n      mstore\n      0x20\n      add\n      swap1\n      dup2\n      mstore\n      0x20\n      add\n      0x00\n      keccak256\n      sload\n        /* \"@openzeppelin/contracts-upgradeable/token/ERC20/ERC20Upgradeable.sol\":4419:4453  return _allowances[owner][spender] */\n      swap1\n      pop\n        /* \"@openzeppelin/contracts-upgradeable/token/ERC20/ERC20Upgradeable.sol\":4311:4460  function allowance(address owner, address spender) public view virtual override returns (uint256) {... */\n      swap3\n      swap2\n      pop\n      pop\n      jump\t// out\n        /* \"@openzeppelin/contracts-upgradeable/access/OwnableUpgradeable.sol\":2321:2519  function transferOwnership(address newOwner) public virtual onlyOwner {... */\n    tag_83:\n        /* \"@openzeppelin/contracts-upgradeable/access/OwnableUpgradeable.sol\":1334:1347  _checkOwner() */\n      tag_159\n        /* \"@openzeppelin/contracts-upgradeable/access/OwnableUpgradeable.sol\":1334:1345  _checkOwner */\n      tag_112\n        /* \"@openzeppelin/contracts-upgradeable/access/OwnableUpgradeable.sol\":1334:1347  _checkOwner() */\n      jump\t// in\n    tag_159:\n        /* \"@openzeppelin/contracts-upgradeable/access/OwnableUpgradeable.sol\":2429:2430  0 */\n      0x00\n        /* \"@openzeppelin/contracts-upgradeable/access/OwnableUpgradeable.sol\":2409:2431  newOwner != address(0) */\n      0xffffffffffffffffffffffffffffffffffffffff\n      and\n        /* \"@openzeppelin/contracts-upgradeable/access/OwnableUpgradeable.sol\":2409:2417  newOwner */\n      dup2\n        /* \"@openzeppelin/contracts-upgradeable/access/OwnableUpgradeable.sol\":2409:2431  newOwner != address(0) */\n      0xffffffffffffffffffffffffffffffffffffffff\n      and\n      sub\n        /* \"@openzeppelin/contracts-upgradeable/access/OwnableUpgradeable.sol\":2401:2474  require(newOwner != address(0), \"Ownable: new owner is the zero address\") */\n      tag_161\n      jumpi\n      mload(0x40)\n      0x08c379a000000000000000000000000000000000000000000000000000000000\n      dup2\n      mstore\n      0x04\n      add\n      tag_162\n      swap1\n      tag_163\n      jump\t// in\n    tag_162:\n      mload(0x40)\n      dup1\n      swap2\n      sub\n      swap1\n      revert\n    tag_161:\n        /* \"@openzeppelin/contracts-upgradeable/access/OwnableUpgradeable.sol\":2484:2512  _transferOwnership(newOwner) */\n      tag_164\n        /* \"@openzeppelin/contracts-upgradeable/access/OwnableUpgradeable.sol\":2503:2511  newOwner */\n      dup2\n        /* \"@openzeppelin/contracts-upgradeable/access/OwnableUpgradeable.sol\":2484:2502  _transferOwnership */\n      tag_121\n        /* \"@openzeppelin/contracts-upgradeable/access/OwnableUpgradeable.sol\":2484:2512  _transferOwnership(newOwner) */\n      jump\t// in\n    tag_164:\n        /* \"@openzeppelin/contracts-upgradeable/access/OwnableUpgradeable.sol\":2321:2519  function transferOwnership(address newOwner) public virtual onlyOwner {... */\n      pop\n      jump\t// out\n        /* \"@openzeppelin/contracts-upgradeable/utils/ContextUpgradeable.sol\":850:946  function _msgSender() internal view virtual returns (address) {... */\n    tag_93:\n        /* \"@openzeppelin/contracts-upgradeable/utils/ContextUpgradeable.sol\":903:910  address */\n      0x00\n        /* \"@openzeppelin/contracts-upgradeable/utils/ContextUpgradeable.sol\":929:939  msg.sender */\n      caller\n        /* \"@openzeppelin/contracts-upgradeable/utils/ContextUpgradeable.sol\":922:939  return msg.sender */\n      swap1\n      pop\n        /* \"@openzeppelin/contracts-upgradeable/utils/ContextUpgradeable.sol\":850:946  function _msgSender() internal view virtual returns (address) {... */\n      swap1\n      jump\t// out\n        /* \"@openzeppelin/contracts-upgradeable/token/ERC20/ERC20Upgradeable.sol\":10841:11211  function _approve(... */\n    tag_95:\n        /* \"@openzeppelin/contracts-upgradeable/token/ERC20/ERC20Upgradeable.sol\":10989:10990  0 */\n      0x00\n        /* \"@openzeppelin/contracts-upgradeable/token/ERC20/ERC20Upgradeable.sol\":10972:10991  owner != address(0) */\n      0xffffffffffffffffffffffffffffffffffffffff\n      and\n        /* \"@openzeppelin/contracts-upgradeable/token/ERC20/ERC20Upgradeable.sol\":10972:10977  owner */\n      dup4\n        /* \"@openzeppelin/contracts-upgradeable/token/ERC20/ERC20Upgradeable.sol\":10972:10991  owner != address(0) */\n      0xffffffffffffffffffffffffffffffffffffffff\n      and\n      sub\n        /* \"@openzeppelin/contracts-upgradeable/token/ERC20/ERC20Upgradeable.sol\":10964:11032  require(owner != address(0), \"ERC20: approve from the zero address\") */\n      tag_167\n      jumpi\n      mload(0x40)\n      0x08c379a000000000000000000000000000000000000000000000000000000000\n      dup2\n      mstore\n      0x04\n      add\n      tag_168\n      swap1\n      tag_169\n      jump\t// in\n    tag_168:\n      mload(0x40)\n      dup1\n      swap2\n      sub\n      swap1\n      revert\n    tag_167:\n        /* \"@openzeppelin/contracts-upgradeable/token/ERC20/ERC20Upgradeable.sol\":11069:11070  0 */\n      0x00\n        /* \"@openzeppelin/contracts-upgradeable/token/ERC20/ERC20Upgradeable.sol\":11050:11071  spender != address(0) */\n      0xffffffffffffffffffffffffffffffffffffffff\n      and\n        /* \"@openzeppelin/contracts-upgradeable/token/ERC20/ERC20Upgradeable.sol\":11050:11057  spender */\n      dup3\n        /* \"@openzeppelin/contracts-upgradeable/token/ERC20/ERC20Upgradeable.sol\":11050:11071  spender != address(0) */\n      0xffffffffffffffffffffffffffffffffffffffff\n      and\n      sub\n        /* \"@openzeppelin/contracts-upgradeable/token/ERC20/ERC20Upgradeable.sol\":11042:11110  require(spender != address(0), \"ERC20: approve to the zero address\") */\n      tag_170\n      jumpi\n      mload(0x40)\n      0x08c379a000000000000000000000000000000000000000000000000000000000\n      dup2\n      mstore\n      0x04\n      add\n      tag_171\n      swap1\n      tag_172\n      jump\t// in\n    tag_171:\n      mload(0x40)\n      dup1\n      swap2\n      sub\n      swap1\n      revert\n    tag_170:\n        /* \"@openzeppelin/contracts-upgradeable/token/ERC20/ERC20Upgradeable.sol\":11151:11157  amount */\n      dup1\n        /* \"@openzeppelin/contracts-upgradeable/token/ERC20/ERC20Upgradeable.sol\":11121:11132  _allowances */\n      0x34\n        /* \"@openzeppelin/contracts-upgradeable/token/ERC20/ERC20Upgradeable.sol\":11121:11139  _allowances[owner] */\n      0x00\n        /* \"@openzeppelin/contracts-upgradeable/token/ERC20/ERC20Upgradeable.sol\":11133:11138  owner */\n      dup6\n        /* \"@openzeppelin/contracts-upgradeable/token/ERC20/ERC20Upgradeable.sol\":11121:11139  _allowances[owner] */\n      0xffffffffffffffffffffffffffffffffffffffff\n      and\n      0xffffffffffffffffffffffffffffffffffffffff\n      and\n      dup2\n      mstore\n      0x20\n      add\n      swap1\n      dup2\n      mstore\n      0x20\n      add\n      0x00\n      keccak256\n        /* \"@openzeppelin/contracts-upgradeable/token/ERC20/ERC20Upgradeable.sol\":11121:11148  _allowances[owner][spender] */\n      0x00\n        /* \"@openzeppelin/contracts-upgradeable/token/ERC20/ERC20Upgradeable.sol\":11140:11147  spender */\n      dup5\n        /* \"@openzeppelin/contracts-upgradeable/token/ERC20/ERC20Upgradeable.sol\":11121:11148  _allowances[owner][spender] */\n      0xffffffffffffffffffffffffffffffffffffffff\n      and\n      0xffffffffffffffffffffffffffffffffffffffff\n      and\n      dup2\n      mstore\n      0x20\n      add\n      swap1\n      dup2\n      mstore\n      0x20\n      add\n      0x00\n      keccak256\n        /* \"@openzeppelin/contracts-upgradeable/token/ERC20/ERC20Upgradeable.sol\":11121:11157  _allowances[owner][spender] = amount */\n      dup2\n      swap1\n      sstore\n      pop\n        /* \"@openzeppelin/contracts-upgradeable/token/ERC20/ERC20Upgradeable.sol\":11188:11195  spender */\n      dup2\n        /* \"@openzeppelin/contracts-upgradeable/token/ERC20/ERC20Upgradeable.sol\":11172:11204  Approval(owner, spender, amount) */\n      0xffffffffffffffffffffffffffffffffffffffff\n      and\n        /* \"@openzeppelin/contracts-upgradeable/token/ERC20/ERC20Upgradeable.sol\":11181:11186  owner */\n      dup4\n        /* \"@openzeppelin/contracts-upgradeable/token/ERC20/ERC20Upgradeable.sol\":11172:11204  Approval(owner, spender, amount) */\n      0xffffffffffffffffffffffffffffffffffffffff\n      and\n      0x8c5be1e5ebec7d5bd14f71427d1e84f3dd0314c0f7b2291e5b200ac8c7c3b925\n        /* \"@openzeppelin/contracts-upgradeable/token/ERC20/ERC20Upgradeable.sol\":11197:11203  amount */\n      dup4\n        /* \"@openzeppelin/contracts-upgradeable/token/ERC20/ERC20Upgradeable.sol\":11172:11204  Approval(owner, spender, amount) */\n      mload(0x40)\n      tag_173\n      swap2\n      swap1\n      tag_35\n      jump\t// in\n    tag_173:\n      mload(0x40)\n      dup1\n      swap2\n      sub\n      swap1\n      log3\n        /* \"@openzeppelin/contracts-upgradeable/token/ERC20/ERC20Upgradeable.sol\":10841:11211  function _approve(... */\n      pop\n      pop\n      pop\n      jump\t// out\n        /* \"@openzeppelin/contracts-upgradeable/token/ERC20/ERC20Upgradeable.sol\":11492:11933  function _spendAllowance(... */\n    tag_100:\n        /* \"@openzeppelin/contracts-upgradeable/token/ERC20/ERC20Upgradeable.sol\":11622:11646  uint256 currentAllowance */\n      0x00\n        /* \"@openzeppelin/contracts-upgradeable/token/ERC20/ERC20Upgradeable.sol\":11649:11674  allowance(owner, spender) */\n      tag_175\n        /* \"@openzeppelin/contracts-upgradeable/token/ERC20/ERC20Upgradeable.sol\":11659:11664  owner */\n      dup5\n        /* \"@openzeppelin/contracts-upgradeable/token/ERC20/ERC20Upgradeable.sol\":11666:11673  spender */\n      dup5\n        /* \"@openzeppelin/contracts-upgradeable/token/ERC20/ERC20Upgradeable.sol\":11649:11658  allowance */\n      tag_79\n        /* \"@openzeppelin/contracts-upgradeable/token/ERC20/ERC20Upgradeable.sol\":11649:11674  allowance(owner, spender) */\n      jump\t// in\n    tag_175:\n        /* \"@openzeppelin/contracts-upgradeable/token/ERC20/ERC20Upgradeable.sol\":11622:11674  uint256 currentAllowance = allowance(owner, spender) */\n      swap1\n      pop\n        /* \"@openzeppelin/contracts-upgradeable/token/ERC20/ERC20Upgradeable.sol\":11708:11725  type(uint256).max */\n      0xffffffffffffffffffffffffffffffffffffffffffffffffffffffffffffffff\n        /* \"@openzeppelin/contracts-upgradeable/token/ERC20/ERC20Upgradeable.sol\":11688:11704  currentAllowance */\n      dup2\n        /* \"@openzeppelin/contracts-upgradeable/token/ERC20/ERC20Upgradeable.sol\":11688:11725  currentAllowance != type(uint256).max */\n      eq\n        /* \"@openzeppelin/contracts-upgradeable/token/ERC20/ERC20Upgradeable.sol\":11684:11927  if (currentAllowance != type(uint256).max) {... */\n      tag_176\n      jumpi\n        /* \"@openzeppelin/contracts-upgradeable/token/ERC20/ERC20Upgradeable.sol\":11769:11775  amount */\n      dup2\n        /* \"@openzeppelin/contracts-upgradeable/token/ERC20/ERC20Upgradeable.sol\":11749:11765  currentAllowance */\n      dup2\n        /* \"@openzeppelin/contracts-upgradeable/token/ERC20/ERC20Upgradeable.sol\":11749:11775  currentAllowance >= amount */\n      lt\n      iszero\n        /* \"@openzeppelin/contracts-upgradeable/token/ERC20/ERC20Upgradeable.sol\":11741:11809  require(currentAllowance >= amount, \"ERC20: insufficient allowance\") */\n      tag_177\n      jumpi\n      mload(0x40)\n      0x08c379a000000000000000000000000000000000000000000000000000000000\n      dup2\n      mstore\n      0x04\n      add\n      tag_178\n      swap1\n      tag_179\n      jump\t// in\n    tag_178:\n      mload(0x40)\n      dup1\n      swap2\n      sub\n      swap1\n      revert\n    tag_177:\n        /* \"@openzeppelin/contracts-upgradeable/token/ERC20/ERC20Upgradeable.sol\":11851:11902  _approve(owner, spender, currentAllowance - amount) */\n      tag_180\n        /* \"@openzeppelin/contracts-upgradeable/token/ERC20/ERC20Upgradeable.sol\":11860:11865  owner */\n      dup5\n        /* \"@openzeppelin/contracts-upgradeable/token/ERC20/ERC20Upgradeable.sol\":11867:11874  spender */\n      dup5\n        /* \"@openzeppelin/contracts-upgradeable/token/ERC20/ERC20Upgradeable.sol\":11895:11901  amount */\n      dup5\n        /* \"@openzeppelin/contracts-upgradeable/token/ERC20/ERC20Upgradeable.sol\":11876:11892  currentAllowance */\n      dup5\n        /* \"@openzeppelin/contracts-upgradeable/token/ERC20/ERC20Upgradeable.sol\":11876:11901  currentAllowance - amount */\n      sub\n        /* \"@openzeppelin/contracts-upgradeable/token/ERC20/ERC20Upgradeable.sol\":11851:11859  _approve */\n      tag_95\n        /* \"@openzeppelin/contracts-upgradeable/token/ERC20/ERC20Upgradeable.sol\":11851:11902  _approve(owner, spender, currentAllowance - amount) */\n      jump\t// in\n    tag_180:\n        /* \"@openzeppelin/contracts-upgradeable/token/ERC20/ERC20Upgradeable.sol\":11684:11927  if (currentAllowance != type(uint256).max) {... */\n    tag_176:\n        /* \"@openzeppelin/contracts-upgradeable/token/ERC20/ERC20Upgradeable.sol\":11612:11933  {... */\n      pop\n        /* \"@openzeppelin/contracts-upgradeable/token/ERC20/ERC20Upgradeable.sol\":11492:11933  function _spendAllowance(... */\n      pop\n      pop\n      pop\n      jump\t// out\n        /* \"@openzeppelin/contracts-upgradeable/token/ERC20/ERC20Upgradeable.sol\":7810:8628  function _transfer(... */\n    tag_102:\n        /* \"@openzeppelin/contracts-upgradeable/token/ERC20/ERC20Upgradeable.sol\":7952:7953  0 */\n      0x00\n        /* \"@openzeppelin/contracts-upgradeable/token/ERC20/ERC20Upgradeable.sol\":7936:7954  from != address(0) */\n      0xffffffffffffffffffffffffffffffffffffffff\n      and\n        /* \"@openzeppelin/contracts-upgradeable/token/ERC20/ERC20Upgradeable.sol\":7936:7940  from */\n      dup4\n        /* \"@openzeppelin/contracts-upgradeable/token/ERC20/ERC20Upgradeable.sol\":7936:7954  from != address(0) */\n      0xffffffffffffffffffffffffffffffffffffffff\n      and\n      sub\n        /* \"@openzeppelin/contracts-upgradeable/token/ERC20/ERC20Upgradeable.sol\":7928:7996  require(from != address(0), \"ERC20: transfer from the zero address\") */\n      tag_182\n      jumpi\n      mload(0x40)\n      0x08c379a000000000000000000000000000000000000000000000000000000000\n      dup2\n      mstore\n      0x04\n      add\n      tag_183\n      swap1\n      tag_184\n      jump\t// in\n    tag_183:\n      mload(0x40)\n      dup1\n      swap2\n      sub\n      swap1\n      revert\n    tag_182:\n        /* \"@openzeppelin/contracts-upgradeable/token/ERC20/ERC20Upgradeable.sol\":8028:8029  0 */\n      0x00\n        /* \"@openzeppelin/contracts-upgradeable/token/ERC20/ERC20Upgradeable.sol\":8014:8030  to != address(0) */\n      0xffffffffffffffffffffffffffffffffffffffff\n      and\n        /* \"@openzeppelin/contracts-upgradeable/token/ERC20/ERC20Upgradeable.sol\":8014:8016  to */\n      dup3\n        /* \"@openzeppelin/contracts-upgradeable/token/ERC20/ERC20Upgradeable.sol\":8014:8030  to != address(0) */\n      0xffffffffffffffffffffffffffffffffffffffff\n      and\n      sub\n        /* \"@openzeppelin/contracts-upgradeable/token/ERC20/ERC20Upgradeable.sol\":8006:8070  require(to != address(0), \"ERC20: transfer to the zero address\") */\n      tag_185\n      jumpi\n      mload(0x40)\n      0x08c379a000000000000000000000000000000000000000000000000000000000\n      dup2\n      mstore\n      0x04\n      add\n      tag_186\n      swap1\n      tag_187\n      jump\t// in\n    tag_186:\n      mload(0x40)\n      dup1\n      swap2\n      sub\n      swap1\n      revert\n    tag_185:\n        /* \"@openzeppelin/contracts-upgradeable/token/ERC20/ERC20Upgradeable.sol\":8081:8119  _beforeTokenTransfer(from, to, amount) */\n      tag_188\n        /* \"@openzeppelin/contracts-upgradeable/token/ERC20/ERC20Upgradeable.sol\":8102:8106  from */\n      dup4\n        /* \"@openzeppelin/contracts-upgradeable/token/ERC20/ERC20Upgradeable.sol\":8108:8110  to */\n      dup4\n        /* \"@openzeppelin/contracts-upgradeable/token/ERC20/ERC20Upgradeable.sol\":8112:8118  amount */\n      dup4\n        /* \"@openzeppelin/contracts-upgradeable/token/ERC20/ERC20Upgradeable.sol\":8081:8101  _beforeTokenTransfer */\n      tag_189\n        /* \"@openzeppelin/contracts-upgradeable/token/ERC20/ERC20Upgradeable.sol\":8081:8119  _beforeTokenTransfer(from, to, amount) */\n      jump\t// in\n    tag_188:\n        /* \"@openzeppelin/contracts-upgradeable/token/ERC20/ERC20Upgradeable.sol\":8130:8149  uint256 fromBalance */\n      0x00\n        /* \"@openzeppelin/contracts-upgradeable/token/ERC20/ERC20Upgradeable.sol\":8152:8161  _balances */\n      0x33\n        /* \"@openzeppelin/contracts-upgradeable/token/ERC20/ERC20Upgradeable.sol\":8152:8167  _balances[from] */\n      0x00\n        /* \"@openzeppelin/contracts-upgradeable/token/ERC20/ERC20Upgradeable.sol\":8162:8166  from */\n      dup6\n        /* \"@openzeppelin/contracts-upgradeable/token/ERC20/ERC20Upgradeable.sol\":8152:8167  _balances[from] */\n      0xffffffffffffffffffffffffffffffffffffffff\n      and\n      0xffffffffffffffffffffffffffffffffffffffff\n      and\n      dup2\n      mstore\n      0x20\n      add\n      swap1\n      dup2\n      mstore\n      0x20\n      add\n      0x00\n      keccak256\n      sload\n        /* \"@openzeppelin/contracts-upgradeable/token/ERC20/ERC20Upgradeable.sol\":8130:8167  uint256 fromBalance = _balances[from] */\n      swap1\n      pop\n        /* \"@openzeppelin/contracts-upgradeable/token/ERC20/ERC20Upgradeable.sol\":8200:8206  amount */\n      dup2\n        /* \"@openzeppelin/contracts-upgradeable/token/ERC20/ERC20Upgradeable.sol\":8185:8196  fromBalance */\n      dup2\n        /* \"@openzeppelin/contracts-upgradeable/token/ERC20/ERC20Upgradeable.sol\":8185:8206  fromBalance >= amount */\n      lt\n      iszero\n        /* \"@openzeppelin/contracts-upgradeable/token/ERC20/ERC20Upgradeable.sol\":8177:8249  require(fromBalance >= amount, \"ERC20: transfer amount exceeds balance\") */\n      tag_190\n      jumpi\n      mload(0x40)\n      0x08c379a000000000000000000000000000000000000000000000000000000000\n      dup2\n      mstore\n      0x04\n      add\n      tag_191\n      swap1\n      tag_192\n      jump\t// in\n    tag_191:\n      mload(0x40)\n      dup1\n      swap2\n      sub\n      swap1\n      revert\n    tag_190:\n        /* \"@openzeppelin/contracts-upgradeable/token/ERC20/ERC20Upgradeable.sol\":8315:8321  amount */\n      dup2\n        /* \"@openzeppelin/contracts-upgradeable/token/ERC20/ERC20Upgradeable.sol\":8301:8312  fromBalance */\n      dup2\n        /* \"@openzeppelin/contracts-upgradeable/token/ERC20/ERC20Upgradeable.sol\":8301:8321  fromBalance - amount */\n      sub\n        /* \"@openzeppelin/contracts-upgradeable/token/ERC20/ERC20Upgradeable.sol\":8283:8292  _balances */\n      0x33\n        /* \"@openzeppelin/contracts-upgradeable/token/ERC20/ERC20Upgradeable.sol\":8283:8298  _balances[from] */\n      0x00\n        /* \"@openzeppelin/contracts-upgradeable/token/ERC20/ERC20Upgradeable.sol\":8293:8297  from */\n      dup7\n        /* \"@openzeppelin/contracts-upgradeable/token/ERC20/ERC20Upgradeable.sol\":8283:8298  _balances[from] */\n      0xffffffffffffffffffffffffffffffffffffffff\n      and\n      0xffffffffffffffffffffffffffffffffffffffff\n      and\n      dup2\n      mstore\n      0x20\n      add\n      swap1\n      dup2\n      mstore\n      0x20\n      add\n      0x00\n      keccak256\n        /* \"@openzeppelin/contracts-upgradeable/token/ERC20/ERC20Upgradeable.sol\":8283:8321  _balances[from] = fromBalance - amount */\n      dup2\n      swap1\n      sstore\n      pop\n        /* \"@openzeppelin/contracts-upgradeable/token/ERC20/ERC20Upgradeable.sol\":8515:8521  amount */\n      dup2\n        /* \"@openzeppelin/contracts-upgradeable/token/ERC20/ERC20Upgradeable.sol\":8498:8507  _balances */\n      0x33\n        /* \"@openzeppelin/contracts-upgradeable/token/ERC20/ERC20Upgradeable.sol\":8498:8511  _balances[to] */\n      0x00\n        /* \"@openzeppelin/contracts-upgradeable/token/ERC20/ERC20Upgradeable.sol\":8508:8510  to */\n      dup6\n        /* \"@openzeppelin/contracts-upgradeable/token/ERC20/ERC20Upgradeable.sol\":8498:8511  _balances[to] */\n      0xffffffffffffffffffffffffffffffffffffffff\n      and\n      0xffffffffffffffffffffffffffffffffffffffff\n      and\n      dup2\n      mstore\n      0x20\n      add\n      swap1\n      dup2\n      mstore\n      0x20\n      add\n      0x00\n      keccak256\n      0x00\n        /* \"@openzeppelin/contracts-upgradeable/token/ERC20/ERC20Upgradeable.sol\":8498:8521  _balances[to] += amount */\n      dup3\n      dup3\n      sload\n      add\n      swap3\n      pop\n      pop\n      dup2\n      swap1\n      sstore\n      pop\n        /* \"@openzeppelin/contracts-upgradeable/token/ERC20/ERC20Upgradeable.sol\":8562:8564  to */\n      dup3\n        /* \"@openzeppelin/contracts-upgradeable/token/ERC20/ERC20Upgradeable.sol\":8547:8573  Transfer(from, to, amount) */\n      0xffffffffffffffffffffffffffffffffffffffff\n      and\n        /* \"@openzeppelin/contracts-upgradeable/token/ERC20/ERC20Upgradeable.sol\":8556:8560  from */\n      dup5\n        /* \"@openzeppelin/contracts-upgradeable/token/ERC20/ERC20Upgradeable.sol\":8547:8573  Transfer(from, to, amount) */\n      0xffffffffffffffffffffffffffffffffffffffff\n      and\n      0xddf252ad1be2c89b69c2b068fc378daa952ba7f163c4a11628f55a4df523b3ef\n        /* \"@openzeppelin/contracts-upgradeable/token/ERC20/ERC20Upgradeable.sol\":8566:8572  amount */\n      dup5\n        /* \"@openzeppelin/contracts-upgradeable/token/ERC20/ERC20Upgradeable.sol\":8547:8573  Transfer(from, to, amount) */\n      mload(0x40)\n      tag_193\n      swap2\n      swap1\n      tag_35\n      jump\t// in\n    tag_193:\n      mload(0x40)\n      dup1\n      swap2\n      sub\n      swap1\n      log3\n        /* \"@openzeppelin/contracts-upgradeable/token/ERC20/ERC20Upgradeable.sol\":8584:8621  _afterTokenTransfer(from, to, amount) */\n      tag_194\n        /* \"@openzeppelin/contracts-upgradeable/token/ERC20/ERC20Upgradeable.sol\":8604:8608  from */\n      dup5\n        /* \"@openzeppelin/contracts-upgradeable/token/ERC20/ERC20Upgradeable.sol\":8610:8612  to */\n      dup5\n        /* \"@openzeppelin/contracts-upgradeable/token/ERC20/ERC20Upgradeable.sol\":8614:8620  amount */\n      dup5\n        /* \"@openzeppelin/contracts-upgradeable/token/ERC20/ERC20Upgradeable.sol\":8584:8603  _afterTokenTransfer */\n      tag_195\n        /* \"@openzeppelin/contracts-upgradeable/token/ERC20/ERC20Upgradeable.sol\":8584:8621  _afterTokenTransfer(from, to, amount) */\n      jump\t// in\n    tag_194:\n        /* \"@openzeppelin/contracts-upgradeable/token/ERC20/ERC20Upgradeable.sol\":7918:8628  {... */\n      pop\n        /* \"@openzeppelin/contracts-upgradeable/token/ERC20/ERC20Upgradeable.sol\":7810:8628  function _transfer(... */\n      pop\n      pop\n      pop\n      jump\t// out\n        /* \"@openzeppelin/contracts-upgradeable/access/OwnableUpgradeable.sol\":1599:1729  function _checkOwner() internal view virtual {... */\n    tag_112:\n        /* \"@openzeppelin/contracts-upgradeable/access/OwnableUpgradeable.sol\":1673:1685  _msgSender() */\n      tag_197\n        /* \"@openzeppelin/contracts-upgradeable/access/OwnableUpgradeable.sol\":1673:1683  _msgSender */\n      tag_93\n        /* \"@openzeppelin/contracts-upgradeable/access/OwnableUpgradeable.sol\":1673:1685  _msgSender() */\n      jump\t// in\n    tag_197:\n        /* \"@openzeppelin/contracts-upgradeable/access/OwnableUpgradeable.sol\":1662:1685  owner() == _msgSender() */\n      0xffffffffffffffffffffffffffffffffffffffff\n      and\n        /* \"@openzeppelin/contracts-upgradeable/access/OwnableUpgradeable.sol\":1662:1669  owner() */\n      tag_198\n        /* \"@openzeppelin/contracts-upgradeable/access/OwnableUpgradeable.sol\":1662:1667  owner */\n      tag_62\n        /* \"@openzeppelin/contracts-upgradeable/access/OwnableUpgradeable.sol\":1662:1669  owner() */\n      jump\t// in\n    tag_198:\n        /* \"@openzeppelin/contracts-upgradeable/access/OwnableUpgradeable.sol\":1662:1685  owner() == _msgSender() */\n      0xffffffffffffffffffffffffffffffffffffffff\n      and\n      eq\n        /* \"@openzeppelin/contracts-upgradeable/access/OwnableUpgradeable.sol\":1654:1722  require(owner() == _msgSender(), \"Ownable: caller is not the owner\") */\n      tag_199\n      jumpi\n      mload(0x40)\n      0x08c379a000000000000000000000000000000000000000000000000000000000\n      dup2\n      mstore\n      0x04\n      add\n      tag_200\n      swap1\n      tag_201\n      jump\t// in\n    tag_200:\n      mload(0x40)\n      dup1\n      swap2\n      sub\n      swap1\n      revert\n    tag_199:\n        /* \"@openzeppelin/contracts-upgradeable/access/OwnableUpgradeable.sol\":1599:1729  function _checkOwner() internal view virtual {... */\n      jump\t// out\n        /* \"@openzeppelin/contracts-upgradeable/token/ERC20/ERC20Upgradeable.sol\":8904:9439  function _mint(address account, uint256 amount) internal virtual {... */\n    tag_115:\n        /* \"@openzeppelin/contracts-upgradeable/token/ERC20/ERC20Upgradeable.sol\":9006:9007  0 */\n      0x00\n        /* \"@openzeppelin/contracts-upgradeable/token/ERC20/ERC20Upgradeable.sol\":8987:9008  account != address(0) */\n      0xffffffffffffffffffffffffffffffffffffffff\n      and\n        /* \"@openzeppelin/contracts-upgradeable/token/ERC20/ERC20Upgradeable.sol\":8987:8994  account */\n      dup3\n        /* \"@openzeppelin/contracts-upgradeable/token/ERC20/ERC20Upgradeable.sol\":8987:9008  account != address(0) */\n      0xffffffffffffffffffffffffffffffffffffffff\n      and\n      sub\n        /* \"@openzeppelin/contracts-upgradeable/token/ERC20/ERC20Upgradeable.sol\":8979:9044  require(account != address(0), \"ERC20: mint to the zero address\") */\n      tag_203\n      jumpi\n      mload(0x40)\n      0x08c379a000000000000000000000000000000000000000000000000000000000\n      dup2\n      mstore\n      0x04\n      add\n      tag_204\n      swap1\n      tag_205\n      jump\t// in\n    tag_204:\n      mload(0x40)\n      dup1\n      swap2\n      sub\n      swap1\n      revert\n    tag_203:\n        /* \"@openzeppelin/contracts-upgradeable/token/ERC20/ERC20Upgradeable.sol\":9055:9104  _beforeTokenTransfer(address(0), account, amount) */\n      tag_206\n        /* \"@openzeppelin/contracts-upgradeable/token/ERC20/ERC20Upgradeable.sol\":9084:9085  0 */\n      0x00\n        /* \"@openzeppelin/contracts-upgradeable/token/ERC20/ERC20Upgradeable.sol\":9088:9095  account */\n      dup4\n        /* \"@openzeppelin/contracts-upgradeable/token/ERC20/ERC20Upgradeable.sol\":9097:9103  amount */\n      dup4\n        /* \"@openzeppelin/contracts-upgradeable/token/ERC20/ERC20Upgradeable.sol\":9055:9075  _beforeTokenTransfer */\n      tag_189\n        /* \"@openzeppelin/contracts-upgradeable/token/ERC20/ERC20Upgradeable.sol\":9055:9104  _beforeTokenTransfer(address(0), account, amount) */\n      jump\t// in\n    tag_206:\n        /* \"@openzeppelin/contracts-upgradeable/token/ERC20/ERC20Upgradeable.sol\":9131:9137  amount */\n      dup1\n        /* \"@openzeppelin/contracts-upgradeable/token/ERC20/ERC20Upgradeable.sol\":9115:9127  _totalSupply */\n      0x35\n      0x00\n        /* \"@openzeppelin/contracts-upgradeable/token/ERC20/ERC20Upgradeable.sol\":9115:9137  _totalSupply += amount */\n      dup3\n      dup3\n      sload\n      tag_207\n      swap2\n      swap1\n      tag_109\n      jump\t// in\n    tag_207:\n      swap3\n      pop\n      pop\n      dup2\n      swap1\n      sstore\n      pop\n        /* \"@openzeppelin/contracts-upgradeable/token/ERC20/ERC20Upgradeable.sol\":9305:9311  amount */\n      dup1\n        /* \"@openzeppelin/contracts-upgradeable/token/ERC20/ERC20Upgradeable.sol\":9283:9292  _balances */\n      0x33\n        /* \"@openzeppelin/contracts-upgradeable/token/ERC20/ERC20Upgradeable.sol\":9283:9301  _balances[account] */\n      0x00\n        /* \"@openzeppelin/contracts-upgradeable/token/ERC20/ERC20Upgradeable.sol\":9293:9300  account */\n      dup5\n        /* \"@openzeppelin/contracts-upgradeable/token/ERC20/ERC20Upgradeable.sol\":9283:9301  _balances[account] */\n      0xffffffffffffffffffffffffffffffffffffffff\n      and\n      0xffffffffffffffffffffffffffffffffffffffff\n      and\n      dup2\n      mstore\n      0x20\n      add\n      swap1\n      dup2\n      mstore\n      0x20\n      add\n      0x00\n      keccak256\n      0x00\n        /* \"@openzeppelin/contracts-upgradeable/token/ERC20/ERC20Upgradeable.sol\":9283:9311  _balances[account] += amount */\n      dup3\n      dup3\n      sload\n      add\n      swap3\n      pop\n      pop\n      dup2\n      swap1\n      sstore\n      pop\n        /* \"@openzeppelin/contracts-upgradeable/token/ERC20/ERC20Upgradeable.sol\":9357:9364  account */\n      dup2\n        /* \"@openzeppelin/contracts-upgradeable/token/ERC20/ERC20Upgradeable.sol\":9336:9373  Transfer(address(0), account, amount) */\n      0xffffffffffffffffffffffffffffffffffffffff\n      and\n        /* \"@openzeppelin/contracts-upgradeable/token/ERC20/ERC20Upgradeable.sol\":9353:9354  0 */\n      0x00\n        /* \"@openzeppelin/contracts-upgradeable/token/ERC20/ERC20Upgradeable.sol\":9336:9373  Transfer(address(0), account, amount) */\n      0xffffffffffffffffffffffffffffffffffffffff\n      and\n      0xddf252ad1be2c89b69c2b068fc378daa952ba7f163c4a11628f55a4df523b3ef\n        /* \"@openzeppelin/contracts-upgradeable/token/ERC20/ERC20Upgradeable.sol\":9366:9372  amount */\n      dup4\n        /* \"@openzeppelin/contracts-upgradeable/token/ERC20/ERC20Upgradeable.sol\":9336:9373  Transfer(address(0), account, amount) */\n      mload(0x40)\n      tag_208\n      swap2\n      swap1\n      tag_35\n      jump\t// in\n    tag_208:\n      mload(0x40)\n      dup1\n      swap2\n      sub\n      swap1\n      log3\n        /* \"@openzeppelin/contracts-upgradeable/token/ERC20/ERC20Upgradeable.sol\":9384:9432  _afterTokenTransfer(address(0), account, amount) */\n      tag_209\n        /* \"@openzeppelin/contracts-upgradeable/token/ERC20/ERC20Upgradeable.sol\":9412:9413  0 */\n      0x00\n        /* \"@openzeppelin/contracts-upgradeable/token/ERC20/ERC20Upgradeable.sol\":9416:9423  account */\n      dup4\n        /* \"@openzeppelin/contracts-upgradeable/token/ERC20/ERC20Upgradeable.sol\":9425:9431  amount */\n      dup4\n        /* \"@openzeppelin/contracts-upgradeable/token/ERC20/ERC20Upgradeable.sol\":9384:9403  _afterTokenTransfer */\n      tag_195\n        /* \"@openzeppelin/contracts-upgradeable/token/ERC20/ERC20Upgradeable.sol\":9384:9432  _afterTokenTransfer(address(0), account, amount) */\n      jump\t// in\n    tag_209:\n        /* \"@openzeppelin/contracts-upgradeable/token/ERC20/ERC20Upgradeable.sol\":8904:9439  function _mint(address account, uint256 amount) internal virtual {... */\n      pop\n      pop\n      jump\t// out\n        /* \"@openzeppelin/contracts-upgradeable/access/OwnableUpgradeable.sol\":2673:2860  function _transferOwnership(address newOwner) internal virtual {... */\n    tag_121:\n        /* \"@openzeppelin/contracts-upgradeable/access/OwnableUpgradeable.sol\":2746:2762  address oldOwner */\n      0x00\n        /* \"@openzeppelin/contracts-upgradeable/access/OwnableUpgradeable.sol\":2765:2771  _owner */\n      0x65\n      0x00\n      swap1\n      sload\n      swap1\n      0x0100\n      exp\n      swap1\n      div\n      0xffffffffffffffffffffffffffffffffffffffff\n      and\n        /* \"@openzeppelin/contracts-upgradeable/access/OwnableUpgradeable.sol\":2746:2771  address oldOwner = _owner */\n      swap1\n      pop\n        /* \"@openzeppelin/contracts-upgradeable/access/OwnableUpgradeable.sol\":2790:2798  newOwner */\n      dup2\n        /* \"@openzeppelin/contracts-upgradeable/access/OwnableUpgradeable.sol\":2781:2787  _owner */\n      0x65\n      0x00\n        /* \"@openzeppelin/contracts-upgradeable/access/OwnableUpgradeable.sol\":2781:2798  _owner = newOwner */\n      0x0100\n      exp\n      dup2\n      sload\n      dup2\n      0xffffffffffffffffffffffffffffffffffffffff\n      mul\n      not\n      and\n      swap1\n      dup4\n      0xffffffffffffffffffffffffffffffffffffffff\n      and\n      mul\n      or\n      swap1\n      sstore\n      pop\n        /* \"@openzeppelin/contracts-upgradeable/access/OwnableUpgradeable.sol\":2844:2852  newOwner */\n      dup2\n        /* \"@openzeppelin/contracts-upgradeable/access/OwnableUpgradeable.sol\":2813:2853  OwnershipTransferred(oldOwner, newOwner) */\n      0xffffffffffffffffffffffffffffffffffffffff\n      and\n        /* \"@openzeppelin/contracts-upgradeable/access/OwnableUpgradeable.sol\":2834:2842  oldOwner */\n      dup2\n        /* \"@openzeppelin/contracts-upgradeable/access/OwnableUpgradeable.sol\":2813:2853  OwnershipTransferred(oldOwner, newOwner) */\n      0xffffffffffffffffffffffffffffffffffffffff\n      and\n      0x8be0079c531659141344cd1fd0a4f28419497f9722a3daafe3b4186f6b6457e0\n      mload(0x40)\n      mload(0x40)\n      dup1\n      swap2\n      sub\n      swap1\n      log3\n        /* \"@openzeppelin/contracts-upgradeable/access/OwnableUpgradeable.sol\":2736:2860  {... */\n      pop\n        /* \"@openzeppelin/contracts-upgradeable/access/OwnableUpgradeable.sol\":2673:2860  function _transferOwnership(address newOwner) internal virtual {... */\n      pop\n      jump\t// out\n        /* \"@openzeppelin/contracts-upgradeable/utils/AddressUpgradeable.sol\":1186:1506  function isContract(address account) internal view returns (bool) {... */\n    tag_126:\n        /* \"@openzeppelin/contracts-upgradeable/utils/AddressUpgradeable.sol\":1246:1250  bool */\n      0x00\n        /* \"@openzeppelin/contracts-upgradeable/utils/AddressUpgradeable.sol\":1498:1499  0 */\n      dup1\n        /* \"@openzeppelin/contracts-upgradeable/utils/AddressUpgradeable.sol\":1476:1483  account */\n      dup3\n        /* \"@openzeppelin/contracts-upgradeable/utils/AddressUpgradeable.sol\":1476:1495  account.code.length */\n      0xffffffffffffffffffffffffffffffffffffffff\n      and\n      extcodesize\n        /* \"@openzeppelin/contracts-upgradeable/utils/AddressUpgradeable.sol\":1476:1499  account.code.length > 0 */\n      gt\n        /* \"@openzeppelin/contracts-upgradeable/utils/AddressUpgradeable.sol\":1469:1499  return account.code.length > 0 */\n      swap1\n      pop\n        /* \"@openzeppelin/contracts-upgradeable/utils/AddressUpgradeable.sol\":1186:1506  function isContract(address account) internal view returns (bool) {... */\n      swap2\n      swap1\n      pop\n      jump\t// out\n        /* \"@openzeppelin/contracts-upgradeable/token/ERC20/ERC20Upgradeable.sol\":2114:2261  function __ERC20_init(string memory name_, string memory symbol_) internal onlyInitializing {... */\n    tag_134:\n        /* \"@openzeppelin/contracts-upgradeable/proxy/utils/Initializable.sol\":5363:5376  _initializing */\n      0x00\n      0x01\n      swap1\n      sload\n      swap1\n      0x0100\n      exp\n      swap1\n      div\n      0xff\n      and\n        /* \"@openzeppelin/contracts-upgradeable/proxy/utils/Initializable.sol\":5355:5424  require(_initializing, \"Initializable: contract is not initializing\") */\n      tag_213\n      jumpi\n      mload(0x40)\n      0x08c379a000000000000000000000000000000000000000000000000000000000\n      dup2\n      mstore\n      0x04\n      add\n      tag_214\n      swap1\n      tag_215\n      jump\t// in\n    tag_214:\n      mload(0x40)\n      dup1\n      swap2\n      sub\n      swap1\n      revert\n    tag_213:\n        /* \"@openzeppelin/contracts-upgradeable/token/ERC20/ERC20Upgradeable.sol\":2216:2254  __ERC20_init_unchained(name_, symbol_) */\n      tag_217\n        /* \"@openzeppelin/contracts-upgradeable/token/ERC20/ERC20Upgradeable.sol\":2239:2244  name_ */\n      dup3\n        /* \"@openzeppelin/contracts-upgradeable/token/ERC20/ERC20Upgradeable.sol\":2246:2253  symbol_ */\n      dup3\n        /* \"@openzeppelin/contracts-upgradeable/token/ERC20/ERC20Upgradeable.sol\":2216:2238  __ERC20_init_unchained */\n      tag_218\n        /* \"@openzeppelin/contracts-upgradeable/token/ERC20/ERC20Upgradeable.sol\":2216:2254  __ERC20_init_unchained(name_, symbol_) */\n      jump\t// in\n    tag_217:\n        /* \"@openzeppelin/contracts-upgradeable/token/ERC20/ERC20Upgradeable.sol\":2114:2261  function __ERC20_init(string memory name_, string memory symbol_) internal onlyInitializing {... */\n      pop\n      pop\n      jump\t// out\n        /* \"@openzeppelin/contracts-upgradeable/access/OwnableUpgradeable.sol\":1003:1098  function __Ownable_init() internal onlyInitializing {... */\n    tag_136:\n        /* \"@openzeppelin/contracts-upgradeable/proxy/utils/Initializable.sol\":5363:5376  _initializing */\n      0x00\n      0x01\n      swap1\n      sload\n      swap1\n      0x0100\n      exp\n      swap1\n      div\n      0xff\n      and\n        /* \"@openzeppelin/contracts-upgradeable/proxy/utils/Initializable.sol\":5355:5424  require(_initializing, \"Initializable: contract is not initializing\") */\n      tag_220\n      jumpi\n      mload(0x40)\n      0x08c379a000000000000000000000000000000000000000000000000000000000\n      dup2\n      mstore\n      0x04\n      add\n      tag_221\n      swap1\n      tag_215\n      jump\t// in\n    tag_221:\n      mload(0x40)\n      dup1\n      swap2\n      sub\n      swap1\n      revert\n    tag_220:\n        /* \"@openzeppelin/contracts-upgradeable/access/OwnableUpgradeable.sol\":1065:1091  __Ownable_init_unchained() */\n      tag_223\n        /* \"@openzeppelin/contracts-upgradeable/access/OwnableUpgradeable.sol\":1065:1089  __Ownable_init_unchained */\n      tag_224\n        /* \"@openzeppelin/contracts-upgradeable/access/OwnableUpgradeable.sol\":1065:1091  __Ownable_init_unchained() */\n      jump\t// in\n    tag_223:\n        /* \"@openzeppelin/contracts-upgradeable/access/OwnableUpgradeable.sol\":1003:1098  function __Ownable_init() internal onlyInitializing {... */\n      jump\t// out\n        /* \"@openzeppelin/contracts-upgradeable/token/ERC20/ERC20Upgradeable.sol\":12517:12638  function _beforeTokenTransfer(... */\n    tag_189:\n      pop\n      pop\n      pop\n      jump\t// out\n        /* \"@openzeppelin/contracts-upgradeable/token/ERC20/ERC20Upgradeable.sol\":13226:13346  function _afterTokenTransfer(... */\n    tag_195:\n      pop\n      pop\n      pop\n      jump\t// out\n        /* \"@openzeppelin/contracts-upgradeable/token/ERC20/ERC20Upgradeable.sol\":2267:2426  function __ERC20_init_unchained(string memory name_, string memory symbol_) internal onlyInitializing {... */\n    tag_218:\n        /* \"@openzeppelin/contracts-upgradeable/proxy/utils/Initializable.sol\":5363:5376  _initializing */\n      0x00\n      0x01\n      swap1\n      sload\n      swap1\n      0x0100\n      exp\n      swap1\n      div\n      0xff\n      and\n        /* \"@openzeppelin/contracts-upgradeable/proxy/utils/Initializable.sol\":5355:5424  require(_initializing, \"Initializable: contract is not initializing\") */\n      tag_228\n      jumpi\n      mload(0x40)\n      0x08c379a000000000000000000000000000000000000000000000000000000000\n      dup2\n      mstore\n      0x04\n      add\n      tag_229\n      swap1\n      tag_215\n      jump\t// in\n    tag_229:\n      mload(0x40)\n      dup1\n      swap2\n      sub\n      swap1\n      revert\n    tag_228:\n        /* \"@openzeppelin/contracts-upgradeable/token/ERC20/ERC20Upgradeable.sol\":2387:2392  name_ */\n      dup2\n        /* \"@openzeppelin/contracts-upgradeable/token/ERC20/ERC20Upgradeable.sol\":2379:2384  _name */\n      0x36\n        /* \"@openzeppelin/contracts-upgradeable/token/ERC20/ERC20Upgradeable.sol\":2379:2392  _name = name_ */\n      swap1\n      dup2\n      tag_231\n      swap2\n      swap1\n      tag_232\n      jump\t// in\n    tag_231:\n      pop\n        /* \"@openzeppelin/contracts-upgradeable/token/ERC20/ERC20Upgradeable.sol\":2412:2419  symbol_ */\n      dup1\n        /* \"@openzeppelin/contracts-upgradeable/token/ERC20/ERC20Upgradeable.sol\":2402:2409  _symbol */\n      0x37\n        /* \"@openzeppelin/contracts-upgradeable/token/ERC20/ERC20Upgradeable.sol\":2402:2419  _symbol = symbol_ */\n      swap1\n      dup2\n      tag_233\n      swap2\n      swap1\n      tag_232\n      jump\t// in\n    tag_233:\n      pop\n        /* \"@openzeppelin/contracts-upgradeable/token/ERC20/ERC20Upgradeable.sol\":2267:2426  function __ERC20_init_unchained(string memory name_, string memory symbol_) internal onlyInitializing {... */\n      pop\n      pop\n      jump\t// out\n        /* \"@openzeppelin/contracts-upgradeable/access/OwnableUpgradeable.sol\":1104:1215  function __Ownable_init_unchained() internal onlyInitializing {... */\n    tag_224:\n        /* \"@openzeppelin/contracts-upgradeable/proxy/utils/Initializable.sol\":5363:5376  _initializing */\n      0x00\n      0x01\n      swap1\n      sload\n      swap1\n      0x0100\n      exp\n      swap1\n      div\n      0xff\n      and\n        /* \"@openzeppelin/contracts-upgradeable/proxy/utils/Initializable.sol\":5355:5424  require(_initializing, \"Initializable: contract is not initializing\") */\n      tag_235\n      jumpi\n      mload(0x40)\n      0x08c379a000000000000000000000000000000000000000000000000000000000\n      dup2\n      mstore\n      0x04\n      add\n      tag_236\n      swap1\n      tag_215\n      jump\t// in\n    tag_236:\n      mload(0x40)\n      dup1\n      swap2\n      sub\n      swap1\n      revert\n    tag_235:\n        /* \"@openzeppelin/contracts-upgradeable/access/OwnableUpgradeable.sol\":1176:1208  _transferOwnership(_msgSender()) */\n      tag_238\n        /* \"@openzeppelin/contracts-upgradeable/access/OwnableUpgradeable.sol\":1195:1207  _msgSender() */\n      tag_239\n        /* \"@openzeppelin/contracts-upgradeable/access/OwnableUpgradeable.sol\":1195:1205  _msgSender */\n      tag_93\n        /* \"@openzeppelin/contracts-upgradeable/access/OwnableUpgradeable.sol\":1195:1207  _msgSender() */\n      jump\t// in\n    tag_239:\n        /* \"@openzeppelin/contracts-upgradeable/access/OwnableUpgradeable.sol\":1176:1194  _transferOwnership */\n      tag_121\n        /* \"@openzeppelin/contracts-upgradeable/access/OwnableUpgradeable.sol\":1176:1208  _transferOwnership(_msgSender()) */\n      jump\t// in\n    tag_238:\n        /* \"@openzeppelin/contracts-upgradeable/access/OwnableUpgradeable.sol\":1104:1215  function __Ownable_init_unchained() internal onlyInitializing {... */\n      jump\t// out\n        /* \"#utility.yul\":7:106   */\n    tag_240:\n        /* \"#utility.yul\":59:65   */\n      0x00\n        /* \"#utility.yul\":93:98   */\n      dup2\n        /* \"#utility.yul\":87:99   */\n      mload\n        /* \"#utility.yul\":77:99   */\n      swap1\n      pop\n        /* \"#utility.yul\":7:106   */\n      swap2\n      swap1\n      pop\n      jump\t// out\n        /* \"#utility.yul\":112:281   */\n    tag_241:\n        /* \"#utility.yul\":196:207   */\n      0x00\n        /* \"#utility.yul\":230:236   */\n      dup3\n        /* \"#utility.yul\":225:228   */\n      dup3\n        /* \"#utility.yul\":218:237   */\n      mstore\n        /* \"#utility.yul\":270:274   */\n      0x20\n        /* \"#utility.yul\":265:268   */\n      dup3\n        /* \"#utility.yul\":261:275   */\n      add\n        /* \"#utility.yul\":246:275   */\n      swap1\n      pop\n        /* \"#utility.yul\":112:281   */\n      swap3\n      swap2\n      pop\n      pop\n      jump\t// out\n        /* \"#utility.yul\":287:533   */\n    tag_242:\n        /* \"#utility.yul\":368:369   */\n      0x00\n        /* \"#utility.yul\":378:491   */\n    tag_310:\n        /* \"#utility.yul\":392:398   */\n      dup4\n        /* \"#utility.yul\":389:390   */\n      dup2\n        /* \"#utility.yul\":386:399   */\n      lt\n        /* \"#utility.yul\":378:491   */\n      iszero\n      tag_312\n      jumpi\n        /* \"#utility.yul\":477:478   */\n      dup1\n        /* \"#utility.yul\":472:475   */\n      dup3\n        /* \"#utility.yul\":468:479   */\n      add\n        /* \"#utility.yul\":462:480   */\n      mload\n        /* \"#utility.yul\":458:459   */\n      dup2\n        /* \"#utility.yul\":453:456   */\n      dup5\n        /* \"#utility.yul\":449:460   */\n      add\n        /* \"#utility.yul\":442:481   */\n      mstore\n        /* \"#utility.yul\":414:416   */\n      0x20\n        /* \"#utility.yul\":411:412   */\n      dup2\n        /* \"#utility.yul\":407:417   */\n      add\n        /* \"#utility.yul\":402:417   */\n      swap1\n      pop\n        /* \"#utility.yul\":378:491   */\n      jump(tag_310)\n    tag_312:\n        /* \"#utility.yul\":525:526   */\n      0x00\n        /* \"#utility.yul\":516:522   */\n      dup5\n        /* \"#utility.yul\":511:514   */\n      dup5\n        /* \"#utility.yul\":507:523   */\n      add\n        /* \"#utility.yul\":500:527   */\n      mstore\n        /* \"#utility.yul\":349:533   */\n      pop\n        /* \"#utility.yul\":287:533   */\n      pop\n      pop\n      pop\n      jump\t// out\n        /* \"#utility.yul\":539:641   */\n    tag_243:\n        /* \"#utility.yul\":580:586   */\n      0x00\n        /* \"#utility.yul\":631:633   */\n      0x1f\n        /* \"#utility.yul\":627:634   */\n      not\n        /* \"#utility.yul\":622:624   */\n      0x1f\n        /* \"#utility.yul\":615:620   */\n      dup4\n        /* \"#utility.yul\":611:625   */\n      add\n        /* \"#utility.yul\":607:635   */\n      and\n        /* \"#utility.yul\":597:635   */\n      swap1\n      pop\n        /* \"#utility.yul\":539:641   */\n      swap2\n      swap1\n      pop\n      jump\t// out\n        /* \"#utility.yul\":647:1024   */\n    tag_244:\n        /* \"#utility.yul\":735:738   */\n      0x00\n        /* \"#utility.yul\":763:802   */\n      tag_315\n        /* \"#utility.yul\":796:801   */\n      dup3\n        /* \"#utility.yul\":763:802   */\n      tag_240\n      jump\t// in\n    tag_315:\n        /* \"#utility.yul\":818:889   */\n      tag_316\n        /* \"#utility.yul\":882:888   */\n      dup2\n        /* \"#utility.yul\":877:880   */\n      dup6\n        /* \"#utility.yul\":818:889   */\n      tag_241\n      jump\t// in\n    tag_316:\n        /* \"#utility.yul\":811:889   */\n      swap4\n      pop\n        /* \"#utility.yul\":898:963   */\n      tag_317\n        /* \"#utility.yul\":956:962   */\n      dup2\n        /* \"#utility.yul\":951:954   */\n      dup6\n        /* \"#utility.yul\":944:948   */\n      0x20\n        /* \"#utility.yul\":937:942   */\n      dup7\n        /* \"#utility.yul\":933:949   */\n      add\n        /* \"#utility.yul\":898:963   */\n      tag_242\n      jump\t// in\n    tag_317:\n        /* \"#utility.yul\":988:1017   */\n      tag_318\n        /* \"#utility.yul\":1010:1016   */\n      dup2\n        /* \"#utility.yul\":988:1017   */\n      tag_243\n      jump\t// in\n    tag_318:\n        /* \"#utility.yul\":983:986   */\n      dup5\n        /* \"#utility.yul\":979:1018   */\n      add\n        /* \"#utility.yul\":972:1018   */\n      swap2\n      pop\n        /* \"#utility.yul\":739:1024   */\n      pop\n        /* \"#utility.yul\":647:1024   */\n      swap3\n      swap2\n      pop\n      pop\n      jump\t// out\n        /* \"#utility.yul\":1030:1343   */\n    tag_25:\n        /* \"#utility.yul\":1143:1147   */\n      0x00\n        /* \"#utility.yul\":1181:1183   */\n      0x20\n        /* \"#utility.yul\":1170:1179   */\n      dup3\n        /* \"#utility.yul\":1166:1184   */\n      add\n        /* \"#utility.yul\":1158:1184   */\n      swap1\n      pop\n        /* \"#utility.yul\":1230:1239   */\n      dup2\n        /* \"#utility.yul\":1224:1228   */\n      dup2\n        /* \"#utility.yul\":1220:1240   */\n      sub\n        /* \"#utility.yul\":1216:1217   */\n      0x00\n        /* \"#utility.yul\":1205:1214   */\n      dup4\n        /* \"#utility.yul\":1201:1218   */\n      add\n        /* \"#utility.yul\":1194:1241   */\n      mstore\n        /* \"#utility.yul\":1258:1336   */\n      tag_320\n        /* \"#utility.yul\":1331:1335   */\n      dup2\n        /* \"#utility.yul\":1322:1328   */\n      dup5\n        /* \"#utility.yul\":1258:1336   */\n      tag_244\n      jump\t// in\n    tag_320:\n        /* \"#utility.yul\":1250:1336   */\n      swap1\n      pop\n        /* \"#utility.yul\":1030:1343   */\n      swap3\n      swap2\n      pop\n      pop\n      jump\t// out\n        /* \"#utility.yul\":1430:1547   */\n    tag_246:\n        /* \"#utility.yul\":1539:1540   */\n      0x00\n        /* \"#utility.yul\":1536:1537   */\n      dup1\n        /* \"#utility.yul\":1529:1541   */\n      revert\n        /* \"#utility.yul\":1676:1802   */\n    tag_248:\n        /* \"#utility.yul\":1713:1720   */\n      0x00\n        /* \"#utility.yul\":1753:1795   */\n      0xffffffffffffffffffffffffffffffffffffffff\n        /* \"#utility.yul\":1746:1751   */\n      dup3\n        /* \"#utility.yul\":1742:1796   */\n      and\n        /* \"#utility.yul\":1731:1796   */\n      swap1\n      pop\n        /* \"#utility.yul\":1676:1802   */\n      swap2\n      swap1\n      pop\n      jump\t// out\n        /* \"#utility.yul\":1808:1904   */\n    tag_249:\n        /* \"#utility.yul\":1845:1852   */\n      0x00\n        /* \"#utility.yul\":1874:1898   */\n      tag_326\n        /* \"#utility.yul\":1892:1897   */\n      dup3\n        /* \"#utility.yul\":1874:1898   */\n      tag_248\n      jump\t// in\n    tag_326:\n        /* \"#utility.yul\":1863:1898   */\n      swap1\n      pop\n        /* \"#utility.yul\":1808:1904   */\n      swap2\n      swap1\n      pop\n      jump\t// out\n        /* \"#utility.yul\":1910:2032   */\n    tag_250:\n        /* \"#utility.yul\":1983:2007   */\n      tag_328\n        /* \"#utility.yul\":2001:2006   */\n      dup2\n        /* \"#utility.yul\":1983:2007   */\n      tag_249\n      jump\t// in\n    tag_328:\n        /* \"#utility.yul\":1976:1981   */\n      dup2\n        /* \"#utility.yul\":1973:2008   */\n      eq\n        /* \"#utility.yul\":1963:2026   */\n      tag_329\n      jumpi\n        /* \"#utility.yul\":2022:2023   */\n      0x00\n        /* \"#utility.yul\":2019:2020   */\n      dup1\n        /* \"#utility.yul\":2012:2024   */\n      revert\n        /* \"#utility.yul\":1963:2026   */\n    tag_329:\n        /* \"#utility.yul\":1910:2032   */\n      pop\n      jump\t// out\n        /* \"#utility.yul\":2038:2177   */\n    tag_251:\n        /* \"#utility.yul\":2084:2089   */\n      0x00\n        /* \"#utility.yul\":2122:2128   */\n      dup2\n        /* \"#utility.yul\":2109:2129   */\n      calldataload\n        /* \"#utility.yul\":2100:2129   */\n      swap1\n      pop\n        /* \"#utility.yul\":2138:2171   */\n      tag_331\n        /* \"#utility.yul\":2165:2170   */\n      dup2\n        /* \"#utility.yul\":2138:2171   */\n      tag_250\n      jump\t// in\n    tag_331:\n        /* \"#utility.yul\":2038:2177   */\n      swap3\n      swap2\n      pop\n      pop\n      jump\t// out\n        /* \"#utility.yul\":2183:2260   */\n    tag_252:\n        /* \"#utility.yul\":2220:2227   */\n      0x00\n        /* \"#utility.yul\":2249:2254   */\n      dup2\n        /* \"#utility.yul\":2238:2254   */\n      swap1\n      pop\n        /* \"#utility.yul\":2183:2260   */\n      swap2\n      swap1\n      pop\n      jump\t// out\n        /* \"#utility.yul\":2266:2388   */\n    tag_253:\n        /* \"#utility.yul\":2339:2363   */\n      tag_334\n        /* \"#utility.yul\":2357:2362   */\n      dup2\n        /* \"#utility.yul\":2339:2363   */\n      tag_252\n      jump\t// in\n    tag_334:\n        /* \"#utility.yul\":2332:2337   */\n      dup2\n        /* \"#utility.yul\":2329:2364   */\n      eq\n        /* \"#utility.yul\":2319:2382   */\n      tag_335\n      jumpi\n        /* \"#utility.yul\":2378:2379   */\n      0x00\n        /* \"#utility.yul\":2375:2376   */\n      dup1\n        /* \"#utility.yul\":2368:2380   */\n      revert\n        /* \"#utility.yul\":2319:2382   */\n    tag_335:\n        /* \"#utility.yul\":2266:2388   */\n      pop\n      jump\t// out\n        /* \"#utility.yul\":2394:2533   */\n    tag_254:\n        /* \"#utility.yul\":2440:2445   */\n      0x00\n        /* \"#utility.yul\":2478:2484   */\n      dup2\n        /* \"#utility.yul\":2465:2485   */\n      calldataload\n        /* \"#utility.yul\":2456:2485   */\n      swap1\n      pop\n        /* \"#utility.yul\":2494:2527   */\n      tag_337\n        /* \"#utility.yul\":2521:2526   */\n      dup2\n        /* \"#utility.yul\":2494:2527   */\n      tag_253\n      jump\t// in\n    tag_337:\n        /* \"#utility.yul\":2394:2533   */\n      swap3\n      swap2\n      pop\n      pop\n      jump\t// out\n        /* \"#utility.yul\":2539:3013   */\n    tag_28:\n        /* \"#utility.yul\":2607:2613   */\n      0x00\n        /* \"#utility.yul\":2615:2621   */\n      dup1\n        /* \"#utility.yul\":2664:2666   */\n      0x40\n        /* \"#utility.yul\":2652:2661   */\n      dup4\n        /* \"#utility.yul\":2643:2650   */\n      dup6\n        /* \"#utility.yul\":2639:2662   */\n      sub\n        /* \"#utility.yul\":2635:2667   */\n      slt\n        /* \"#utility.yul\":2632:2751   */\n      iszero\n      tag_339\n      jumpi\n        /* \"#utility.yul\":2670:2749   */\n      tag_340\n      tag_246\n      jump\t// in\n    tag_340:\n        /* \"#utility.yul\":2632:2751   */\n    tag_339:\n        /* \"#utility.yul\":2790:2791   */\n      0x00\n        /* \"#utility.yul\":2815:2868   */\n      tag_341\n        /* \"#utility.yul\":2860:2867   */\n      dup6\n        /* \"#utility.yul\":2851:2857   */\n      dup3\n        /* \"#utility.yul\":2840:2849   */\n      dup7\n        /* \"#utility.yul\":2836:2858   */\n      add\n        /* \"#utility.yul\":2815:2868   */\n      tag_251\n      jump\t// in\n    tag_341:\n        /* \"#utility.yul\":2805:2868   */\n      swap3\n      pop\n        /* \"#utility.yul\":2761:2878   */\n      pop\n        /* \"#utility.yul\":2917:2919   */\n      0x20\n        /* \"#utility.yul\":2943:2996   */\n      tag_342\n        /* \"#utility.yul\":2988:2995   */\n      dup6\n        /* \"#utility.yul\":2979:2985   */\n      dup3\n        /* \"#utility.yul\":2968:2977   */\n      dup7\n        /* \"#utility.yul\":2964:2986   */\n      add\n        /* \"#utility.yul\":2943:2996   */\n      tag_254\n      jump\t// in\n    tag_342:\n        /* \"#utility.yul\":2933:2996   */\n      swap2\n      pop\n        /* \"#utility.yul\":2888:3006   */\n      pop\n        /* \"#utility.yul\":2539:3013   */\n      swap3\n      pop\n      swap3\n      swap1\n      pop\n      jump\t// out\n        /* \"#utility.yul\":3019:3109   */\n    tag_255:\n        /* \"#utility.yul\":3053:3060   */\n      0x00\n        /* \"#utility.yul\":3096:3101   */\n      dup2\n        /* \"#utility.yul\":3089:3102   */\n      iszero\n        /* \"#utility.yul\":3082:3103   */\n      iszero\n        /* \"#utility.yul\":3071:3103   */\n      swap1\n      pop\n        /* \"#utility.yul\":3019:3109   */\n      swap2\n      swap1\n      pop\n      jump\t// out\n        /* \"#utility.yul\":3115:3224   */\n    tag_256:\n        /* \"#utility.yul\":3196:3217   */\n      tag_345\n        /* \"#utility.yul\":3211:3216   */\n      dup2\n        /* \"#utility.yul\":3196:3217   */\n      tag_255\n      jump\t// in\n    tag_345:\n        /* \"#utility.yul\":3191:3194   */\n      dup3\n        /* \"#utility.yul\":3184:3218   */\n      mstore\n        /* \"#utility.yul\":3115:3224   */\n      pop\n      pop\n      jump\t// out\n        /* \"#utility.yul\":3230:3440   */\n    tag_31:\n        /* \"#utility.yul\":3317:3321   */\n      0x00\n        /* \"#utility.yul\":3355:3357   */\n      0x20\n        /* \"#utility.yul\":3344:3353   */\n      dup3\n        /* \"#utility.yul\":3340:3358   */\n      add\n        /* \"#utility.yul\":3332:3358   */\n      swap1\n      pop\n        /* \"#utility.yul\":3368:3433   */\n      tag_347\n        /* \"#utility.yul\":3430:3431   */\n      0x00\n        /* \"#utility.yul\":3419:3428   */\n      dup4\n        /* \"#utility.yul\":3415:3432   */\n      add\n        /* \"#utility.yul\":3406:3412   */\n      dup5\n        /* \"#utility.yul\":3368:3433   */\n      tag_256\n      jump\t// in\n    tag_347:\n        /* \"#utility.yul\":3230:3440   */\n      swap3\n      swap2\n      pop\n      pop\n      jump\t// out\n        /* \"#utility.yul\":3446:3564   */\n    tag_257:\n        /* \"#utility.yul\":3533:3557   */\n      tag_349\n        /* \"#utility.yul\":3551:3556   */\n      dup2\n        /* \"#utility.yul\":3533:3557   */\n      tag_252\n      jump\t// in\n    tag_349:\n        /* \"#utility.yul\":3528:3531   */\n      dup3\n        /* \"#utility.yul\":3521:3558   */\n      mstore\n        /* \"#utility.yul\":3446:3564   */\n      pop\n      pop\n      jump\t// out\n        /* \"#utility.yul\":3570:3792   */\n    tag_35:\n        /* \"#utility.yul\":3663:3667   */\n      0x00\n        /* \"#utility.yul\":3701:3703   */\n      0x20\n        /* \"#utility.yul\":3690:3699   */\n      dup3\n        /* \"#utility.yul\":3686:3704   */\n      add\n        /* \"#utility.yul\":3678:3704   */\n      swap1\n      pop\n        /* \"#utility.yul\":3714:3785   */\n      tag_351\n        /* \"#utility.yul\":3782:3783   */\n      0x00\n        /* \"#utility.yul\":3771:3780   */\n      dup4\n        /* \"#utility.yul\":3767:3784   */\n      add\n        /* \"#utility.yul\":3758:3764   */\n      dup5\n        /* \"#utility.yul\":3714:3785   */\n      tag_257\n      jump\t// in\n    tag_351:\n        /* \"#utility.yul\":3570:3792   */\n      swap3\n      swap2\n      pop\n      pop\n      jump\t// out\n        /* \"#utility.yul\":3798:4417   */\n    tag_38:\n        /* \"#utility.yul\":3875:3881   */\n      0x00\n        /* \"#utility.yul\":3883:3889   */\n      dup1\n        /* \"#utility.yul\":3891:3897   */\n      0x00\n        /* \"#utility.yul\":3940:3942   */\n      0x60\n        /* \"#utility.yul\":3928:3937   */\n      dup5\n        /* \"#utility.yul\":3919:3926   */\n      dup7\n        /* \"#utility.yul\":3915:3938   */\n      sub\n        /* \"#utility.yul\":3911:3943   */\n      slt\n        /* \"#utility.yul\":3908:4027   */\n      iszero\n      tag_353\n      jumpi\n        /* \"#utility.yul\":3946:4025   */\n      tag_354\n      tag_246\n      jump\t// in\n    tag_354:\n        /* \"#utility.yul\":3908:4027   */\n    tag_353:\n        /* \"#utility.yul\":4066:4067   */\n      0x00\n        /* \"#utility.yul\":4091:4144   */\n      tag_355\n        /* \"#utility.yul\":4136:4143   */\n      dup7\n        /* \"#utility.yul\":4127:4133   */\n      dup3\n        /* \"#utility.yul\":4116:4125   */\n      dup8\n        /* \"#utility.yul\":4112:4134   */\n      add\n        /* \"#utility.yul\":4091:4144   */\n      tag_251\n      jump\t// in\n    tag_355:\n        /* \"#utility.yul\":4081:4144   */\n      swap4\n      pop\n        /* \"#utility.yul\":4037:4154   */\n      pop\n        /* \"#utility.yul\":4193:4195   */\n      0x20\n        /* \"#utility.yul\":4219:4272   */\n      tag_356\n        /* \"#utility.yul\":4264:4271   */\n      dup7\n        /* \"#utility.yul\":4255:4261   */\n      dup3\n        /* \"#utility.yul\":4244:4253   */\n      dup8\n        /* \"#utility.yul\":4240:4262   */\n      add\n        /* \"#utility.yul\":4219:4272   */\n      tag_251\n      jump\t// in\n    tag_356:\n        /* \"#utility.yul\":4209:4272   */\n      swap3\n      pop\n        /* \"#utility.yul\":4164:4282   */\n      pop\n        /* \"#utility.yul\":4321:4323   */\n      0x40\n        /* \"#utility.yul\":4347:4400   */\n      tag_357\n        /* \"#utility.yul\":4392:4399   */\n      dup7\n        /* \"#utility.yul\":4383:4389   */\n      dup3\n        /* \"#utility.yul\":4372:4381   */\n      dup8\n        /* \"#utility.yul\":4368:4390   */\n      add\n        /* \"#utility.yul\":4347:4400   */\n      tag_254\n      jump\t// in\n    tag_357:\n        /* \"#utility.yul\":4337:4400   */\n      swap2\n      pop\n        /* \"#utility.yul\":4292:4410   */\n      pop\n        /* \"#utility.yul\":3798:4417   */\n      swap3\n      pop\n      swap3\n      pop\n      swap3\n      jump\t// out\n        /* \"#utility.yul\":4423:4509   */\n    tag_258:\n        /* \"#utility.yul\":4458:4465   */\n      0x00\n        /* \"#utility.yul\":4498:4502   */\n      0xff\n        /* \"#utility.yul\":4491:4496   */\n      dup3\n        /* \"#utility.yul\":4487:4503   */\n      and\n        /* \"#utility.yul\":4476:4503   */\n      swap1\n      pop\n        /* \"#utility.yul\":4423:4509   */\n      swap2\n      swap1\n      pop\n      jump\t// out\n        /* \"#utility.yul\":4515:4627   */\n    tag_259:\n        /* \"#utility.yul\":4598:4620   */\n      tag_360\n        /* \"#utility.yul\":4614:4619   */\n      dup2\n        /* \"#utility.yul\":4598:4620   */\n      tag_258\n      jump\t// in\n    tag_360:\n        /* \"#utility.yul\":4593:4596   */\n      dup3\n        /* \"#utility.yul\":4586:4621   */\n      mstore\n        /* \"#utility.yul\":4515:4627   */\n      pop\n      pop\n      jump\t// out\n        /* \"#utility.yul\":4633:4847   */\n    tag_44:\n        /* \"#utility.yul\":4722:4726   */\n      0x00\n        /* \"#utility.yul\":4760:4762   */\n      0x20\n        /* \"#utility.yul\":4749:4758   */\n      dup3\n        /* \"#utility.yul\":4745:4763   */\n      add\n        /* \"#utility.yul\":4737:4763   */\n      swap1\n      pop\n        /* \"#utility.yul\":4773:4840   */\n      tag_362\n        /* \"#utility.yul\":4837:4838   */\n      0x00\n        /* \"#utility.yul\":4826:4835   */\n      dup4\n        /* \"#utility.yul\":4822:4839   */\n      add\n        /* \"#utility.yul\":4813:4819   */\n      dup5\n        /* \"#utility.yul\":4773:4840   */\n      tag_259\n      jump\t// in\n    tag_362:\n        /* \"#utility.yul\":4633:4847   */\n      swap3\n      swap2\n      pop\n      pop\n      jump\t// out\n        /* \"#utility.yul\":4853:5182   */\n    tag_54:\n        /* \"#utility.yul\":4912:4918   */\n      0x00\n        /* \"#utility.yul\":4961:4963   */\n      0x20\n        /* \"#utility.yul\":4949:4958   */\n      dup3\n        /* \"#utility.yul\":4940:4947   */\n      dup5\n        /* \"#utility.yul\":4936:4959   */\n      sub\n        /* \"#utility.yul\":4932:4964   */\n      slt\n        /* \"#utility.yul\":4929:5048   */\n      iszero\n      tag_364\n      jumpi\n        /* \"#utility.yul\":4967:5046   */\n      tag_365\n      tag_246\n      jump\t// in\n    tag_365:\n        /* \"#utility.yul\":4929:5048   */\n    tag_364:\n        /* \"#utility.yul\":5087:5088   */\n      0x00\n        /* \"#utility.yul\":5112:5165   */\n      tag_366\n        /* \"#utility.yul\":5157:5164   */\n      dup5\n        /* \"#utility.yul\":5148:5154   */\n      dup3\n        /* \"#utility.yul\":5137:5146   */\n      dup6\n        /* \"#utility.yul\":5133:5155   */\n      add\n        /* \"#utility.yul\":5112:5165   */\n      tag_251\n      jump\t// in\n    tag_366:\n        /* \"#utility.yul\":5102:5165   */\n      swap2\n      pop\n        /* \"#utility.yul\":5058:5175   */\n      pop\n        /* \"#utility.yul\":4853:5182   */\n      swap3\n      swap2\n      pop\n      pop\n      jump\t// out\n        /* \"#utility.yul\":5188:5306   */\n    tag_260:\n        /* \"#utility.yul\":5275:5299   */\n      tag_368\n        /* \"#utility.yul\":5293:5298   */\n      dup2\n        /* \"#utility.yul\":5275:5299   */\n      tag_249\n      jump\t// in\n    tag_368:\n        /* \"#utility.yul\":5270:5273   */\n      dup3\n        /* \"#utility.yul\":5263:5300   */\n      mstore\n        /* \"#utility.yul\":5188:5306   */\n      pop\n      pop\n      jump\t// out\n        /* \"#utility.yul\":5312:5534   */\n    tag_64:\n        /* \"#utility.yul\":5405:5409   */\n      0x00\n        /* \"#utility.yul\":5443:5445   */\n      0x20\n        /* \"#utility.yul\":5432:5441   */\n      dup3\n        /* \"#utility.yul\":5428:5446   */\n      add\n        /* \"#utility.yul\":5420:5446   */\n      swap1\n      pop\n        /* \"#utility.yul\":5456:5527   */\n      tag_370\n        /* \"#utility.yul\":5524:5525   */\n      0x00\n        /* \"#utility.yul\":5513:5522   */\n      dup4\n        /* \"#utility.yul\":5509:5526   */\n      add\n        /* \"#utility.yul\":5500:5506   */\n      dup5\n        /* \"#utility.yul\":5456:5527   */\n      tag_260\n      jump\t// in\n    tag_370:\n        /* \"#utility.yul\":5312:5534   */\n      swap3\n      swap2\n      pop\n      pop\n      jump\t// out\n        /* \"#utility.yul\":5540:6014   */\n    tag_78:\n        /* \"#utility.yul\":5608:5614   */\n      0x00\n        /* \"#utility.yul\":5616:5622   */\n      dup1\n        /* \"#utility.yul\":5665:5667   */\n      0x40\n        /* \"#utility.yul\":5653:5662   */\n      dup4\n        /* \"#utility.yul\":5644:5651   */\n      dup6\n        /* \"#utility.yul\":5640:5663   */\n      sub\n        /* \"#utility.yul\":5636:5668   */\n      slt\n        /* \"#utility.yul\":5633:5752   */\n      iszero\n      tag_372\n      jumpi\n        /* \"#utility.yul\":5671:5750   */\n      tag_373\n      tag_246\n      jump\t// in\n    tag_373:\n        /* \"#utility.yul\":5633:5752   */\n    tag_372:\n        /* \"#utility.yul\":5791:5792   */\n      0x00\n        /* \"#utility.yul\":5816:5869   */\n      tag_374\n        /* \"#utility.yul\":5861:5868   */\n      dup6\n        /* \"#utility.yul\":5852:5858   */\n      dup3\n        /* \"#utility.yul\":5841:5850   */\n      dup7\n        /* \"#utility.yul\":5837:5859   */\n      add\n        /* \"#utility.yul\":5816:5869   */\n      tag_251\n      jump\t// in\n    tag_374:\n        /* \"#utility.yul\":5806:5869   */\n      swap3\n      pop\n        /* \"#utility.yul\":5762:5879   */\n      pop\n        /* \"#utility.yul\":5918:5920   */\n      0x20\n        /* \"#utility.yul\":5944:5997   */\n      tag_375\n        /* \"#utility.yul\":5989:5996   */\n      dup6\n        /* \"#utility.yul\":5980:5986   */\n      dup3\n        /* \"#utility.yul\":5969:5978   */\n      dup7\n        /* \"#utility.yul\":5965:5987   */\n      add\n        /* \"#utility.yul\":5944:5997   */\n      tag_251\n      jump\t// in\n    tag_375:\n        /* \"#utility.yul\":5934:5997   */\n      swap2\n      pop\n        /* \"#utility.yul\":5889:6007   */\n      pop\n        /* \"#utility.yul\":5540:6014   */\n      swap3\n      pop\n      swap3\n      swap1\n      pop\n      jump\t// out\n        /* \"#utility.yul\":6020:6200   */\n    tag_261:\n        /* \"#utility.yul\":6068:6145   */\n      0x4e487b7100000000000000000000000000000000000000000000000000000000\n        /* \"#utility.yul\":6065:6066   */\n      0x00\n        /* \"#utility.yul\":6058:6146   */\n      mstore\n        /* \"#utility.yul\":6165:6169   */\n      0x22\n        /* \"#utility.yul\":6162:6163   */\n      0x04\n        /* \"#utility.yul\":6155:6170   */\n      mstore\n        /* \"#utility.yul\":6189:6193   */\n      0x24\n        /* \"#utility.yul\":6186:6187   */\n      0x00\n        /* \"#utility.yul\":6179:6194   */\n      revert\n        /* \"#utility.yul\":6206:6526   */\n    tag_86:\n        /* \"#utility.yul\":6250:6256   */\n      0x00\n        /* \"#utility.yul\":6287:6288   */\n      0x02\n        /* \"#utility.yul\":6281:6285   */\n      dup3\n        /* \"#utility.yul\":6277:6289   */\n      div\n        /* \"#utility.yul\":6267:6289   */\n      swap1\n      pop\n        /* \"#utility.yul\":6334:6335   */\n      0x01\n        /* \"#utility.yul\":6328:6332   */\n      dup3\n        /* \"#utility.yul\":6324:6336   */\n      and\n        /* \"#utility.yul\":6355:6373   */\n      dup1\n        /* \"#utility.yul\":6345:6426   */\n      tag_378\n      jumpi\n        /* \"#utility.yul\":6411:6415   */\n      0x7f\n        /* \"#utility.yul\":6403:6409   */\n      dup3\n        /* \"#utility.yul\":6399:6416   */\n      and\n        /* \"#utility.yul\":6389:6416   */\n      swap2\n      pop\n        /* \"#utility.yul\":6345:6426   */\n    tag_378:\n        /* \"#utility.yul\":6473:6475   */\n      0x20\n        /* \"#utility.yul\":6465:6471   */\n      dup3\n        /* \"#utility.yul\":6462:6476   */\n      lt\n        /* \"#utility.yul\":6442:6460   */\n      dup2\n        /* \"#utility.yul\":6439:6477   */\n      sub\n        /* \"#utility.yul\":6436:6520   */\n      tag_379\n      jumpi\n        /* \"#utility.yul\":6492:6510   */\n      tag_380\n      tag_261\n      jump\t// in\n    tag_380:\n        /* \"#utility.yul\":6436:6520   */\n    tag_379:\n        /* \"#utility.yul\":6257:6526   */\n      pop\n        /* \"#utility.yul\":6206:6526   */\n      swap2\n      swap1\n      pop\n      jump\t// out\n        /* \"#utility.yul\":6532:6712   */\n    tag_262:\n        /* \"#utility.yul\":6580:6657   */\n      0x4e487b7100000000000000000000000000000000000000000000000000000000\n        /* \"#utility.yul\":6577:6578   */\n      0x00\n        /* \"#utility.yul\":6570:6658   */\n      mstore\n        /* \"#utility.yul\":6677:6681   */\n      0x11\n        /* \"#utility.yul\":6674:6675   */\n      0x04\n        /* \"#utility.yul\":6667:6682   */\n      mstore\n        /* \"#utility.yul\":6701:6705   */\n      0x24\n        /* \"#utility.yul\":6698:6699   */\n      0x00\n        /* \"#utility.yul\":6691:6706   */\n      revert\n        /* \"#utility.yul\":6718:6909   */\n    tag_109:\n        /* \"#utility.yul\":6758:6761   */\n      0x00\n        /* \"#utility.yul\":6777:6797   */\n      tag_383\n        /* \"#utility.yul\":6795:6796   */\n      dup3\n        /* \"#utility.yul\":6777:6797   */\n      tag_252\n      jump\t// in\n    tag_383:\n        /* \"#utility.yul\":6772:6797   */\n      swap2\n      pop\n        /* \"#utility.yul\":6811:6831   */\n      tag_384\n        /* \"#utility.yul\":6829:6830   */\n      dup4\n        /* \"#utility.yul\":6811:6831   */\n      tag_252\n      jump\t// in\n    tag_384:\n        /* \"#utility.yul\":6806:6831   */\n      swap3\n      pop\n        /* \"#utility.yul\":6854:6855   */\n      dup3\n        /* \"#utility.yul\":6851:6852   */\n      dup3\n        /* \"#utility.yul\":6847:6856   */\n      add\n        /* \"#utility.yul\":6840:6856   */\n      swap1\n      pop\n        /* \"#utility.yul\":6875:6878   */\n      dup1\n        /* \"#utility.yul\":6872:6873   */\n      dup3\n        /* \"#utility.yul\":6869:6879   */\n      gt\n        /* \"#utility.yul\":6866:6902   */\n      iszero\n      tag_385\n      jumpi\n        /* \"#utility.yul\":6882:6900   */\n      tag_386\n      tag_262\n      jump\t// in\n    tag_386:\n        /* \"#utility.yul\":6866:6902   */\n    tag_385:\n        /* \"#utility.yul\":6718:6909   */\n      swap3\n      swap2\n      pop\n      pop\n      jump\t// out\n        /* \"#utility.yul\":6915:7148   */\n    tag_263:\n        /* \"#utility.yul\":7055:7089   */\n      0x496e697469616c697a61626c653a20636f6e747261637420697320616c726561\n        /* \"#utility.yul\":7051:7052   */\n      0x00\n        /* \"#utility.yul\":7043:7049   */\n      dup3\n        /* \"#utility.yul\":7039:7053   */\n      add\n        /* \"#utility.yul\":7032:7090   */\n      mstore\n        /* \"#utility.yul\":7124:7140   */\n      0x647920696e697469616c697a6564000000000000000000000000000000000000\n        /* \"#utility.yul\":7119:7121   */\n      0x20\n        /* \"#utility.yul\":7111:7117   */\n      dup3\n        /* \"#utility.yul\":7107:7122   */\n      add\n        /* \"#utility.yul\":7100:7141   */\n      mstore\n        /* \"#utility.yul\":6915:7148   */\n      pop\n      jump\t// out\n        /* \"#utility.yul\":7154:7520   */\n    tag_264:\n        /* \"#utility.yul\":7296:7299   */\n      0x00\n        /* \"#utility.yul\":7317:7384   */\n      tag_389\n        /* \"#utility.yul\":7381:7383   */\n      0x2e\n        /* \"#utility.yul\":7376:7379   */\n      dup4\n        /* \"#utility.yul\":7317:7384   */\n      tag_241\n      jump\t// in\n    tag_389:\n        /* \"#utility.yul\":7310:7384   */\n      swap2\n      pop\n        /* \"#utility.yul\":7393:7486   */\n      tag_390\n        /* \"#utility.yul\":7482:7485   */\n      dup3\n        /* \"#utility.yul\":7393:7486   */\n      tag_263\n      jump\t// in\n    tag_390:\n        /* \"#utility.yul\":7511:7513   */\n      0x40\n        /* \"#utility.yul\":7506:7509   */\n      dup3\n        /* \"#utility.yul\":7502:7514   */\n      add\n        /* \"#utility.yul\":7495:7514   */\n      swap1\n      pop\n        /* \"#utility.yul\":7154:7520   */\n      swap2\n      swap1\n      pop\n      jump\t// out\n        /* \"#utility.yul\":7526:7945   */\n    tag_130:\n        /* \"#utility.yul\":7692:7696   */\n      0x00\n        /* \"#utility.yul\":7730:7732   */\n      0x20\n        /* \"#utility.yul\":7719:7728   */\n      dup3\n        /* \"#utility.yul\":7715:7733   */\n      add\n        /* \"#utility.yul\":7707:7733   */\n      swap1\n      pop\n        /* \"#utility.yul\":7779:7788   */\n      dup2\n        /* \"#utility.yul\":7773:7777   */\n      dup2\n        /* \"#utility.yul\":7769:7789   */\n      sub\n        /* \"#utility.yul\":7765:7766   */\n      0x00\n        /* \"#utility.yul\":7754:7763   */\n      dup4\n        /* \"#utility.yul\":7750:7767   */\n      add\n        /* \"#utility.yul\":7743:7790   */\n      mstore\n        /* \"#utility.yul\":7807:7938   */\n      tag_392\n        /* \"#utility.yul\":7933:7937   */\n      dup2\n        /* \"#utility.yul\":7807:7938   */\n      tag_264\n      jump\t// in\n    tag_392:\n        /* \"#utility.yul\":7799:7938   */\n      swap1\n      pop\n        /* \"#utility.yul\":7526:7945   */\n      swap2\n      swap1\n      pop\n      jump\t// out\n        /* \"#utility.yul\":7951:8036   */\n    tag_265:\n        /* \"#utility.yul\":7996:8003   */\n      0x00\n        /* \"#utility.yul\":8025:8030   */\n      dup2\n        /* \"#utility.yul\":8014:8030   */\n      swap1\n      pop\n        /* \"#utility.yul\":7951:8036   */\n      swap2\n      swap1\n      pop\n      jump\t// out\n        /* \"#utility.yul\":8042:8102   */\n    tag_266:\n        /* \"#utility.yul\":8070:8073   */\n      0x00\n        /* \"#utility.yul\":8091:8096   */\n      dup2\n        /* \"#utility.yul\":8084:8096   */\n      swap1\n      pop\n        /* \"#utility.yul\":8042:8102   */\n      swap2\n      swap1\n      pop\n      jump\t// out\n        /* \"#utility.yul\":8108:8262   */\n    tag_267:\n        /* \"#utility.yul\":8164:8173   */\n      0x00\n        /* \"#utility.yul\":8197:8256   */\n      tag_396\n        /* \"#utility.yul\":8213:8255   */\n      tag_397\n        /* \"#utility.yul\":8222:8254   */\n      tag_398\n        /* \"#utility.yul\":8248:8253   */\n      dup5\n        /* \"#utility.yul\":8222:8254   */\n      tag_265\n      jump\t// in\n    tag_398:\n        /* \"#utility.yul\":8213:8255   */\n      tag_266\n      jump\t// in\n    tag_397:\n        /* \"#utility.yul\":8197:8256   */\n      tag_258\n      jump\t// in\n    tag_396:\n        /* \"#utility.yul\":8184:8256   */\n      swap1\n      pop\n        /* \"#utility.yul\":8108:8262   */\n      swap2\n      swap1\n      pop\n      jump\t// out\n        /* \"#utility.yul\":8268:8411   */\n    tag_268:\n        /* \"#utility.yul\":8361:8404   */\n      tag_400\n        /* \"#utility.yul\":8398:8403   */\n      dup2\n        /* \"#utility.yul\":8361:8404   */\n      tag_267\n      jump\t// in\n    tag_400:\n        /* \"#utility.yul\":8356:8359   */\n      dup3\n        /* \"#utility.yul\":8349:8405   */\n      mstore\n        /* \"#utility.yul\":8268:8411   */\n      pop\n      pop\n      jump\t// out\n        /* \"#utility.yul\":8417:8651   */\n    tag_139:\n        /* \"#utility.yul\":8516:8520   */\n      0x00\n        /* \"#utility.yul\":8554:8556   */\n      0x20\n        /* \"#utility.yul\":8543:8552   */\n      dup3\n        /* \"#utility.yul\":8539:8557   */\n      add\n        /* \"#utility.yul\":8531:8557   */\n      swap1\n      pop\n        /* \"#utility.yul\":8567:8644   */\n      tag_402\n        /* \"#utility.yul\":8641:8642   */\n      0x00\n        /* \"#utility.yul\":8630:8639   */\n      dup4\n        /* \"#utility.yul\":8626:8643   */\n      add\n        /* \"#utility.yul\":8617:8623   */\n      dup5\n        /* \"#utility.yul\":8567:8644   */\n      tag_268\n      jump\t// in\n    tag_402:\n        /* \"#utility.yul\":8417:8651   */\n      swap3\n      swap2\n      pop\n      pop\n      jump\t// out\n        /* \"#utility.yul\":8657:8881   */\n    tag_269:\n        /* \"#utility.yul\":8797:8831   */\n      0x45524332303a2064656372656173656420616c6c6f77616e63652062656c6f77\n        /* \"#utility.yul\":8793:8794   */\n      0x00\n        /* \"#utility.yul\":8785:8791   */\n      dup3\n        /* \"#utility.yul\":8781:8795   */\n      add\n        /* \"#utility.yul\":8774:8832   */\n      mstore\n        /* \"#utility.yul\":8866:8873   */\n      0x207a65726f000000000000000000000000000000000000000000000000000000\n        /* \"#utility.yul\":8861:8863   */\n      0x20\n        /* \"#utility.yul\":8853:8859   */\n      dup3\n        /* \"#utility.yul\":8849:8864   */\n      add\n        /* \"#utility.yul\":8842:8874   */\n      mstore\n        /* \"#utility.yul\":8657:8881   */\n      pop\n      jump\t// out\n        /* \"#utility.yul\":8887:9253   */\n    tag_270:\n        /* \"#utility.yul\":9029:9032   */\n      0x00\n        /* \"#utility.yul\":9050:9117   */\n      tag_405\n        /* \"#utility.yul\":9114:9116   */\n      0x25\n        /* \"#utility.yul\":9109:9112   */\n      dup4\n        /* \"#utility.yul\":9050:9117   */\n      tag_241\n      jump\t// in\n    tag_405:\n        /* \"#utility.yul\":9043:9117   */\n      swap2\n      pop\n        /* \"#utility.yul\":9126:9219   */\n      tag_406\n        /* \"#utility.yul\":9215:9218   */\n      dup3\n        /* \"#utility.yul\":9126:9219   */\n      tag_269\n      jump\t// in\n    tag_406:\n        /* \"#utility.yul\":9244:9246   */\n      0x40\n        /* \"#utility.yul\":9239:9242   */\n      dup3\n        /* \"#utility.yul\":9235:9247   */\n      add\n        /* \"#utility.yul\":9228:9247   */\n      swap1\n      pop\n        /* \"#utility.yul\":8887:9253   */\n      swap2\n      swap1\n      pop\n      jump\t// out\n        /* \"#utility.yul\":9259:9678   */\n    tag_152:\n        /* \"#utility.yul\":9425:9429   */\n      0x00\n        /* \"#utility.yul\":9463:9465   */\n      0x20\n        /* \"#utility.yul\":9452:9461   */\n      dup3\n        /* \"#utility.yul\":9448:9466   */\n      add\n        /* \"#utility.yul\":9440:9466   */\n      swap1\n      pop\n        /* \"#utility.yul\":9512:9521   */\n      dup2\n        /* \"#utility.yul\":9506:9510   */\n      dup2\n        /* \"#utility.yul\":9502:9522   */\n      sub\n        /* \"#utility.yul\":9498:9499   */\n      0x00\n        /* \"#utility.yul\":9487:9496   */\n      dup4\n        /* \"#utility.yul\":9483:9500   */\n      add\n        /* \"#utility.yul\":9476:9523   */\n      mstore\n        /* \"#utility.yul\":9540:9671   */\n      tag_408\n        /* \"#utility.yul\":9666:9670   */\n      dup2\n        /* \"#utility.yul\":9540:9671   */\n      tag_270\n      jump\t// in\n    tag_408:\n        /* \"#utility.yul\":9532:9671   */\n      swap1\n      pop\n        /* \"#utility.yul\":9259:9678   */\n      swap2\n      swap1\n      pop\n      jump\t// out\n        /* \"#utility.yul\":9684:9909   */\n    tag_271:\n        /* \"#utility.yul\":9824:9858   */\n      0x4f776e61626c653a206e6577206f776e657220697320746865207a65726f2061\n        /* \"#utility.yul\":9820:9821   */\n      0x00\n        /* \"#utility.yul\":9812:9818   */\n      dup3\n        /* \"#utility.yul\":9808:9822   */\n      add\n        /* \"#utility.yul\":9801:9859   */\n      mstore\n        /* \"#utility.yul\":9893:9901   */\n      0x6464726573730000000000000000000000000000000000000000000000000000\n        /* \"#utility.yul\":9888:9890   */\n      0x20\n        /* \"#utility.yul\":9880:9886   */\n      dup3\n        /* \"#utility.yul\":9876:9891   */\n      add\n        /* \"#utility.yul\":9869:9902   */\n      mstore\n        /* \"#utility.yul\":9684:9909   */\n      pop\n      jump\t// out\n        /* \"#utility.yul\":9915:10281   */\n    tag_272:\n        /* \"#utility.yul\":10057:10060   */\n      0x00\n        /* \"#utility.yul\":10078:10145   */\n      tag_411\n        /* \"#utility.yul\":10142:10144   */\n      0x26\n        /* \"#utility.yul\":10137:10140   */\n      dup4\n        /* \"#utility.yul\":10078:10145   */\n      tag_241\n      jump\t// in\n    tag_411:\n        /* \"#utility.yul\":10071:10145   */\n      swap2\n      pop\n        /* \"#utility.yul\":10154:10247   */\n      tag_412\n        /* \"#utility.yul\":10243:10246   */\n      dup3\n        /* \"#utility.yul\":10154:10247   */\n      tag_271\n      jump\t// in\n    tag_412:\n        /* \"#utility.yul\":10272:10274   */\n      0x40\n        /* \"#utility.yul\":10267:10270   */\n      dup3\n        /* \"#utility.yul\":10263:10275   */\n      add\n        /* \"#utility.yul\":10256:10275   */\n      swap1\n      pop\n        /* \"#utility.yul\":9915:10281   */\n      swap2\n      swap1\n      pop\n      jump\t// out\n        /* \"#utility.yul\":10287:10706   */\n    tag_163:\n        /* \"#utility.yul\":10453:10457   */\n      0x00\n        /* \"#utility.yul\":10491:10493   */\n      0x20\n        /* \"#utility.yul\":10480:10489   */\n      dup3\n        /* \"#utility.yul\":10476:10494   */\n      add\n        /* \"#utility.yul\":10468:10494   */\n      swap1\n      pop\n        /* \"#utility.yul\":10540:10549   */\n      dup2\n        /* \"#utility.yul\":10534:10538   */\n      dup2\n        /* \"#utility.yul\":10530:10550   */\n      sub\n        /* \"#utility.yul\":10526:10527   */\n      0x00\n        /* \"#utility.yul\":10515:10524   */\n      dup4\n        /* \"#utility.yul\":10511:10528   */\n      add\n        /* \"#utility.yul\":10504:10551   */\n      mstore\n        /* \"#utility.yul\":10568:10699   */\n      tag_414\n        /* \"#utility.yul\":10694:10698   */\n      dup2\n        /* \"#utility.yul\":10568:10699   */\n      tag_272\n      jump\t// in\n    tag_414:\n        /* \"#utility.yul\":10560:10699   */\n      swap1\n      pop\n        /* \"#utility.yul\":10287:10706   */\n      swap2\n      swap1\n      pop\n      jump\t// out\n        /* \"#utility.yul\":10712:10935   */\n    tag_273:\n        /* \"#utility.yul\":10852:10886   */\n      0x45524332303a20617070726f76652066726f6d20746865207a65726f20616464\n        /* \"#utility.yul\":10848:10849   */\n      0x00\n        /* \"#utility.yul\":10840:10846   */\n      dup3\n        /* \"#utility.yul\":10836:10850   */\n      add\n        /* \"#utility.yul\":10829:10887   */\n      mstore\n        /* \"#utility.yul\":10921:10927   */\n      0x7265737300000000000000000000000000000000000000000000000000000000\n        /* \"#utility.yul\":10916:10918   */\n      0x20\n        /* \"#utility.yul\":10908:10914   */\n      dup3\n        /* \"#utility.yul\":10904:10919   */\n      add\n        /* \"#utility.yul\":10897:10928   */\n      mstore\n        /* \"#utility.yul\":10712:10935   */\n      pop\n      jump\t// out\n        /* \"#utility.yul\":10941:11307   */\n    tag_274:\n        /* \"#utility.yul\":11083:11086   */\n      0x00\n        /* \"#utility.yul\":11104:11171   */\n      tag_417\n        /* \"#utility.yul\":11168:11170   */\n      0x24\n        /* \"#utility.yul\":11163:11166   */\n      dup4\n        /* \"#utility.yul\":11104:11171   */\n      tag_241\n      jump\t// in\n    tag_417:\n        /* \"#utility.yul\":11097:11171   */\n      swap2\n      pop\n        /* \"#utility.yul\":11180:11273   */\n      tag_418\n        /* \"#utility.yul\":11269:11272   */\n      dup3\n        /* \"#utility.yul\":11180:11273   */\n      tag_273\n      jump\t// in\n    tag_418:\n        /* \"#utility.yul\":11298:11300   */\n      0x40\n        /* \"#utility.yul\":11293:11296   */\n      dup3\n        /* \"#utility.yul\":11289:11301   */\n      add\n        /* \"#utility.yul\":11282:11301   */\n      swap1\n      pop\n        /* \"#utility.yul\":10941:11307   */\n      swap2\n      swap1\n      pop\n      jump\t// out\n        /* \"#utility.yul\":11313:11732   */\n    tag_169:\n        /* \"#utility.yul\":11479:11483   */\n      0x00\n        /* \"#utility.yul\":11517:11519   */\n      0x20\n        /* \"#utility.yul\":11506:11515   */\n      dup3\n        /* \"#utility.yul\":11502:11520   */\n      add\n        /* \"#utility.yul\":11494:11520   */\n      swap1\n      pop\n        /* \"#utility.yul\":11566:11575   */\n      dup2\n        /* \"#utility.yul\":11560:11564   */\n      dup2\n        /* \"#utility.yul\":11556:11576   */\n      sub\n        /* \"#utility.yul\":11552:11553   */\n      0x00\n        /* \"#utility.yul\":11541:11550   */\n      dup4\n        /* \"#utility.yul\":11537:11554   */\n      add\n        /* \"#utility.yul\":11530:11577   */\n      mstore\n        /* \"#utility.yul\":11594:11725   */\n      tag_420\n        /* \"#utility.yul\":11720:11724   */\n      dup2\n        /* \"#utility.yul\":11594:11725   */\n      tag_274\n      jump\t// in\n    tag_420:\n        /* \"#utility.yul\":11586:11725   */\n      swap1\n      pop\n        /* \"#utility.yul\":11313:11732   */\n      swap2\n      swap1\n      pop\n      jump\t// out\n        /* \"#utility.yul\":11738:11959   */\n    tag_275:\n        /* \"#utility.yul\":11878:11912   */\n      0x45524332303a20617070726f766520746f20746865207a65726f206164647265\n        /* \"#utility.yul\":11874:11875   */\n      0x00\n        /* \"#utility.yul\":11866:11872   */\n      dup3\n        /* \"#utility.yul\":11862:11876   */\n      add\n        /* \"#utility.yul\":11855:11913   */\n      mstore\n        /* \"#utility.yul\":11947:11951   */\n      0x7373000000000000000000000000000000000000000000000000000000000000\n        /* \"#utility.yul\":11942:11944   */\n      0x20\n        /* \"#utility.yul\":11934:11940   */\n      dup3\n        /* \"#utility.yul\":11930:11945   */\n      add\n        /* \"#utility.yul\":11923:11952   */\n      mstore\n        /* \"#utility.yul\":11738:11959   */\n      pop\n      jump\t// out\n        /* \"#utility.yul\":11965:12331   */\n    tag_276:\n        /* \"#utility.yul\":12107:12110   */\n      0x00\n        /* \"#utility.yul\":12128:12195   */\n      tag_423\n        /* \"#utility.yul\":12192:12194   */\n      0x22\n        /* \"#utility.yul\":12187:12190   */\n      dup4\n        /* \"#utility.yul\":12128:12195   */\n      tag_241\n      jump\t// in\n    tag_423:\n        /* \"#utility.yul\":12121:12195   */\n      swap2\n      pop\n        /* \"#utility.yul\":12204:12297   */\n      tag_424\n        /* \"#utility.yul\":12293:12296   */\n      dup3\n        /* \"#utility.yul\":12204:12297   */\n      tag_275\n      jump\t// in\n    tag_424:\n        /* \"#utility.yul\":12322:12324   */\n      0x40\n        /* \"#utility.yul\":12317:12320   */\n      dup3\n        /* \"#utility.yul\":12313:12325   */\n      add\n        /* \"#utility.yul\":12306:12325   */\n      swap1\n      pop\n        /* \"#utility.yul\":11965:12331   */\n      swap2\n      swap1\n      pop\n      jump\t// out\n        /* \"#utility.yul\":12337:12756   */\n    tag_172:\n        /* \"#utility.yul\":12503:12507   */\n      0x00\n        /* \"#utility.yul\":12541:12543   */\n      0x20\n        /* \"#utility.yul\":12530:12539   */\n      dup3\n        /* \"#utility.yul\":12526:12544   */\n      add\n        /* \"#utility.yul\":12518:12544   */\n      swap1\n      pop\n        /* \"#utility.yul\":12590:12599   */\n      dup2\n        /* \"#utility.yul\":12584:12588   */\n      dup2\n        /* \"#utility.yul\":12580:12600   */\n      sub\n        /* \"#utility.yul\":12576:12577   */\n      0x00\n        /* \"#utility.yul\":12565:12574   */\n      dup4\n        /* \"#utility.yul\":12561:12578   */\n      add\n        /* \"#utility.yul\":12554:12601   */\n      mstore\n        /* \"#utility.yul\":12618:12749   */\n      tag_426\n        /* \"#utility.yul\":12744:12748   */\n      dup2\n        /* \"#utility.yul\":12618:12749   */\n      tag_276\n      jump\t// in\n    tag_426:\n        /* \"#utility.yul\":12610:12749   */\n      swap1\n      pop\n        /* \"#utility.yul\":12337:12756   */\n      swap2\n      swap1\n      pop\n      jump\t// out\n        /* \"#utility.yul\":12762:12941   */\n    tag_277:\n        /* \"#utility.yul\":12902:12933   */\n      0x45524332303a20696e73756666696369656e7420616c6c6f77616e6365000000\n        /* \"#utility.yul\":12898:12899   */\n      0x00\n        /* \"#utility.yul\":12890:12896   */\n      dup3\n        /* \"#utility.yul\":12886:12900   */\n      add\n        /* \"#utility.yul\":12879:12934   */\n      mstore\n        /* \"#utility.yul\":12762:12941   */\n      pop\n      jump\t// out\n        /* \"#utility.yul\":12947:13313   */\n    tag_278:\n        /* \"#utility.yul\":13089:13092   */\n      0x00\n        /* \"#utility.yul\":13110:13177   */\n      tag_429\n        /* \"#utility.yul\":13174:13176   */\n      0x1d\n        /* \"#utility.yul\":13169:13172   */\n      dup4\n        /* \"#utility.yul\":13110:13177   */\n      tag_241\n      jump\t// in\n    tag_429:\n        /* \"#utility.yul\":13103:13177   */\n      swap2\n      pop\n        /* \"#utility.yul\":13186:13279   */\n      tag_430\n        /* \"#utility.yul\":13275:13278   */\n      dup3\n        /* \"#utility.yul\":13186:13279   */\n      tag_277\n      jump\t// in\n    tag_430:\n        /* \"#utility.yul\":13304:13306   */\n      0x20\n        /* \"#utility.yul\":13299:13302   */\n      dup3\n        /* \"#utility.yul\":13295:13307   */\n      add\n        /* \"#utility.yul\":13288:13307   */\n      swap1\n      pop\n        /* \"#utility.yul\":12947:13313   */\n      swap2\n      swap1\n      pop\n      jump\t// out\n        /* \"#utility.yul\":13319:13738   */\n    tag_179:\n        /* \"#utility.yul\":13485:13489   */\n      0x00\n        /* \"#utility.yul\":13523:13525   */\n      0x20\n        /* \"#utility.yul\":13512:13521   */\n      dup3\n        /* \"#utility.yul\":13508:13526   */\n      add\n        /* \"#utility.yul\":13500:13526   */\n      swap1\n      pop\n        /* \"#utility.yul\":13572:13581   */\n      dup2\n        /* \"#utility.yul\":13566:13570   */\n      dup2\n        /* \"#utility.yul\":13562:13582   */\n      sub\n        /* \"#utility.yul\":13558:13559   */\n      0x00\n        /* \"#utility.yul\":13547:13556   */\n      dup4\n        /* \"#utility.yul\":13543:13560   */\n      add\n        /* \"#utility.yul\":13536:13583   */\n      mstore\n        /* \"#utility.yul\":13600:13731   */\n      tag_432\n        /* \"#utility.yul\":13726:13730   */\n      dup2\n        /* \"#utility.yul\":13600:13731   */\n      tag_278\n      jump\t// in\n    tag_432:\n        /* \"#utility.yul\":13592:13731   */\n      swap1\n      pop\n        /* \"#utility.yul\":13319:13738   */\n      swap2\n      swap1\n      pop\n      jump\t// out\n        /* \"#utility.yul\":13744:13968   */\n    tag_279:\n        /* \"#utility.yul\":13884:13918   */\n      0x45524332303a207472616e736665722066726f6d20746865207a65726f206164\n        /* \"#utility.yul\":13880:13881   */\n      0x00\n        /* \"#utility.yul\":13872:13878   */\n      dup3\n        /* \"#utility.yul\":13868:13882   */\n      add\n        /* \"#utility.yul\":13861:13919   */\n      mstore\n        /* \"#utility.yul\":13953:13960   */\n      0x6472657373000000000000000000000000000000000000000000000000000000\n        /* \"#utility.yul\":13948:13950   */\n      0x20\n        /* \"#utility.yul\":13940:13946   */\n      dup3\n        /* \"#utility.yul\":13936:13951   */\n      add\n        /* \"#utility.yul\":13929:13961   */\n      mstore\n        /* \"#utility.yul\":13744:13968   */\n      pop\n      jump\t// out\n        /* \"#utility.yul\":13974:14340   */\n    tag_280:\n        /* \"#utility.yul\":14116:14119   */\n      0x00\n        /* \"#utility.yul\":14137:14204   */\n      tag_435\n        /* \"#utility.yul\":14201:14203   */\n      0x25\n        /* \"#utility.yul\":14196:14199   */\n      dup4\n        /* \"#utility.yul\":14137:14204   */\n      tag_241\n      jump\t// in\n    tag_435:\n        /* \"#utility.yul\":14130:14204   */\n      swap2\n      pop\n        /* \"#utility.yul\":14213:14306   */\n      tag_436\n        /* \"#utility.yul\":14302:14305   */\n      dup3\n        /* \"#utility.yul\":14213:14306   */\n      tag_279\n      jump\t// in\n    tag_436:\n        /* \"#utility.yul\":14331:14333   */\n      0x40\n        /* \"#utility.yul\":14326:14329   */\n      dup3\n        /* \"#utility.yul\":14322:14334   */\n      add\n        /* \"#utility.yul\":14315:14334   */\n      swap1\n      pop\n        /* \"#utility.yul\":13974:14340   */\n      swap2\n      swap1\n      pop\n      jump\t// out\n        /* \"#utility.yul\":14346:14765   */\n    tag_184:\n        /* \"#utility.yul\":14512:14516   */\n      0x00\n        /* \"#utility.yul\":14550:14552   */\n      0x20\n        /* \"#utility.yul\":14539:14548   */\n      dup3\n        /* \"#utility.yul\":14535:14553   */\n      add\n        /* \"#utility.yul\":14527:14553   */\n      swap1\n      pop\n        /* \"#utility.yul\":14599:14608   */\n      dup2\n        /* \"#utility.yul\":14593:14597   */\n      dup2\n        /* \"#utility.yul\":14589:14609   */\n      sub\n        /* \"#utility.yul\":14585:14586   */\n      0x00\n        /* \"#utility.yul\":14574:14583   */\n      dup4\n        /* \"#utility.yul\":14570:14587   */\n      add\n        /* \"#utility.yul\":14563:14610   */\n      mstore\n        /* \"#utility.yul\":14627:14758   */\n      tag_438\n        /* \"#utility.yul\":14753:14757   */\n      dup2\n        /* \"#utility.yul\":14627:14758   */\n      tag_280\n      jump\t// in\n    tag_438:\n        /* \"#utility.yul\":14619:14758   */\n      swap1\n      pop\n        /* \"#utility.yul\":14346:14765   */\n      swap2\n      swap1\n      pop\n      jump\t// out\n        /* \"#utility.yul\":14771:14993   */\n    tag_281:\n        /* \"#utility.yul\":14911:14945   */\n      0x45524332303a207472616e7366657220746f20746865207a65726f2061646472\n        /* \"#utility.yul\":14907:14908   */\n      0x00\n        /* \"#utility.yul\":14899:14905   */\n      dup3\n        /* \"#utility.yul\":14895:14909   */\n      add\n        /* \"#utility.yul\":14888:14946   */\n      mstore\n        /* \"#utility.yul\":14980:14985   */\n      0x6573730000000000000000000000000000000000000000000000000000000000\n        /* \"#utility.yul\":14975:14977   */\n      0x20\n        /* \"#utility.yul\":14967:14973   */\n      dup3\n        /* \"#utility.yul\":14963:14978   */\n      add\n        /* \"#utility.yul\":14956:14986   */\n      mstore\n        /* \"#utility.yul\":14771:14993   */\n      pop\n      jump\t// out\n        /* \"#utility.yul\":14999:15365   */\n    tag_282:\n        /* \"#utility.yul\":15141:15144   */\n      0x00\n        /* \"#utility.yul\":15162:15229   */\n      tag_441\n        /* \"#utility.yul\":15226:15228   */\n      0x23\n        /* \"#utility.yul\":15221:15224   */\n      dup4\n        /* \"#utility.yul\":15162:15229   */\n      tag_241\n      jump\t// in\n    tag_441:\n        /* \"#utility.yul\":15155:15229   */\n      swap2\n      pop\n        /* \"#utility.yul\":15238:15331   */\n      tag_442\n        /* \"#utility.yul\":15327:15330   */\n      dup3\n        /* \"#utility.yul\":15238:15331   */\n      tag_281\n      jump\t// in\n    tag_442:\n        /* \"#utility.yul\":15356:15358   */\n      0x40\n        /* \"#utility.yul\":15351:15354   */\n      dup3\n        /* \"#utility.yul\":15347:15359   */\n      add\n        /* \"#utility.yul\":15340:15359   */\n      swap1\n      pop\n        /* \"#utility.yul\":14999:15365   */\n      swap2\n      swap1\n      pop\n      jump\t// out\n        /* \"#utility.yul\":15371:15790   */\n    tag_187:\n        /* \"#utility.yul\":15537:15541   */\n      0x00\n        /* \"#utility.yul\":15575:15577   */\n      0x20\n        /* \"#utility.yul\":15564:15573   */\n      dup3\n        /* \"#utility.yul\":15560:15578   */\n      add\n        /* \"#utility.yul\":15552:15578   */\n      swap1\n      pop\n        /* \"#utility.yul\":15624:15633   */\n      dup2\n        /* \"#utility.yul\":15618:15622   */\n      dup2\n        /* \"#utility.yul\":15614:15634   */\n      sub\n        /* \"#utility.yul\":15610:15611   */\n      0x00\n        /* \"#utility.yul\":15599:15608   */\n      dup4\n        /* \"#utility.yul\":15595:15612   */\n      add\n        /* \"#utility.yul\":15588:15635   */\n      mstore\n        /* \"#utility.yul\":15652:15783   */\n      tag_444\n        /* \"#utility.yul\":15778:15782   */\n      dup2\n        /* \"#utility.yul\":15652:15783   */\n      tag_282\n      jump\t// in\n    tag_444:\n        /* \"#utility.yul\":15644:15783   */\n      swap1\n      pop\n        /* \"#utility.yul\":15371:15790   */\n      swap2\n      swap1\n      pop\n      jump\t// out\n        /* \"#utility.yul\":15796:16021   */\n    tag_283:\n        /* \"#utility.yul\":15936:15970   */\n      0x45524332303a207472616e7366657220616d6f756e7420657863656564732062\n        /* \"#utility.yul\":15932:15933   */\n      0x00\n        /* \"#utility.yul\":15924:15930   */\n      dup3\n        /* \"#utility.yul\":15920:15934   */\n      add\n        /* \"#utility.yul\":15913:15971   */\n      mstore\n        /* \"#utility.yul\":16005:16013   */\n      0x616c616e63650000000000000000000000000000000000000000000000000000\n        /* \"#utility.yul\":16000:16002   */\n      0x20\n        /* \"#utility.yul\":15992:15998   */\n      dup3\n        /* \"#utility.yul\":15988:16003   */\n      add\n        /* \"#utility.yul\":15981:16014   */\n      mstore\n        /* \"#utility.yul\":15796:16021   */\n      pop\n      jump\t// out\n        /* \"#utility.yul\":16027:16393   */\n    tag_284:\n        /* \"#utility.yul\":16169:16172   */\n      0x00\n        /* \"#utility.yul\":16190:16257   */\n      tag_447\n        /* \"#utility.yul\":16254:16256   */\n      0x26\n        /* \"#utility.yul\":16249:16252   */\n      dup4\n        /* \"#utility.yul\":16190:16257   */\n      tag_241\n      jump\t// in\n    tag_447:\n        /* \"#utility.yul\":16183:16257   */\n      swap2\n      pop\n        /* \"#utility.yul\":16266:16359   */\n      tag_448\n        /* \"#utility.yul\":16355:16358   */\n      dup3\n        /* \"#utility.yul\":16266:16359   */\n      tag_283\n      jump\t// in\n    tag_448:\n        /* \"#utility.yul\":16384:16386   */\n      0x40\n        /* \"#utility.yul\":16379:16382   */\n      dup3\n        /* \"#utility.yul\":16375:16387   */\n      add\n        /* \"#utility.yul\":16368:16387   */\n      swap1\n      pop\n        /* \"#utility.yul\":16027:16393   */\n      swap2\n      swap1\n      pop\n      jump\t// out\n        /* \"#utility.yul\":16399:16818   */\n    tag_192:\n        /* \"#utility.yul\":16565:16569   */\n      0x00\n        /* \"#utility.yul\":16603:16605   */\n      0x20\n        /* \"#utility.yul\":16592:16601   */\n      dup3\n        /* \"#utility.yul\":16588:16606   */\n      add\n        /* \"#utility.yul\":16580:16606   */\n      swap1\n      pop\n        /* \"#utility.yul\":16652:16661   */\n      dup2\n        /* \"#utility.yul\":16646:16650   */\n      dup2\n        /* \"#utility.yul\":16642:16662   */\n      sub\n        /* \"#utility.yul\":16638:16639   */\n      0x00\n        /* \"#utility.yul\":16627:16636   */\n      dup4\n        /* \"#utility.yul\":16623:16640   */\n      add\n        /* \"#utility.yul\":16616:16663   */\n      mstore\n        /* \"#utility.yul\":16680:16811   */\n      tag_450\n        /* \"#utility.yul\":16806:16810   */\n      dup2\n        /* \"#utility.yul\":16680:16811   */\n      tag_284\n      jump\t// in\n    tag_450:\n        /* \"#utility.yul\":16672:16811   */\n      swap1\n      pop\n        /* \"#utility.yul\":16399:16818   */\n      swap2\n      swap1\n      pop\n      jump\t// out\n        /* \"#utility.yul\":16824:17006   */\n    tag_285:\n        /* \"#utility.yul\":16964:16998   */\n      0x4f776e61626c653a2063616c6c6572206973206e6f7420746865206f776e6572\n        /* \"#utility.yul\":16960:16961   */\n      0x00\n        /* \"#utility.yul\":16952:16958   */\n      dup3\n        /* \"#utility.yul\":16948:16962   */\n      add\n        /* \"#utility.yul\":16941:16999   */\n      mstore\n        /* \"#utility.yul\":16824:17006   */\n      pop\n      jump\t// out\n        /* \"#utility.yul\":17012:17378   */\n    tag_286:\n        /* \"#utility.yul\":17154:17157   */\n      0x00\n        /* \"#utility.yul\":17175:17242   */\n      tag_453\n        /* \"#utility.yul\":17239:17241   */\n      0x20\n        /* \"#utility.yul\":17234:17237   */\n      dup4\n        /* \"#utility.yul\":17175:17242   */\n      tag_241\n      jump\t// in\n    tag_453:\n        /* \"#utility.yul\":17168:17242   */\n      swap2\n      pop\n        /* \"#utility.yul\":17251:17344   */\n      tag_454\n        /* \"#utility.yul\":17340:17343   */\n      dup3\n        /* \"#utility.yul\":17251:17344   */\n      tag_285\n      jump\t// in\n    tag_454:\n        /* \"#utility.yul\":17369:17371   */\n      0x20\n        /* \"#utility.yul\":17364:17367   */\n      dup3\n        /* \"#utility.yul\":17360:17372   */\n      add\n        /* \"#utility.yul\":17353:17372   */\n      swap1\n      pop\n        /* \"#utility.yul\":17012:17378   */\n      swap2\n      swap1\n      pop\n      jump\t// out\n        /* \"#utility.yul\":17384:17803   */\n    tag_201:\n        /* \"#utility.yul\":17550:17554   */\n      0x00\n        /* \"#utility.yul\":17588:17590   */\n      0x20\n        /* \"#utility.yul\":17577:17586   */\n      dup3\n        /* \"#utility.yul\":17573:17591   */\n      add\n        /* \"#utility.yul\":17565:17591   */\n      swap1\n      pop\n        /* \"#utility.yul\":17637:17646   */\n      dup2\n        /* \"#utility.yul\":17631:17635   */\n      dup2\n        /* \"#utility.yul\":17627:17647   */\n      sub\n        /* \"#utility.yul\":17623:17624   */\n      0x00\n        /* \"#utility.yul\":17612:17621   */\n      dup4\n        /* \"#utility.yul\":17608:17625   */\n      add\n        /* \"#utility.yul\":17601:17648   */\n      mstore\n        /* \"#utility.yul\":17665:17796   */\n      tag_456\n        /* \"#utility.yul\":17791:17795   */\n      dup2\n        /* \"#utility.yul\":17665:17796   */\n      tag_286\n      jump\t// in\n    tag_456:\n        /* \"#utility.yul\":17657:17796   */\n      swap1\n      pop\n        /* \"#utility.yul\":17384:17803   */\n      swap2\n      swap1\n      pop\n      jump\t// out\n        /* \"#utility.yul\":17809:17990   */\n    tag_287:\n        /* \"#utility.yul\":17949:17982   */\n      0x45524332303a206d696e7420746f20746865207a65726f206164647265737300\n        /* \"#utility.yul\":17945:17946   */\n      0x00\n        /* \"#utility.yul\":17937:17943   */\n      dup3\n        /* \"#utility.yul\":17933:17947   */\n      add\n        /* \"#utility.yul\":17926:17983   */\n      mstore\n        /* \"#utility.yul\":17809:17990   */\n      pop\n      jump\t// out\n        /* \"#utility.yul\":17996:18362   */\n    tag_288:\n        /* \"#utility.yul\":18138:18141   */\n      0x00\n        /* \"#utility.yul\":18159:18226   */\n      tag_459\n        /* \"#utility.yul\":18223:18225   */\n      0x1f\n        /* \"#utility.yul\":18218:18221   */\n      dup4\n        /* \"#utility.yul\":18159:18226   */\n      tag_241\n      jump\t// in\n    tag_459:\n        /* \"#utility.yul\":18152:18226   */\n      swap2\n      pop\n        /* \"#utility.yul\":18235:18328   */\n      tag_460\n        /* \"#utility.yul\":18324:18327   */\n      dup3\n        /* \"#utility.yul\":18235:18328   */\n      tag_287\n      jump\t// in\n    tag_460:\n        /* \"#utility.yul\":18353:18355   */\n      0x20\n        /* \"#utility.yul\":18348:18351   */\n      dup3\n        /* \"#utility.yul\":18344:18356   */\n      add\n        /* \"#utility.yul\":18337:18356   */\n      swap1\n      pop\n        /* \"#utility.yul\":17996:18362   */\n      swap2\n      swap1\n      pop\n      jump\t// out\n        /* \"#utility.yul\":18368:18787   */\n    tag_205:\n        /* \"#utility.yul\":18534:18538   */\n      0x00\n        /* \"#utility.yul\":18572:18574   */\n      0x20\n        /* \"#utility.yul\":18561:18570   */\n      dup3\n        /* \"#utility.yul\":18557:18575   */\n      add\n        /* \"#utility.yul\":18549:18575   */\n      swap1\n      pop\n        /* \"#utility.yul\":18621:18630   */\n      dup2\n        /* \"#utility.yul\":18615:18619   */\n      dup2\n        /* \"#utility.yul\":18611:18631   */\n      sub\n        /* \"#utility.yul\":18607:18608   */\n      0x00\n        /* \"#utility.yul\":18596:18605   */\n      dup4\n        /* \"#utility.yul\":18592:18609   */\n      add\n        /* \"#utility.yul\":18585:18632   */\n      mstore\n        /* \"#utility.yul\":18649:18780   */\n      tag_462\n        /* \"#utility.yul\":18775:18779   */\n      dup2\n        /* \"#utility.yul\":18649:18780   */\n      tag_288\n      jump\t// in\n    tag_462:\n        /* \"#utility.yul\":18641:18780   */\n      swap1\n      pop\n        /* \"#utility.yul\":18368:18787   */\n      swap2\n      swap1\n      pop\n      jump\t// out\n        /* \"#utility.yul\":18793:19023   */\n    tag_289:\n        /* \"#utility.yul\":18933:18967   */\n      0x496e697469616c697a61626c653a20636f6e7472616374206973206e6f742069\n        /* \"#utility.yul\":18929:18930   */\n      0x00\n        /* \"#utility.yul\":18921:18927   */\n      dup3\n        /* \"#utility.yul\":18917:18931   */\n      add\n        /* \"#utility.yul\":18910:18968   */\n      mstore\n        /* \"#utility.yul\":19002:19015   */\n      0x6e697469616c697a696e67000000000000000000000000000000000000000000\n        /* \"#utility.yul\":18997:18999   */\n      0x20\n        /* \"#utility.yul\":18989:18995   */\n      dup3\n        /* \"#utility.yul\":18985:19000   */\n      add\n        /* \"#utility.yul\":18978:19016   */\n      mstore\n        /* \"#utility.yul\":18793:19023   */\n      pop\n      jump\t// out\n        /* \"#utility.yul\":19029:19395   */\n    tag_290:\n        /* \"#utility.yul\":19171:19174   */\n      0x00\n        /* \"#utility.yul\":19192:19259   */\n      tag_465\n        /* \"#utility.yul\":19256:19258   */\n      0x2b\n        /* \"#utility.yul\":19251:19254   */\n      dup4\n        /* \"#utility.yul\":19192:19259   */\n      tag_241\n      jump\t// in\n    tag_465:\n        /* \"#utility.yul\":19185:19259   */\n      swap2\n      pop\n        /* \"#utility.yul\":19268:19361   */\n      tag_466\n        /* \"#utility.yul\":19357:19360   */\n      dup3\n        /* \"#utility.yul\":19268:19361   */\n      tag_289\n      jump\t// in\n    tag_466:\n        /* \"#utility.yul\":19386:19388   */\n      0x40\n        /* \"#utility.yul\":19381:19384   */\n      dup3\n        /* \"#utility.yul\":19377:19389   */\n      add\n        /* \"#utility.yul\":19370:19389   */\n      swap1\n      pop\n        /* \"#utility.yul\":19029:19395   */\n      swap2\n      swap1\n      pop\n      jump\t// out\n        /* \"#utility.yul\":19401:19820   */\n    tag_215:\n        /* \"#utility.yul\":19567:19571   */\n      0x00\n        /* \"#utility.yul\":19605:19607   */\n      0x20\n        /* \"#utility.yul\":19594:19603   */\n      dup3\n        /* \"#utility.yul\":19590:19608   */\n      add\n        /* \"#utility.yul\":19582:19608   */\n      swap1\n      pop\n        /* \"#utility.yul\":19654:19663   */\n      dup2\n        /* \"#utility.yul\":19648:19652   */\n      dup2\n        /* \"#utility.yul\":19644:19664   */\n      sub\n        /* \"#utility.yul\":19640:19641   */\n      0x00\n        /* \"#utility.yul\":19629:19638   */\n      dup4\n        /* \"#utility.yul\":19625:19642   */\n      add\n        /* \"#utility.yul\":19618:19665   */\n      mstore\n        /* \"#utility.yul\":19682:19813   */\n      tag_468\n        /* \"#utility.yul\":19808:19812   */\n      dup2\n        /* \"#utility.yul\":19682:19813   */\n      tag_290\n      jump\t// in\n    tag_468:\n        /* \"#utility.yul\":19674:19813   */\n      swap1\n      pop\n        /* \"#utility.yul\":19401:19820   */\n      swap2\n      swap1\n      pop\n      jump\t// out\n        /* \"#utility.yul\":19826:20006   */\n    tag_291:\n        /* \"#utility.yul\":19874:19951   */\n      0x4e487b7100000000000000000000000000000000000000000000000000000000\n        /* \"#utility.yul\":19871:19872   */\n      0x00\n        /* \"#utility.yul\":19864:19952   */\n      mstore\n        /* \"#utility.yul\":19971:19975   */\n      0x41\n        /* \"#utility.yul\":19968:19969   */\n      0x04\n        /* \"#utility.yul\":19961:19976   */\n      mstore\n        /* \"#utility.yul\":19995:19999   */\n      0x24\n        /* \"#utility.yul\":19992:19993   */\n      0x00\n        /* \"#utility.yul\":19985:20000   */\n      revert\n        /* \"#utility.yul\":20012:20153   */\n    tag_292:\n        /* \"#utility.yul\":20061:20065   */\n      0x00\n        /* \"#utility.yul\":20084:20087   */\n      dup2\n        /* \"#utility.yul\":20076:20087   */\n      swap1\n      pop\n        /* \"#utility.yul\":20107:20110   */\n      dup2\n        /* \"#utility.yul\":20104:20105   */\n      0x00\n        /* \"#utility.yul\":20097:20111   */\n      mstore\n        /* \"#utility.yul\":20141:20145   */\n      0x20\n        /* \"#utility.yul\":20138:20139   */\n      0x00\n        /* \"#utility.yul\":20128:20146   */\n      keccak256\n        /* \"#utility.yul\":20120:20146   */\n      swap1\n      pop\n        /* \"#utility.yul\":20012:20153   */\n      swap2\n      swap1\n      pop\n      jump\t// out\n        /* \"#utility.yul\":20159:20252   */\n    tag_293:\n        /* \"#utility.yul\":20196:20202   */\n      0x00\n        /* \"#utility.yul\":20243:20245   */\n      0x20\n        /* \"#utility.yul\":20238:20240   */\n      0x1f\n        /* \"#utility.yul\":20231:20236   */\n      dup4\n        /* \"#utility.yul\":20227:20241   */\n      add\n        /* \"#utility.yul\":20223:20246   */\n      div\n        /* \"#utility.yul\":20213:20246   */\n      swap1\n      pop\n        /* \"#utility.yul\":20159:20252   */\n      swap2\n      swap1\n      pop\n      jump\t// out\n        /* \"#utility.yul\":20258:20365   */\n    tag_294:\n        /* \"#utility.yul\":20302:20310   */\n      0x00\n        /* \"#utility.yul\":20352:20357   */\n      dup3\n        /* \"#utility.yul\":20346:20350   */\n      dup3\n        /* \"#utility.yul\":20342:20358   */\n      shl\n        /* \"#utility.yul\":20321:20358   */\n      swap1\n      pop\n        /* \"#utility.yul\":20258:20365   */\n      swap3\n      swap2\n      pop\n      pop\n      jump\t// out\n        /* \"#utility.yul\":20371:20764   */\n    tag_295:\n        /* \"#utility.yul\":20440:20446   */\n      0x00\n        /* \"#utility.yul\":20490:20491   */\n      0x08\n        /* \"#utility.yul\":20478:20488   */\n      dup4\n        /* \"#utility.yul\":20474:20492   */\n      mul\n        /* \"#utility.yul\":20513:20610   */\n      tag_474\n        /* \"#utility.yul\":20543:20609   */\n      0xffffffffffffffffffffffffffffffffffffffffffffffffffffffffffffffff\n        /* \"#utility.yul\":20532:20541   */\n      dup3\n        /* \"#utility.yul\":20513:20610   */\n      tag_294\n      jump\t// in\n    tag_474:\n        /* \"#utility.yul\":20631:20670   */\n      tag_475\n        /* \"#utility.yul\":20661:20669   */\n      dup7\n        /* \"#utility.yul\":20650:20659   */\n      dup4\n        /* \"#utility.yul\":20631:20670   */\n      tag_294\n      jump\t// in\n    tag_475:\n        /* \"#utility.yul\":20619:20670   */\n      swap6\n      pop\n        /* \"#utility.yul\":20703:20707   */\n      dup1\n        /* \"#utility.yul\":20699:20708   */\n      not\n        /* \"#utility.yul\":20692:20697   */\n      dup5\n        /* \"#utility.yul\":20688:20709   */\n      and\n        /* \"#utility.yul\":20679:20709   */\n      swap4\n      pop\n        /* \"#utility.yul\":20752:20756   */\n      dup1\n        /* \"#utility.yul\":20742:20750   */\n      dup7\n        /* \"#utility.yul\":20738:20757   */\n      and\n        /* \"#utility.yul\":20731:20736   */\n      dup5\n        /* \"#utility.yul\":20728:20758   */\n      or\n        /* \"#utility.yul\":20718:20758   */\n      swap3\n      pop\n        /* \"#utility.yul\":20447:20764   */\n      pop\n      pop\n        /* \"#utility.yul\":20371:20764   */\n      swap4\n      swap3\n      pop\n      pop\n      pop\n      jump\t// out\n        /* \"#utility.yul\":20770:20912   */\n    tag_296:\n        /* \"#utility.yul\":20820:20829   */\n      0x00\n        /* \"#utility.yul\":20853:20906   */\n      tag_477\n        /* \"#utility.yul\":20871:20905   */\n      tag_478\n        /* \"#utility.yul\":20880:20904   */\n      tag_479\n        /* \"#utility.yul\":20898:20903   */\n      dup5\n        /* \"#utility.yul\":20880:20904   */\n      tag_252\n      jump\t// in\n    tag_479:\n        /* \"#utility.yul\":20871:20905   */\n      tag_266\n      jump\t// in\n    tag_478:\n        /* \"#utility.yul\":20853:20906   */\n      tag_252\n      jump\t// in\n    tag_477:\n        /* \"#utility.yul\":20840:20906   */\n      swap1\n      pop\n        /* \"#utility.yul\":20770:20912   */\n      swap2\n      swap1\n      pop\n      jump\t// out\n        /* \"#utility.yul\":20918:20993   */\n    tag_297:\n        /* \"#utility.yul\":20961:20964   */\n      0x00\n        /* \"#utility.yul\":20982:20987   */\n      dup2\n        /* \"#utility.yul\":20975:20987   */\n      swap1\n      pop\n        /* \"#utility.yul\":20918:20993   */\n      swap2\n      swap1\n      pop\n      jump\t// out\n        /* \"#utility.yul\":20999:21268   */\n    tag_298:\n        /* \"#utility.yul\":21109:21148   */\n      tag_482\n        /* \"#utility.yul\":21140:21147   */\n      dup4\n        /* \"#utility.yul\":21109:21148   */\n      tag_296\n      jump\t// in\n    tag_482:\n        /* \"#utility.yul\":21170:21261   */\n      tag_483\n        /* \"#utility.yul\":21219:21260   */\n      tag_484\n        /* \"#utility.yul\":21243:21259   */\n      dup3\n        /* \"#utility.yul\":21219:21260   */\n      tag_297\n      jump\t// in\n    tag_484:\n        /* \"#utility.yul\":21211:21217   */\n      dup5\n        /* \"#utility.yul\":21204:21208   */\n      dup5\n        /* \"#utility.yul\":21198:21209   */\n      sload\n        /* \"#utility.yul\":21170:21261   */\n      tag_295\n      jump\t// in\n    tag_483:\n        /* \"#utility.yul\":21164:21168   */\n      dup3\n        /* \"#utility.yul\":21157:21262   */\n      sstore\n        /* \"#utility.yul\":21075:21268   */\n      pop\n        /* \"#utility.yul\":20999:21268   */\n      pop\n      pop\n      pop\n      jump\t// out\n        /* \"#utility.yul\":21274:21347   */\n    tag_299:\n        /* \"#utility.yul\":21319:21322   */\n      0x00\n        /* \"#utility.yul\":21274:21347   */\n      swap1\n      jump\t// out\n        /* \"#utility.yul\":21353:21542   */\n    tag_300:\n        /* \"#utility.yul\":21430:21462   */\n      tag_487\n      tag_299\n      jump\t// in\n    tag_487:\n        /* \"#utility.yul\":21471:21536   */\n      tag_488\n        /* \"#utility.yul\":21529:21535   */\n      dup2\n        /* \"#utility.yul\":21521:21527   */\n      dup5\n        /* \"#utility.yul\":21515:21519   */\n      dup5\n        /* \"#utility.yul\":21471:21536   */\n      tag_298\n      jump\t// in\n    tag_488:\n        /* \"#utility.yul\":21406:21542   */\n      pop\n        /* \"#utility.yul\":21353:21542   */\n      pop\n      pop\n      jump\t// out\n        /* \"#utility.yul\":21548:21734   */\n    tag_301:\n        /* \"#utility.yul\":21608:21728   */\n    tag_490:\n        /* \"#utility.yul\":21625:21628   */\n      dup2\n        /* \"#utility.yul\":21618:21623   */\n      dup2\n        /* \"#utility.yul\":21615:21629   */\n      lt\n        /* \"#utility.yul\":21608:21728   */\n      iszero\n      tag_492\n      jumpi\n        /* \"#utility.yul\":21679:21718   */\n      tag_493\n        /* \"#utility.yul\":21716:21717   */\n      0x00\n        /* \"#utility.yul\":21709:21714   */\n      dup3\n        /* \"#utility.yul\":21679:21718   */\n      tag_300\n      jump\t// in\n    tag_493:\n        /* \"#utility.yul\":21652:21653   */\n      0x01\n        /* \"#utility.yul\":21645:21650   */\n      dup2\n        /* \"#utility.yul\":21641:21654   */\n      add\n        /* \"#utility.yul\":21632:21654   */\n      swap1\n      pop\n        /* \"#utility.yul\":21608:21728   */\n      jump(tag_490)\n    tag_492:\n        /* \"#utility.yul\":21548:21734   */\n      pop\n      pop\n      jump\t// out\n        /* \"#utility.yul\":21740:22283   */\n    tag_302:\n        /* \"#utility.yul\":21841:21843   */\n      0x1f\n        /* \"#utility.yul\":21836:21839   */\n      dup3\n        /* \"#utility.yul\":21833:21844   */\n      gt\n        /* \"#utility.yul\":21830:22276   */\n      iszero\n      tag_495\n      jumpi\n        /* \"#utility.yul\":21875:21913   */\n      tag_496\n        /* \"#utility.yul\":21907:21912   */\n      dup2\n        /* \"#utility.yul\":21875:21913   */\n      tag_292\n      jump\t// in\n    tag_496:\n        /* \"#utility.yul\":21959:21988   */\n      tag_497\n        /* \"#utility.yul\":21977:21987   */\n      dup5\n        /* \"#utility.yul\":21959:21988   */\n      tag_293\n      jump\t// in\n    tag_497:\n        /* \"#utility.yul\":21949:21957   */\n      dup2\n        /* \"#utility.yul\":21945:21989   */\n      add\n        /* \"#utility.yul\":22142:22144   */\n      0x20\n        /* \"#utility.yul\":22130:22140   */\n      dup6\n        /* \"#utility.yul\":22127:22145   */\n      lt\n        /* \"#utility.yul\":22124:22173   */\n      iszero\n      tag_498\n      jumpi\n        /* \"#utility.yul\":22163:22171   */\n      dup2\n        /* \"#utility.yul\":22148:22171   */\n      swap1\n      pop\n        /* \"#utility.yul\":22124:22173   */\n    tag_498:\n        /* \"#utility.yul\":22186:22266   */\n      tag_499\n        /* \"#utility.yul\":22242:22264   */\n      tag_500\n        /* \"#utility.yul\":22260:22263   */\n      dup6\n        /* \"#utility.yul\":22242:22264   */\n      tag_293\n      jump\t// in\n    tag_500:\n        /* \"#utility.yul\":22232:22240   */\n      dup4\n        /* \"#utility.yul\":22228:22265   */\n      add\n        /* \"#utility.yul\":22215:22226   */\n      dup3\n        /* \"#utility.yul\":22186:22266   */\n      tag_301\n      jump\t// in\n    tag_499:\n        /* \"#utility.yul\":21845:22276   */\n      pop\n      pop\n        /* \"#utility.yul\":21830:22276   */\n    tag_495:\n        /* \"#utility.yul\":21740:22283   */\n      pop\n      pop\n      pop\n      jump\t// out\n        /* \"#utility.yul\":22289:22406   */\n    tag_303:\n        /* \"#utility.yul\":22343:22351   */\n      0x00\n        /* \"#utility.yul\":22393:22398   */\n      dup3\n        /* \"#utility.yul\":22387:22391   */\n      dup3\n        /* \"#utility.yul\":22383:22399   */\n      shr\n        /* \"#utility.yul\":22362:22399   */\n      swap1\n      pop\n        /* \"#utility.yul\":22289:22406   */\n      swap3\n      swap2\n      pop\n      pop\n      jump\t// out\n        /* \"#utility.yul\":22412:22581   */\n    tag_304:\n        /* \"#utility.yul\":22456:22462   */\n      0x00\n        /* \"#utility.yul\":22489:22540   */\n      tag_503\n        /* \"#utility.yul\":22537:22538   */\n      0x00\n        /* \"#utility.yul\":22533:22539   */\n      not\n        /* \"#utility.yul\":22525:22530   */\n      dup5\n        /* \"#utility.yul\":22522:22523   */\n      0x08\n        /* \"#utility.yul\":22518:22531   */\n      mul\n        /* \"#utility.yul\":22489:22540   */\n      tag_303\n      jump\t// in\n    tag_503:\n        /* \"#utility.yul\":22485:22541   */\n      not\n        /* \"#utility.yul\":22570:22574   */\n      dup1\n        /* \"#utility.yul\":22564:22568   */\n      dup4\n        /* \"#utility.yul\":22560:22575   */\n      and\n        /* \"#utility.yul\":22550:22575   */\n      swap2\n      pop\n        /* \"#utility.yul\":22463:22581   */\n      pop\n        /* \"#utility.yul\":22412:22581   */\n      swap3\n      swap2\n      pop\n      pop\n      jump\t// out\n        /* \"#utility.yul\":22586:22881   */\n    tag_305:\n        /* \"#utility.yul\":22662:22666   */\n      0x00\n        /* \"#utility.yul\":22808:22837   */\n      tag_505\n        /* \"#utility.yul\":22833:22836   */\n      dup4\n        /* \"#utility.yul\":22827:22831   */\n      dup4\n        /* \"#utility.yul\":22808:22837   */\n      tag_304\n      jump\t// in\n    tag_505:\n        /* \"#utility.yul\":22800:22837   */\n      swap2\n      pop\n        /* \"#utility.yul\":22870:22873   */\n      dup3\n        /* \"#utility.yul\":22867:22868   */\n      0x02\n        /* \"#utility.yul\":22863:22874   */\n      mul\n        /* \"#utility.yul\":22857:22861   */\n      dup3\n        /* \"#utility.yul\":22854:22875   */\n      or\n        /* \"#utility.yul\":22846:22875   */\n      swap1\n      pop\n        /* \"#utility.yul\":22586:22881   */\n      swap3\n      swap2\n      pop\n      pop\n      jump\t// out\n        /* \"#utility.yul\":22886:24281   */\n    tag_232:\n        /* \"#utility.yul\":23003:23040   */\n      tag_507\n        /* \"#utility.yul\":23036:23039   */\n      dup3\n        /* \"#utility.yul\":23003:23040   */\n      tag_240\n      jump\t// in\n    tag_507:\n        /* \"#utility.yul\":23105:23123   */\n      0xffffffffffffffff\n        /* \"#utility.yul\":23097:23103   */\n      dup2\n        /* \"#utility.yul\":23094:23124   */\n      gt\n        /* \"#utility.yul\":23091:23147   */\n      iszero\n      tag_508\n      jumpi\n        /* \"#utility.yul\":23127:23145   */\n      tag_509\n      tag_291\n      jump\t// in\n    tag_509:\n        /* \"#utility.yul\":23091:23147   */\n    tag_508:\n        /* \"#utility.yul\":23171:23209   */\n      tag_510\n        /* \"#utility.yul\":23203:23207   */\n      dup3\n        /* \"#utility.yul\":23197:23208   */\n      sload\n        /* \"#utility.yul\":23171:23209   */\n      tag_86\n      jump\t// in\n    tag_510:\n        /* \"#utility.yul\":23256:23323   */\n      tag_511\n        /* \"#utility.yul\":23316:23322   */\n      dup3\n        /* \"#utility.yul\":23308:23314   */\n      dup3\n        /* \"#utility.yul\":23302:23306   */\n      dup6\n        /* \"#utility.yul\":23256:23323   */\n      tag_302\n      jump\t// in\n    tag_511:\n        /* \"#utility.yul\":23350:23351   */\n      0x00\n        /* \"#utility.yul\":23374:23378   */\n      0x20\n        /* \"#utility.yul\":23361:23378   */\n      swap1\n      pop\n        /* \"#utility.yul\":23406:23408   */\n      0x1f\n        /* \"#utility.yul\":23398:23404   */\n      dup4\n        /* \"#utility.yul\":23395:23409   */\n      gt\n        /* \"#utility.yul\":23423:23424   */\n      0x01\n        /* \"#utility.yul\":23418:24036   */\n      dup2\n      eq\n      tag_513\n      jumpi\n        /* \"#utility.yul\":24080:24081   */\n      0x00\n        /* \"#utility.yul\":24097:24103   */\n      dup5\n        /* \"#utility.yul\":24094:24171   */\n      iszero\n      tag_514\n      jumpi\n        /* \"#utility.yul\":24146:24155   */\n      dup3\n        /* \"#utility.yul\":24141:24144   */\n      dup8\n        /* \"#utility.yul\":24137:24156   */\n      add\n        /* \"#utility.yul\":24131:24157   */\n      mload\n        /* \"#utility.yul\":24122:24157   */\n      swap1\n      pop\n        /* \"#utility.yul\":24094:24171   */\n    tag_514:\n        /* \"#utility.yul\":24197:24264   */\n      tag_515\n        /* \"#utility.yul\":24257:24263   */\n      dup6\n        /* \"#utility.yul\":24250:24255   */\n      dup3\n        /* \"#utility.yul\":24197:24264   */\n      tag_305\n      jump\t// in\n    tag_515:\n        /* \"#utility.yul\":24191:24195   */\n      dup7\n        /* \"#utility.yul\":24184:24265   */\n      sstore\n        /* \"#utility.yul\":24053:24275   */\n      pop\n        /* \"#utility.yul\":23388:24275   */\n      jump(tag_512)\n        /* \"#utility.yul\":23418:24036   */\n    tag_513:\n        /* \"#utility.yul\":23470:23474   */\n      0x1f\n        /* \"#utility.yul\":23466:23475   */\n      not\n        /* \"#utility.yul\":23458:23464   */\n      dup5\n        /* \"#utility.yul\":23454:23476   */\n      and\n        /* \"#utility.yul\":23504:23541   */\n      tag_516\n        /* \"#utility.yul\":23536:23540   */\n      dup7\n        /* \"#utility.yul\":23504:23541   */\n      tag_292\n      jump\t// in\n    tag_516:\n        /* \"#utility.yul\":23563:23564   */\n      0x00\n        /* \"#utility.yul\":23577:23785   */\n    tag_517:\n        /* \"#utility.yul\":23591:23598   */\n      dup3\n        /* \"#utility.yul\":23588:23589   */\n      dup2\n        /* \"#utility.yul\":23585:23599   */\n      lt\n        /* \"#utility.yul\":23577:23785   */\n      iszero\n      tag_519\n      jumpi\n        /* \"#utility.yul\":23670:23679   */\n      dup5\n        /* \"#utility.yul\":23665:23668   */\n      dup10\n        /* \"#utility.yul\":23661:23680   */\n      add\n        /* \"#utility.yul\":23655:23681   */\n      mload\n        /* \"#utility.yul\":23647:23653   */\n      dup3\n        /* \"#utility.yul\":23640:23682   */\n      sstore\n        /* \"#utility.yul\":23721:23722   */\n      0x01\n        /* \"#utility.yul\":23713:23719   */\n      dup3\n        /* \"#utility.yul\":23709:23723   */\n      add\n        /* \"#utility.yul\":23699:23723   */\n      swap2\n      pop\n        /* \"#utility.yul\":23768:23770   */\n      0x20\n        /* \"#utility.yul\":23757:23766   */\n      dup6\n        /* \"#utility.yul\":23753:23771   */\n      add\n        /* \"#utility.yul\":23740:23771   */\n      swap5\n      pop\n        /* \"#utility.yul\":23614:23618   */\n      0x20\n        /* \"#utility.yul\":23611:23612   */\n      dup2\n        /* \"#utility.yul\":23607:23619   */\n      add\n        /* \"#utility.yul\":23602:23619   */\n      swap1\n      pop\n        /* \"#utility.yul\":23577:23785   */\n      jump(tag_517)\n    tag_519:\n        /* \"#utility.yul\":23813:23819   */\n      dup7\n        /* \"#utility.yul\":23804:23811   */\n      dup4\n        /* \"#utility.yul\":23801:23820   */\n      lt\n        /* \"#utility.yul\":23798:23977   */\n      iszero\n      tag_520\n      jumpi\n        /* \"#utility.yul\":23871:23880   */\n      dup5\n        /* \"#utility.yul\":23866:23869   */\n      dup10\n        /* \"#utility.yul\":23862:23881   */\n      add\n        /* \"#utility.yul\":23856:23882   */\n      mload\n        /* \"#utility.yul\":23914:23962   */\n      tag_521\n        /* \"#utility.yul\":23956:23960   */\n      0x1f\n        /* \"#utility.yul\":23948:23954   */\n      dup10\n        /* \"#utility.yul\":23944:23961   */\n      and\n        /* \"#utility.yul\":23933:23942   */\n      dup3\n        /* \"#utility.yul\":23914:23962   */\n      tag_304\n      jump\t// in\n    tag_521:\n        /* \"#utility.yul\":23906:23912   */\n      dup4\n        /* \"#utility.yul\":23899:23963   */\n      sstore\n        /* \"#utility.yul\":23821:23977   */\n      pop\n        /* \"#utility.yul\":23798:23977   */\n    tag_520:\n        /* \"#utility.yul\":24023:24024   */\n      0x01\n        /* \"#utility.yul\":24019:24020   */\n      0x02\n        /* \"#utility.yul\":24011:24017   */\n      dup9\n        /* \"#utility.yul\":24007:24021   */\n      mul\n        /* \"#utility.yul\":24003:24025   */\n      add\n        /* \"#utility.yul\":23997:24001   */\n      dup9\n        /* \"#utility.yul\":23990:24026   */\n      sstore\n        /* \"#utility.yul\":23425:24036   */\n      pop\n      pop\n      pop\n        /* \"#utility.yul\":23388:24275   */\n    tag_512:\n      pop\n        /* \"#utility.yul\":22978:24281   */\n      pop\n      pop\n      pop\n        /* \"#utility.yul\":22886:24281   */\n      pop\n      pop\n      jump\t// out\n\n    auxdata: 0xa264697066735822122020ec4329d5d8ce93c2c664419a3fb8634a4ae62c0122e419ec0785cdc07c4e3d64736f6c63430008120033\n}\n",
				"bytecode": {
					"linkReferences": {},
					"object": "60806040523480156200001157600080fd5b50620000226200002860201b60201c565b620001d3565b600060019054906101000a900460ff16156200007b576040517f08c379a0000000000000000000000000000000000000000000000000000000008152600401620000729062000176565b60405180910390fd5b60ff801660008054906101000a900460ff1660ff161015620000ed5760ff6000806101000a81548160ff021916908360ff1602179055507f7f26b83ff96e1f2b6a682f133852f6798a09c465da95921460cefb384740249860ff604051620000e49190620001b6565b60405180910390a15b565b600082825260208201905092915050565b7f496e697469616c697a61626c653a20636f6e747261637420697320696e69746960008201527f616c697a696e6700000000000000000000000000000000000000000000000000602082015250565b60006200015e602783620000ef565b91506200016b8262000100565b604082019050919050565b6000602082019050818103600083015262000191816200014f565b9050919050565b600060ff82169050919050565b620001b08162000198565b82525050565b6000602082019050620001cd6000830184620001a5565b92915050565b611f8080620001e36000396000f3fe608060405234801561001057600080fd5b50600436106101005760003560e01c8063715018a611610097578063a457c2d711610066578063a457c2d71461028b578063a9059cbb146102bb578063dd62ed3e146102eb578063f2fde38b1461031b57610100565b8063715018a61461023b5780638129fc1c146102455780638da5cb5b1461024f57806395d89b411461026d57610100565b8063313ce567116100d3578063313ce567146101a157806339509351146101bf57806340c10f19146101ef57806370a082311461020b57610100565b806306fdde0314610105578063095ea7b31461012357806318160ddd1461015357806323b872dd14610171575b600080fd5b61010d610337565b60405161011a91906112a2565b60405180910390f35b61013d6004803603810190610138919061135d565b6103c9565b60405161014a91906113b8565b60405180910390f35b61015b6103ec565b60405161016891906113e2565b60405180910390f35b61018b600480360381019061018691906113fd565b6103f6565b60405161019891906113b8565b60405180910390f35b6101a9610425565b6040516101b6919061146c565b60405180910390f35b6101d960048036038101906101d4919061135d565b61042e565b6040516101e691906113b8565b60405180910390f35b6102096004803603810190610204919061135d565b610465565b005b61022560048036038101906102209190611487565b61047b565b60405161023291906113e2565b60405180910390f35b6102436104c4565b005b61024d6104d8565b005b61025761068a565b60405161026491906114c3565b60405180910390f35b6102756106b4565b60405161028291906112a2565b60405180910390f35b6102a560048036038101906102a0919061135d565b610746565b6040516102b291906113b8565b60405180910390f35b6102d560048036038101906102d0919061135d565b6107bd565b6040516102e291906113b8565b60405180910390f35b610305600480360381019061030091906114de565b6107e0565b60405161031291906113e2565b60405180910390f35b61033560048036038101906103309190611487565b610867565b005b6060603680546103469061154d565b80601f01602080910402602001604051908101604052809291908181526020018280546103729061154d565b80156103bf5780601f10610394576101008083540402835291602001916103bf565b820191906000526020600020905b8154815290600101906020018083116103a257829003601f168201915b5050505050905090565b6000806103d46108ea565b90506103e18185856108f2565b600191505092915050565b6000603554905090565b6000806104016108ea565b905061040e858285610abb565b610419858585610b47565b60019150509392505050565b60006012905090565b6000806104396108ea565b905061045a81858561044b85896107e0565b61045591906115ad565b6108f2565b600191505092915050565b61046d610dc0565b6104778282610e3e565b5050565b6000603360008373ffffffffffffffffffffffffffffffffffffffff1673ffffffffffffffffffffffffffffffffffffffff168152602001908152602001600020549050919050565b6104cc610dc0565b6104d66000610f95565b565b60008060019054906101000a900460ff161590508080156105095750600160008054906101000a900460ff1660ff16105b8061053657506105183061105b565b1580156105355750600160008054906101000a900460ff1660ff16145b5b610575576040517f08c379a000000000000000000000000000000000000000000000000000000000815260040161056c90611653565b60405180910390fd5b60016000806101000a81548160ff021916908360ff16021790555080156105b2576001600060016101000a81548160ff0219169083151502179055505b6106266040518060400160405280600981526020017f4865726f546f6b656e00000000000000000000000000000000000000000000008152506040518060400160405280600381526020017f48544b000000000000000000000000000000000000000000000000000000000081525061107e565b61062e6110db565b80156106875760008060016101000a81548160ff0219169083151502179055507f7f26b83ff96e1f2b6a682f133852f6798a09c465da95921460cefb3847402498600160405161067e91906116b8565b60405180910390a15b50565b6000606560009054906101000a900473ffffffffffffffffffffffffffffffffffffffff16905090565b6060603780546106c39061154d565b80601f01602080910402602001604051908101604052809291908181526020018280546106ef9061154d565b801561073c5780601f106107115761010080835404028352916020019161073c565b820191906000526020600020905b81548152906001019060200180831161071f57829003601f168201915b5050505050905090565b6000806107516108ea565b9050600061075f82866107e0565b9050838110156107a4576040517f08c379a000000000000000000000000000000000000000000000000000000000815260040161079b90611745565b60405180910390fd5b6107b182868684036108f2565b60019250505092915050565b6000806107c86108ea565b90506107d5818585610b47565b600191505092915050565b6000603460008473ffffffffffffffffffffffffffffffffffffffff1673ffffffffffffffffffffffffffffffffffffffff16815260200190815260200160002060008373ffffffffffffffffffffffffffffffffffffffff1673ffffffffffffffffffffffffffffffffffffffff16815260200190815260200160002054905092915050565b61086f610dc0565b600073ffffffffffffffffffffffffffffffffffffffff168173ffffffffffffffffffffffffffffffffffffffff16036108de576040517f08c379a00000000000000000000000000000000000000000000000000000000081526004016108d5906117d7565b60405180910390fd5b6108e781610f95565b50565b600033905090565b600073ffffffffffffffffffffffffffffffffffffffff168373ffffffffffffffffffffffffffffffffffffffff1603610961576040517f08c379a000000000000000000000000000000000000000000000000000000000815260040161095890611869565b60405180910390fd5b600073ffffffffffffffffffffffffffffffffffffffff168273ffffffffffffffffffffffffffffffffffffffff16036109d0576040517f08c379a00000000000000000000000000000000000000000000000000000000081526004016109c7906118fb565b60405180910390fd5b80603460008573ffffffffffffffffffffffffffffffffffffffff1673ffffffffffffffffffffffffffffffffffffffff16815260200190815260200160002060008473ffffffffffffffffffffffffffffffffffffffff1673ffffffffffffffffffffffffffffffffffffffff168152602001908152602001600020819055508173ffffffffffffffffffffffffffffffffffffffff168373ffffffffffffffffffffffffffffffffffffffff167f8c5be1e5ebec7d5bd14f71427d1e84f3dd0314c0f7b2291e5b200ac8c7c3b92583604051610aae91906113e2565b60405180910390a3505050565b6000610ac784846107e0565b90507fffffffffffffffffffffffffffffffffffffffffffffffffffffffffffffffff8114610b415781811015610b33576040517f08c379a0000000000000000000000000000000000000000000000000000000008152600401610b2a90611967565b60405180910390fd5b610b4084848484036108f2565b5b50505050565b600073ffffffffffffffffffffffffffffffffffffffff168373ffffffffffffffffffffffffffffffffffffffff1603610bb6576040517f08c379a0000000000000000000000000000000000000000000000000000000008152600401610bad906119f9565b60405180910390fd5b600073ffffffffffffffffffffffffffffffffffffffff168273ffffffffffffffffffffffffffffffffffffffff1603610c25576040517f08c379a0000000000000000000000000000000000000000000000000000000008152600401610c1c90611a8b565b60405180910390fd5b610c30838383611134565b6000603360008573ffffffffffffffffffffffffffffffffffffffff1673ffffffffffffffffffffffffffffffffffffffff16815260200190815260200160002054905081811015610cb7576040517f08c379a0000000000000000000000000000000000000000000000000000000008152600401610cae90611b1d565b60405180910390fd5b818103603360008673ffffffffffffffffffffffffffffffffffffffff1673ffffffffffffffffffffffffffffffffffffffff1681526020019081526020016000208190555081603360008573ffffffffffffffffffffffffffffffffffffffff1673ffffffffffffffffffffffffffffffffffffffff168152602001908152602001600020600082825401925050819055508273ffffffffffffffffffffffffffffffffffffffff168473ffffffffffffffffffffffffffffffffffffffff167fddf252ad1be2c89b69c2b068fc378daa952ba7f163c4a11628f55a4df523b3ef84604051610da791906113e2565b60405180910390a3610dba848484611139565b50505050565b610dc86108ea565b73ffffffffffffffffffffffffffffffffffffffff16610de661068a565b73ffffffffffffffffffffffffffffffffffffffff1614610e3c576040517f08c379a0000000000000000000000000000000000000000000000000000000008152600401610e3390611b89565b60405180910390fd5b565b600073ffffffffffffffffffffffffffffffffffffffff168273ffffffffffffffffffffffffffffffffffffffff1603610ead576040517f08c379a0000000000000000000000000000000000000000000000000000000008152600401610ea490611bf5565b60405180910390fd5b610eb960008383611134565b8060356000828254610ecb91906115ad565b9250508190555080603360008473ffffffffffffffffffffffffffffffffffffffff1673ffffffffffffffffffffffffffffffffffffffff168152602001908152602001600020600082825401925050819055508173ffffffffffffffffffffffffffffffffffffffff16600073ffffffffffffffffffffffffffffffffffffffff167fddf252ad1be2c89b69c2b068fc378daa952ba7f163c4a11628f55a4df523b3ef83604051610f7d91906113e2565b60405180910390a3610f9160008383611139565b5050565b6000606560009054906101000a900473ffffffffffffffffffffffffffffffffffffffff16905081606560006101000a81548173ffffffffffffffffffffffffffffffffffffffff021916908373ffffffffffffffffffffffffffffffffffffffff1602179055508173ffffffffffffffffffffffffffffffffffffffff168173ffffffffffffffffffffffffffffffffffffffff167f8be0079c531659141344cd1fd0a4f28419497f9722a3daafe3b4186f6b6457e060405160405180910390a35050565b6000808273ffffffffffffffffffffffffffffffffffffffff163b119050919050565b600060019054906101000a900460ff166110cd576040517f08c379a00000000000000000000000000000000000000000000000000000000081526004016110c490611c87565b60405180910390fd5b6110d7828261113e565b5050565b600060019054906101000a900460ff1661112a576040517f08c379a000000000000000000000000000000000000000000000000000000000815260040161112190611c87565b60405180910390fd5b6111326111b1565b565b505050565b505050565b600060019054906101000a900460ff1661118d576040517f08c379a000000000000000000000000000000000000000000000000000000000815260040161118490611c87565b60405180910390fd5b816036908161119c9190611e78565b5080603790816111ac9190611e78565b505050565b600060019054906101000a900460ff16611200576040517f08c379a00000000000000000000000000000000000000000000000000000000081526004016111f790611c87565b60405180910390fd5b61121061120b6108ea565b610f95565b565b600081519050919050565b600082825260208201905092915050565b60005b8381101561124c578082015181840152602081019050611231565b60008484015250505050565b6000601f19601f8301169050919050565b600061127482611212565b61127e818561121d565b935061128e81856020860161122e565b61129781611258565b840191505092915050565b600060208201905081810360008301526112bc8184611269565b905092915050565b600080fd5b600073ffffffffffffffffffffffffffffffffffffffff82169050919050565b60006112f4826112c9565b9050919050565b611304816112e9565b811461130f57600080fd5b50565b600081359050611321816112fb565b92915050565b6000819050919050565b61133a81611327565b811461134557600080fd5b50565b60008135905061135781611331565b92915050565b60008060408385031215611374576113736112c4565b5b600061138285828601611312565b925050602061139385828601611348565b9150509250929050565b60008115159050919050565b6113b28161139d565b82525050565b60006020820190506113cd60008301846113a9565b92915050565b6113dc81611327565b82525050565b60006020820190506113f760008301846113d3565b92915050565b600080600060608486031215611416576114156112c4565b5b600061142486828701611312565b935050602061143586828701611312565b925050604061144686828701611348565b9150509250925092565b600060ff82169050919050565b61146681611450565b82525050565b6000602082019050611481600083018461145d565b92915050565b60006020828403121561149d5761149c6112c4565b5b60006114ab84828501611312565b91505092915050565b6114bd816112e9565b82525050565b60006020820190506114d860008301846114b4565b92915050565b600080604083850312156114f5576114f46112c4565b5b600061150385828601611312565b925050602061151485828601611312565b9150509250929050565b7f4e487b7100000000000000000000000000000000000000000000000000000000600052602260045260246000fd5b6000600282049050600182168061156557607f821691505b6020821081036115785761157761151e565b5b50919050565b7f4e487b7100000000000000000000000000000000000000000000000000000000600052601160045260246000fd5b60006115b882611327565b91506115c383611327565b92508282019050808211156115db576115da61157e565b5b92915050565b7f496e697469616c697a61626c653a20636f6e747261637420697320616c72656160008201527f647920696e697469616c697a6564000000000000000000000000000000000000602082015250565b600061163d602e8361121d565b9150611648826115e1565b604082019050919050565b6000602082019050818103600083015261166c81611630565b9050919050565b6000819050919050565b6000819050919050565b60006116a261169d61169884611673565b61167d565b611450565b9050919050565b6116b281611687565b82525050565b60006020820190506116cd60008301846116a9565b92915050565b7f45524332303a2064656372656173656420616c6c6f77616e63652062656c6f7760008201527f207a65726f000000000000000000000000000000000000000000000000000000602082015250565b600061172f60258361121d565b915061173a826116d3565b604082019050919050565b6000602082019050818103600083015261175e81611722565b9050919050565b7f4f776e61626c653a206e6577206f776e657220697320746865207a65726f206160008201527f6464726573730000000000000000000000000000000000000000000000000000602082015250565b60006117c160268361121d565b91506117cc82611765565b604082019050919050565b600060208201905081810360008301526117f0816117b4565b9050919050565b7f45524332303a20617070726f76652066726f6d20746865207a65726f2061646460008201527f7265737300000000000000000000000000000000000000000000000000000000602082015250565b600061185360248361121d565b915061185e826117f7565b604082019050919050565b6000602082019050818103600083015261188281611846565b9050919050565b7f45524332303a20617070726f766520746f20746865207a65726f20616464726560008201527f7373000000000000000000000000000000000000000000000000000000000000602082015250565b60006118e560228361121d565b91506118f082611889565b604082019050919050565b60006020820190508181036000830152611914816118d8565b9050919050565b7f45524332303a20696e73756666696369656e7420616c6c6f77616e6365000000600082015250565b6000611951601d8361121d565b915061195c8261191b565b602082019050919050565b6000602082019050818103600083015261198081611944565b9050919050565b7f45524332303a207472616e736665722066726f6d20746865207a65726f20616460008201527f6472657373000000000000000000000000000000000000000000000000000000602082015250565b60006119e360258361121d565b91506119ee82611987565b604082019050919050565b60006020820190508181036000830152611a12816119d6565b9050919050565b7f45524332303a207472616e7366657220746f20746865207a65726f206164647260008201527f6573730000000000000000000000000000000000000000000000000000000000602082015250565b6000611a7560238361121d565b9150611a8082611a19565b604082019050919050565b60006020820190508181036000830152611aa481611a68565b9050919050565b7f45524332303a207472616e7366657220616d6f756e742065786365656473206260008201527f616c616e63650000000000000000000000000000000000000000000000000000602082015250565b6000611b0760268361121d565b9150611b1282611aab565b604082019050919050565b60006020820190508181036000830152611b3681611afa565b9050919050565b7f4f776e61626c653a2063616c6c6572206973206e6f7420746865206f776e6572600082015250565b6000611b7360208361121d565b9150611b7e82611b3d565b602082019050919050565b60006020820190508181036000830152611ba281611b66565b9050919050565b7f45524332303a206d696e7420746f20746865207a65726f206164647265737300600082015250565b6000611bdf601f8361121d565b9150611bea82611ba9565b602082019050919050565b60006020820190508181036000830152611c0e81611bd2565b9050919050565b7f496e697469616c697a61626c653a20636f6e7472616374206973206e6f74206960008201527f6e697469616c697a696e67000000000000000000000000000000000000000000602082015250565b6000611c71602b8361121d565b9150611c7c82611c15565b604082019050919050565b60006020820190508181036000830152611ca081611c64565b9050919050565b7f4e487b7100000000000000000000000000000000000000000000000000000000600052604160045260246000fd5b60008190508160005260206000209050919050565b60006020601f8301049050919050565b600082821b905092915050565b600060088302611d387fffffffffffffffffffffffffffffffffffffffffffffffffffffffffffffffff82611cfb565b611d428683611cfb565b95508019841693508086168417925050509392505050565b6000611d75611d70611d6b84611327565b61167d565b611327565b9050919050565b6000819050919050565b611d8f83611d5a565b611da3611d9b82611d7c565b848454611d08565b825550505050565b600090565b611db8611dab565b611dc3818484611d86565b505050565b5b81811015611de757611ddc600082611db0565b600181019050611dc9565b5050565b601f821115611e2c57611dfd81611cd6565b611e0684611ceb565b81016020851015611e15578190505b611e29611e2185611ceb565b830182611dc8565b50505b505050565b600082821c905092915050565b6000611e4f60001984600802611e31565b1980831691505092915050565b6000611e688383611e3e565b9150826002028217905092915050565b611e8182611212565b67ffffffffffffffff811115611e9a57611e99611ca7565b5b611ea4825461154d565b611eaf828285611deb565b600060209050601f831160018114611ee25760008415611ed0578287015190505b611eda8582611e5c565b865550611f42565b601f198416611ef086611cd6565b60005b82811015611f1857848901518255600182019150602085019450602081019050611ef3565b86831015611f355784890151611f31601f891682611e3e565b8355505b6001600288020188555050505b50505050505056fea264697066735822122020ec4329d5d8ce93c2c664419a3fb8634a4ae62c0122e419ec0785cdc07c4e3d64736f6c63430008120033",
					"opcodes": "PUSH1 0x80 PUSH1 0x40 MSTORE CALLVALUE DUP1 ISZERO PUSH3 0x11 JUMPI PUSH1 0x0 DUP1 REVERT JUMPDEST POP PUSH3 0x22 PUSH3 0x28 PUSH1 0x20 SHL PUSH1 0x20 SHR JUMP JUMPDEST PUSH3 0x1D3 JUMP JUMPDEST PUSH1 0x0 PUSH1 0x1 SWAP1 SLOAD SWAP1 PUSH2 0x100 EXP SWAP1 DIV PUSH1 0xFF AND ISZERO PUSH3 0x7B JUMPI PUSH1 0x40 MLOAD PUSH32 0x8C379A000000000000000000000000000000000000000000000000000000000 DUP2 MSTORE PUSH1 0x4 ADD PUSH3 0x72 SWAP1 PUSH3 0x176 JUMP JUMPDEST PUSH1 0x40 MLOAD DUP1 SWAP2 SUB SWAP1 REVERT JUMPDEST PUSH1 0xFF DUP1 AND PUSH1 0x0 DUP1 SLOAD SWAP1 PUSH2 0x100 EXP SWAP1 DIV PUSH1 0xFF AND PUSH1 0xFF AND LT ISZERO PUSH3 0xED JUMPI PUSH1 0xFF PUSH1 0x0 DUP1 PUSH2 0x100 EXP DUP2 SLOAD DUP2 PUSH1 0xFF MUL NOT AND SWAP1 DUP4 PUSH1 0xFF AND MUL OR SWAP1 SSTORE POP PUSH32 0x7F26B83FF96E1F2B6A682F133852F6798A09C465DA95921460CEFB3847402498 PUSH1 0xFF PUSH1 0x40 MLOAD PUSH3 0xE4 SWAP2 SWAP1 PUSH3 0x1B6 JUMP JUMPDEST PUSH1 0x40 MLOAD DUP1 SWAP2 SUB SWAP1 LOG1 JUMPDEST JUMP JUMPDEST PUSH1 0x0 DUP3 DUP3 MSTORE PUSH1 0x20 DUP3 ADD SWAP1 POP SWAP3 SWAP2 POP POP JUMP JUMPDEST PUSH32 0x496E697469616C697A61626C653A20636F6E747261637420697320696E697469 PUSH1 0x0 DUP3 ADD MSTORE PUSH32 0x616C697A696E6700000000000000000000000000000000000000000000000000 PUSH1 0x20 DUP3 ADD MSTORE POP JUMP JUMPDEST PUSH1 0x0 PUSH3 0x15E PUSH1 0x27 DUP4 PUSH3 0xEF JUMP JUMPDEST SWAP2 POP PUSH3 0x16B DUP3 PUSH3 0x100 JUMP JUMPDEST PUSH1 0x40 DUP3 ADD SWAP1 POP SWAP2 SWAP1 POP JUMP JUMPDEST PUSH1 0x0 PUSH1 0x20 DUP3 ADD SWAP1 POP DUP2 DUP2 SUB PUSH1 0x0 DUP4 ADD MSTORE PUSH3 0x191 DUP2 PUSH3 0x14F JUMP JUMPDEST SWAP1 POP SWAP2 SWAP1 POP JUMP JUMPDEST PUSH1 0x0 PUSH1 0xFF DUP3 AND SWAP1 POP SWAP2 SWAP1 POP JUMP JUMPDEST PUSH3 0x1B0 DUP2 PUSH3 0x198 JUMP JUMPDEST DUP3 MSTORE POP POP JUMP JUMPDEST PUSH1 0x0 PUSH1 0x20 DUP3 ADD SWAP1 POP PUSH3 0x1CD PUSH1 0x0 DUP4 ADD DUP5 PUSH3 0x1A5 JUMP JUMPDEST SWAP3 SWAP2 POP POP JUMP JUMPDEST PUSH2 0x1F80 DUP1 PUSH3 0x1E3 PUSH1 0x0 CODECOPY PUSH1 0x0 RETURN INVALID PUSH1 0x80 PUSH1 0x40 MSTORE CALLVALUE DUP1 ISZERO PUSH2 0x10 JUMPI PUSH1 0x0 DUP1 REVERT JUMPDEST POP PUSH1 0x4 CALLDATASIZE LT PUSH2 0x100 JUMPI PUSH1 0x0 CALLDATALOAD PUSH1 0xE0 SHR DUP1 PUSH4 0x715018A6 GT PUSH2 0x97 JUMPI DUP1 PUSH4 0xA457C2D7 GT PUSH2 0x66 JUMPI DUP1 PUSH4 0xA457C2D7 EQ PUSH2 0x28B JUMPI DUP1 PUSH4 0xA9059CBB EQ PUSH2 0x2BB JUMPI DUP1 PUSH4 0xDD62ED3E EQ PUSH2 0x2EB JUMPI DUP1 PUSH4 0xF2FDE38B EQ PUSH2 0x31B JUMPI PUSH2 0x100 JUMP JUMPDEST DUP1 PUSH4 0x715018A6 EQ PUSH2 0x23B JUMPI DUP1 PUSH4 0x8129FC1C EQ PUSH2 0x245 JUMPI DUP1 PUSH4 0x8DA5CB5B EQ PUSH2 0x24F JUMPI DUP1 PUSH4 0x95D89B41 EQ PUSH2 0x26D JUMPI PUSH2 0x100 JUMP JUMPDEST DUP1 PUSH4 0x313CE567 GT PUSH2 0xD3 JUMPI DUP1 PUSH4 0x313CE567 EQ PUSH2 0x1A1 JUMPI DUP1 PUSH4 0x39509351 EQ PUSH2 0x1BF JUMPI DUP1 PUSH4 0x40C10F19 EQ PUSH2 0x1EF JUMPI DUP1 PUSH4 0x70A08231 EQ PUSH2 0x20B JUMPI PUSH2 0x100 JUMP JUMPDEST DUP1 PUSH4 0x6FDDE03 EQ PUSH2 0x105 JUMPI DUP1 PUSH4 0x95EA7B3 EQ PUSH2 0x123 JUMPI DUP1 PUSH4 0x18160DDD EQ PUSH2 0x153 JUMPI DUP1 PUSH4 0x23B872DD EQ PUSH2 0x171 JUMPI JUMPDEST PUSH1 0x0 DUP1 REVERT JUMPDEST PUSH2 0x10D PUSH2 0x337 JUMP JUMPDEST PUSH1 0x40 MLOAD PUSH2 0x11A SWAP2 SWAP1 PUSH2 0x12A2 JUMP JUMPDEST PUSH1 0x40 MLOAD DUP1 SWAP2 SUB SWAP1 RETURN JUMPDEST PUSH2 0x13D PUSH1 0x4 DUP1 CALLDATASIZE SUB DUP2 ADD SWAP1 PUSH2 0x138 SWAP2 SWAP1 PUSH2 0x135D JUMP JUMPDEST PUSH2 0x3C9 JUMP JUMPDEST PUSH1 0x40 MLOAD PUSH2 0x14A SWAP2 SWAP1 PUSH2 0x13B8 JUMP JUMPDEST PUSH1 0x40 MLOAD DUP1 SWAP2 SUB SWAP1 RETURN JUMPDEST PUSH2 0x15B PUSH2 0x3EC JUMP JUMPDEST PUSH1 0x40 MLOAD PUSH2 0x168 SWAP2 SWAP1 PUSH2 0x13E2 JUMP JUMPDEST PUSH1 0x40 MLOAD DUP1 SWAP2 SUB SWAP1 RETURN JUMPDEST PUSH2 0x18B PUSH1 0x4 DUP1 CALLDATASIZE SUB DUP2 ADD SWAP1 PUSH2 0x186 SWAP2 SWAP1 PUSH2 0x13FD JUMP JUMPDEST PUSH2 0x3F6 JUMP JUMPDEST PUSH1 0x40 MLOAD PUSH2 0x198 SWAP2 SWAP1 PUSH2 0x13B8 JUMP JUMPDEST PUSH1 0x40 MLOAD DUP1 SWAP2 SUB SWAP1 RETURN JUMPDEST PUSH2 0x1A9 PUSH2 0x425 JUMP JUMPDEST PUSH1 0x40 MLOAD PUSH2 0x1B6 SWAP2 SWAP1 PUSH2 0x146C JUMP JUMPDEST PUSH1 0x40 MLOAD DUP1 SWAP2 SUB SWAP1 RETURN JUMPDEST PUSH2 0x1D9 PUSH1 0x4 DUP1 CALLDATASIZE SUB DUP2 ADD SWAP1 PUSH2 0x1D4 SWAP2 SWAP1 PUSH2 0x135D JUMP JUMPDEST PUSH2 0x42E JUMP JUMPDEST PUSH1 0x40 MLOAD PUSH2 0x1E6 SWAP2 SWAP1 PUSH2 0x13B8 JUMP JUMPDEST PUSH1 0x40 MLOAD DUP1 SWAP2 SUB SWAP1 RETURN JUMPDEST PUSH2 0x209 PUSH1 0x4 DUP1 CALLDATASIZE SUB DUP2 ADD SWAP1 PUSH2 0x204 SWAP2 SWAP1 PUSH2 0x135D JUMP JUMPDEST PUSH2 0x465 JUMP JUMPDEST STOP JUMPDEST PUSH2 0x225 PUSH1 0x4 DUP1 CALLDATASIZE SUB DUP2 ADD SWAP1 PUSH2 0x220 SWAP2 SWAP1 PUSH2 0x1487 JUMP JUMPDEST PUSH2 0x47B JUMP JUMPDEST PUSH1 0x40 MLOAD PUSH2 0x232 SWAP2 SWAP1 PUSH2 0x13E2 JUMP JUMPDEST PUSH1 0x40 MLOAD DUP1 SWAP2 SUB SWAP1 RETURN JUMPDEST PUSH2 0x243 PUSH2 0x4C4 JUMP JUMPDEST STOP JUMPDEST PUSH2 0x24D PUSH2 0x4D8 JUMP JUMPDEST STOP JUMPDEST PUSH2 0x257 PUSH2 0x68A JUMP JUMPDEST PUSH1 0x40 MLOAD PUSH2 0x264 SWAP2 SWAP1 PUSH2 0x14C3 JUMP JUMPDEST PUSH1 0x40 MLOAD DUP1 SWAP2 SUB SWAP1 RETURN JUMPDEST PUSH2 0x275 PUSH2 0x6B4 JUMP JUMPDEST PUSH1 0x40 MLOAD PUSH2 0x282 SWAP2 SWAP1 PUSH2 0x12A2 JUMP JUMPDEST PUSH1 0x40 MLOAD DUP1 SWAP2 SUB SWAP1 RETURN JUMPDEST PUSH2 0x2A5 PUSH1 0x4 DUP1 CALLDATASIZE SUB DUP2 ADD SWAP1 PUSH2 0x2A0 SWAP2 SWAP1 PUSH2 0x135D JUMP JUMPDEST PUSH2 0x746 JUMP JUMPDEST PUSH1 0x40 MLOAD PUSH2 0x2B2 SWAP2 SWAP1 PUSH2 0x13B8 JUMP JUMPDEST PUSH1 0x40 MLOAD DUP1 SWAP2 SUB SWAP1 RETURN JUMPDEST PUSH2 0x2D5 PUSH1 0x4 DUP1 CALLDATASIZE SUB DUP2 ADD SWAP1 PUSH2 0x2D0 SWAP2 SWAP1 PUSH2 0x135D JUMP JUMPDEST PUSH2 0x7BD JUMP JUMPDEST PUSH1 0x40 MLOAD PUSH2 0x2E2 SWAP2 SWAP1 PUSH2 0x13B8 JUMP JUMPDEST PUSH1 0x40 MLOAD DUP1 SWAP2 SUB SWAP1 RETURN JUMPDEST PUSH2 0x305 PUSH1 0x4 DUP1 CALLDATASIZE SUB DUP2 ADD SWAP1 PUSH2 0x300 SWAP2 SWAP1 PUSH2 0x14DE JUMP JUMPDEST PUSH2 0x7E0 JUMP JUMPDEST PUSH1 0x40 MLOAD PUSH2 0x312 SWAP2 SWAP1 PUSH2 0x13E2 JUMP JUMPDEST PUSH1 0x40 MLOAD DUP1 SWAP2 SUB SWAP1 RETURN JUMPDEST PUSH2 0x335 PUSH1 0x4 DUP1 CALLDATASIZE SUB DUP2 ADD SWAP1 PUSH2 0x330 SWAP2 SWAP1 PUSH2 0x1487 JUMP JUMPDEST PUSH2 0x867 JUMP JUMPDEST STOP JUMPDEST PUSH1 0x60 PUSH1 0x36 DUP1 SLOAD PUSH2 0x346 SWAP1 PUSH2 0x154D JUMP JUMPDEST DUP1 PUSH1 0x1F ADD PUSH1 0x20 DUP1 SWAP2 DIV MUL PUSH1 0x20 ADD PUSH1 0x40 MLOAD SWAP1 DUP2 ADD PUSH1 0x40 MSTORE DUP1 SWAP3 SWAP2 SWAP1 DUP2 DUP2 MSTORE PUSH1 0x20 ADD DUP3 DUP1 SLOAD PUSH2 0x372 SWAP1 PUSH2 0x154D JUMP JUMPDEST DUP1 ISZERO PUSH2 0x3BF JUMPI DUP1 PUSH1 0x1F LT PUSH2 0x394 JUMPI PUSH2 0x100 DUP1 DUP4 SLOAD DIV MUL DUP4 MSTORE SWAP2 PUSH1 0x20 ADD SWAP2 PUSH2 0x3BF JUMP JUMPDEST DUP3 ADD SWAP2 SWAP1 PUSH1 0x0 MSTORE PUSH1 0x20 PUSH1 0x0 KECCAK256 SWAP1 JUMPDEST DUP2 SLOAD DUP2 MSTORE SWAP1 PUSH1 0x1 ADD SWAP1 PUSH1 0x20 ADD DUP1 DUP4 GT PUSH2 0x3A2 JUMPI DUP3 SWAP1 SUB PUSH1 0x1F AND DUP3 ADD SWAP2 JUMPDEST POP POP POP POP POP SWAP1 POP SWAP1 JUMP JUMPDEST PUSH1 0x0 DUP1 PUSH2 0x3D4 PUSH2 0x8EA JUMP JUMPDEST SWAP1 POP PUSH2 0x3E1 DUP2 DUP6 DUP6 PUSH2 0x8F2 JUMP JUMPDEST PUSH1 0x1 SWAP2 POP POP SWAP3 SWAP2 POP POP JUMP JUMPDEST PUSH1 0x0 PUSH1 0x35 SLOAD SWAP1 POP SWAP1 JUMP JUMPDEST PUSH1 0x0 DUP1 PUSH2 0x401 PUSH2 0x8EA JUMP JUMPDEST SWAP1 POP PUSH2 0x40E DUP6 DUP3 DUP6 PUSH2 0xABB JUMP JUMPDEST PUSH2 0x419 DUP6 DUP6 DUP6 PUSH2 0xB47 JUMP JUMPDEST PUSH1 0x1 SWAP2 POP POP SWAP4 SWAP3 POP POP POP JUMP JUMPDEST PUSH1 0x0 PUSH1 0x12 SWAP1 POP SWAP1 JUMP JUMPDEST PUSH1 0x0 DUP1 PUSH2 0x439 PUSH2 0x8EA JUMP JUMPDEST SWAP1 POP PUSH2 0x45A DUP2 DUP6 DUP6 PUSH2 0x44B DUP6 DUP10 PUSH2 0x7E0 JUMP JUMPDEST PUSH2 0x455 SWAP2 SWAP1 PUSH2 0x15AD JUMP JUMPDEST PUSH2 0x8F2 JUMP JUMPDEST PUSH1 0x1 SWAP2 POP POP SWAP3 SWAP2 POP POP JUMP JUMPDEST PUSH2 0x46D PUSH2 0xDC0 JUMP JUMPDEST PUSH2 0x477 DUP3 DUP3 PUSH2 0xE3E JUMP JUMPDEST POP POP JUMP JUMPDEST PUSH1 0x0 PUSH1 0x33 PUSH1 0x0 DUP4 PUSH20 0xFFFFFFFFFFFFFFFFFFFFFFFFFFFFFFFFFFFFFFFF AND PUSH20 0xFFFFFFFFFFFFFFFFFFFFFFFFFFFFFFFFFFFFFFFF AND DUP2 MSTORE PUSH1 0x20 ADD SWAP1 DUP2 MSTORE PUSH1 0x20 ADD PUSH1 0x0 KECCAK256 SLOAD SWAP1 POP SWAP2 SWAP1 POP JUMP JUMPDEST PUSH2 0x4CC PUSH2 0xDC0 JUMP JUMPDEST PUSH2 0x4D6 PUSH1 0x0 PUSH2 0xF95 JUMP JUMPDEST JUMP JUMPDEST PUSH1 0x0 DUP1 PUSH1 0x1 SWAP1 SLOAD SWAP1 PUSH2 0x100 EXP SWAP1 DIV PUSH1 0xFF AND ISZERO SWAP1 POP DUP1 DUP1 ISZERO PUSH2 0x509 JUMPI POP PUSH1 0x1 PUSH1 0x0 DUP1 SLOAD SWAP1 PUSH2 0x100 EXP SWAP1 DIV PUSH1 0xFF AND PUSH1 0xFF AND LT JUMPDEST DUP1 PUSH2 0x536 JUMPI POP PUSH2 0x518 ADDRESS PUSH2 0x105B JUMP JUMPDEST ISZERO DUP1 ISZERO PUSH2 0x535 JUMPI POP PUSH1 0x1 PUSH1 0x0 DUP1 SLOAD SWAP1 PUSH2 0x100 EXP SWAP1 DIV PUSH1 0xFF AND PUSH1 0xFF AND EQ JUMPDEST JUMPDEST PUSH2 0x575 JUMPI PUSH1 0x40 MLOAD PUSH32 0x8C379A000000000000000000000000000000000000000000000000000000000 DUP2 MSTORE PUSH1 0x4 ADD PUSH2 0x56C SWAP1 PUSH2 0x1653 JUMP JUMPDEST PUSH1 0x40 MLOAD DUP1 SWAP2 SUB SWAP1 REVERT JUMPDEST PUSH1 0x1 PUSH1 0x0 DUP1 PUSH2 0x100 EXP DUP2 SLOAD DUP2 PUSH1 0xFF MUL NOT AND SWAP1 DUP4 PUSH1 0xFF AND MUL OR SWAP1 SSTORE POP DUP1 ISZERO PUSH2 0x5B2 JUMPI PUSH1 0x1 PUSH1 0x0 PUSH1 0x1 PUSH2 0x100 EXP DUP2 SLOAD DUP2 PUSH1 0xFF MUL NOT AND SWAP1 DUP4 ISZERO ISZERO MUL OR SWAP1 SSTORE POP JUMPDEST PUSH2 0x626 PUSH1 0x40 MLOAD DUP1 PUSH1 0x40 ADD PUSH1 0x40 MSTORE DUP1 PUSH1 0x9 DUP2 MSTORE PUSH1 0x20 ADD PUSH32 0x4865726F546F6B656E0000000000000000000000000000000000000000000000 DUP2 MSTORE POP PUSH1 0x40 MLOAD DUP1 PUSH1 0x40 ADD PUSH1 0x40 MSTORE DUP1 PUSH1 0x3 DUP2 MSTORE PUSH1 0x20 ADD PUSH32 0x48544B0000000000000000000000000000000000000000000000000000000000 DUP2 MSTORE POP PUSH2 0x107E JUMP JUMPDEST PUSH2 0x62E PUSH2 0x10DB JUMP JUMPDEST DUP1 ISZERO PUSH2 0x687 JUMPI PUSH1 0x0 DUP1 PUSH1 0x1 PUSH2 0x100 EXP DUP2 SLOAD DUP2 PUSH1 0xFF MUL NOT AND SWAP1 DUP4 ISZERO ISZERO MUL OR SWAP1 SSTORE POP PUSH32 0x7F26B83FF96E1F2B6A682F133852F6798A09C465DA95921460CEFB3847402498 PUSH1 0x1 PUSH1 0x40 MLOAD PUSH2 0x67E SWAP2 SWAP1 PUSH2 0x16B8 JUMP JUMPDEST PUSH1 0x40 MLOAD DUP1 SWAP2 SUB SWAP1 LOG1 JUMPDEST POP JUMP JUMPDEST PUSH1 0x0 PUSH1 0x65 PUSH1 0x0 SWAP1 SLOAD SWAP1 PUSH2 0x100 EXP SWAP1 DIV PUSH20 0xFFFFFFFFFFFFFFFFFFFFFFFFFFFFFFFFFFFFFFFF AND SWAP1 POP SWAP1 JUMP JUMPDEST PUSH1 0x60 PUSH1 0x37 DUP1 SLOAD PUSH2 0x6C3 SWAP1 PUSH2 0x154D JUMP JUMPDEST DUP1 PUSH1 0x1F ADD PUSH1 0x20 DUP1 SWAP2 DIV MUL PUSH1 0x20 ADD PUSH1 0x40 MLOAD SWAP1 DUP2 ADD PUSH1 0x40 MSTORE DUP1 SWAP3 SWAP2 SWAP1 DUP2 DUP2 MSTORE PUSH1 0x20 ADD DUP3 DUP1 SLOAD PUSH2 0x6EF SWAP1 PUSH2 0x154D JUMP JUMPDEST DUP1 ISZERO PUSH2 0x73C JUMPI DUP1 PUSH1 0x1F LT PUSH2 0x711 JUMPI PUSH2 0x100 DUP1 DUP4 SLOAD DIV MUL DUP4 MSTORE SWAP2 PUSH1 0x20 ADD SWAP2 PUSH2 0x73C JUMP JUMPDEST DUP3 ADD SWAP2 SWAP1 PUSH1 0x0 MSTORE PUSH1 0x20 PUSH1 0x0 KECCAK256 SWAP1 JUMPDEST DUP2 SLOAD DUP2 MSTORE SWAP1 PUSH1 0x1 ADD SWAP1 PUSH1 0x20 ADD DUP1 DUP4 GT PUSH2 0x71F JUMPI DUP3 SWAP1 SUB PUSH1 0x1F AND DUP3 ADD SWAP2 JUMPDEST POP POP POP POP POP SWAP1 POP SWAP1 JUMP JUMPDEST PUSH1 0x0 DUP1 PUSH2 0x751 PUSH2 0x8EA JUMP JUMPDEST SWAP1 POP PUSH1 0x0 PUSH2 0x75F DUP3 DUP7 PUSH2 0x7E0 JUMP JUMPDEST SWAP1 POP DUP4 DUP2 LT ISZERO PUSH2 0x7A4 JUMPI PUSH1 0x40 MLOAD PUSH32 0x8C379A000000000000000000000000000000000000000000000000000000000 DUP2 MSTORE PUSH1 0x4 ADD PUSH2 0x79B SWAP1 PUSH2 0x1745 JUMP JUMPDEST PUSH1 0x40 MLOAD DUP1 SWAP2 SUB SWAP1 REVERT JUMPDEST PUSH2 0x7B1 DUP3 DUP7 DUP7 DUP5 SUB PUSH2 0x8F2 JUMP JUMPDEST PUSH1 0x1 SWAP3 POP POP POP SWAP3 SWAP2 POP POP JUMP JUMPDEST PUSH1 0x0 DUP1 PUSH2 0x7C8 PUSH2 0x8EA JUMP JUMPDEST SWAP1 POP PUSH2 0x7D5 DUP2 DUP6 DUP6 PUSH2 0xB47 JUMP JUMPDEST PUSH1 0x1 SWAP2 POP POP SWAP3 SWAP2 POP POP JUMP JUMPDEST PUSH1 0x0 PUSH1 0x34 PUSH1 0x0 DUP5 PUSH20 0xFFFFFFFFFFFFFFFFFFFFFFFFFFFFFFFFFFFFFFFF AND PUSH20 0xFFFFFFFFFFFFFFFFFFFFFFFFFFFFFFFFFFFFFFFF AND DUP2 MSTORE PUSH1 0x20 ADD SWAP1 DUP2 MSTORE PUSH1 0x20 ADD PUSH1 0x0 KECCAK256 PUSH1 0x0 DUP4 PUSH20 0xFFFFFFFFFFFFFFFFFFFFFFFFFFFFFFFFFFFFFFFF AND PUSH20 0xFFFFFFFFFFFFFFFFFFFFFFFFFFFFFFFFFFFFFFFF AND DUP2 MSTORE PUSH1 0x20 ADD SWAP1 DUP2 MSTORE PUSH1 0x20 ADD PUSH1 0x0 KECCAK256 SLOAD SWAP1 POP SWAP3 SWAP2 POP POP JUMP JUMPDEST PUSH2 0x86F PUSH2 0xDC0 JUMP JUMPDEST PUSH1 0x0 PUSH20 0xFFFFFFFFFFFFFFFFFFFFFFFFFFFFFFFFFFFFFFFF AND DUP2 PUSH20 0xFFFFFFFFFFFFFFFFFFFFFFFFFFFFFFFFFFFFFFFF AND SUB PUSH2 0x8DE JUMPI PUSH1 0x40 MLOAD PUSH32 0x8C379A000000000000000000000000000000000000000000000000000000000 DUP2 MSTORE PUSH1 0x4 ADD PUSH2 0x8D5 SWAP1 PUSH2 0x17D7 JUMP JUMPDEST PUSH1 0x40 MLOAD DUP1 SWAP2 SUB SWAP1 REVERT JUMPDEST PUSH2 0x8E7 DUP2 PUSH2 0xF95 JUMP JUMPDEST POP JUMP JUMPDEST PUSH1 0x0 CALLER SWAP1 POP SWAP1 JUMP JUMPDEST PUSH1 0x0 PUSH20 0xFFFFFFFFFFFFFFFFFFFFFFFFFFFFFFFFFFFFFFFF AND DUP4 PUSH20 0xFFFFFFFFFFFFFFFFFFFFFFFFFFFFFFFFFFFFFFFF AND SUB PUSH2 0x961 JUMPI PUSH1 0x40 MLOAD PUSH32 0x8C379A000000000000000000000000000000000000000000000000000000000 DUP2 MSTORE PUSH1 0x4 ADD PUSH2 0x958 SWAP1 PUSH2 0x1869 JUMP JUMPDEST PUSH1 0x40 MLOAD DUP1 SWAP2 SUB SWAP1 REVERT JUMPDEST PUSH1 0x0 PUSH20 0xFFFFFFFFFFFFFFFFFFFFFFFFFFFFFFFFFFFFFFFF AND DUP3 PUSH20 0xFFFFFFFFFFFFFFFFFFFFFFFFFFFFFFFFFFFFFFFF AND SUB PUSH2 0x9D0 JUMPI PUSH1 0x40 MLOAD PUSH32 0x8C379A000000000000000000000000000000000000000000000000000000000 DUP2 MSTORE PUSH1 0x4 ADD PUSH2 0x9C7 SWAP1 PUSH2 0x18FB JUMP JUMPDEST PUSH1 0x40 MLOAD DUP1 SWAP2 SUB SWAP1 REVERT JUMPDEST DUP1 PUSH1 0x34 PUSH1 0x0 DUP6 PUSH20 0xFFFFFFFFFFFFFFFFFFFFFFFFFFFFFFFFFFFFFFFF AND PUSH20 0xFFFFFFFFFFFFFFFFFFFFFFFFFFFFFFFFFFFFFFFF AND DUP2 MSTORE PUSH1 0x20 ADD SWAP1 DUP2 MSTORE PUSH1 0x20 ADD PUSH1 0x0 KECCAK256 PUSH1 0x0 DUP5 PUSH20 0xFFFFFFFFFFFFFFFFFFFFFFFFFFFFFFFFFFFFFFFF AND PUSH20 0xFFFFFFFFFFFFFFFFFFFFFFFFFFFFFFFFFFFFFFFF AND DUP2 MSTORE PUSH1 0x20 ADD SWAP1 DUP2 MSTORE PUSH1 0x20 ADD PUSH1 0x0 KECCAK256 DUP2 SWAP1 SSTORE POP DUP2 PUSH20 0xFFFFFFFFFFFFFFFFFFFFFFFFFFFFFFFFFFFFFFFF AND DUP4 PUSH20 0xFFFFFFFFFFFFFFFFFFFFFFFFFFFFFFFFFFFFFFFF AND PUSH32 0x8C5BE1E5EBEC7D5BD14F71427D1E84F3DD0314C0F7B2291E5B200AC8C7C3B925 DUP4 PUSH1 0x40 MLOAD PUSH2 0xAAE SWAP2 SWAP1 PUSH2 0x13E2 JUMP JUMPDEST PUSH1 0x40 MLOAD DUP1 SWAP2 SUB SWAP1 LOG3 POP POP POP JUMP JUMPDEST PUSH1 0x0 PUSH2 0xAC7 DUP5 DUP5 PUSH2 0x7E0 JUMP JUMPDEST SWAP1 POP PUSH32 0xFFFFFFFFFFFFFFFFFFFFFFFFFFFFFFFFFFFFFFFFFFFFFFFFFFFFFFFFFFFFFFFF DUP2 EQ PUSH2 0xB41 JUMPI DUP2 DUP2 LT ISZERO PUSH2 0xB33 JUMPI PUSH1 0x40 MLOAD PUSH32 0x8C379A000000000000000000000000000000000000000000000000000000000 DUP2 MSTORE PUSH1 0x4 ADD PUSH2 0xB2A SWAP1 PUSH2 0x1967 JUMP JUMPDEST PUSH1 0x40 MLOAD DUP1 SWAP2 SUB SWAP1 REVERT JUMPDEST PUSH2 0xB40 DUP5 DUP5 DUP5 DUP5 SUB PUSH2 0x8F2 JUMP JUMPDEST JUMPDEST POP POP POP POP JUMP JUMPDEST PUSH1 0x0 PUSH20 0xFFFFFFFFFFFFFFFFFFFFFFFFFFFFFFFFFFFFFFFF AND DUP4 PUSH20 0xFFFFFFFFFFFFFFFFFFFFFFFFFFFFFFFFFFFFFFFF AND SUB PUSH2 0xBB6 JUMPI PUSH1 0x40 MLOAD PUSH32 0x8C379A000000000000000000000000000000000000000000000000000000000 DUP2 MSTORE PUSH1 0x4 ADD PUSH2 0xBAD SWAP1 PUSH2 0x19F9 JUMP JUMPDEST PUSH1 0x40 MLOAD DUP1 SWAP2 SUB SWAP1 REVERT JUMPDEST PUSH1 0x0 PUSH20 0xFFFFFFFFFFFFFFFFFFFFFFFFFFFFFFFFFFFFFFFF AND DUP3 PUSH20 0xFFFFFFFFFFFFFFFFFFFFFFFFFFFFFFFFFFFFFFFF AND SUB PUSH2 0xC25 JUMPI PUSH1 0x40 MLOAD PUSH32 0x8C379A000000000000000000000000000000000000000000000000000000000 DUP2 MSTORE PUSH1 0x4 ADD PUSH2 0xC1C SWAP1 PUSH2 0x1A8B JUMP JUMPDEST PUSH1 0x40 MLOAD DUP1 SWAP2 SUB SWAP1 REVERT JUMPDEST PUSH2 0xC30 DUP4 DUP4 DUP4 PUSH2 0x1134 JUMP JUMPDEST PUSH1 0x0 PUSH1 0x33 PUSH1 0x0 DUP6 PUSH20 0xFFFFFFFFFFFFFFFFFFFFFFFFFFFFFFFFFFFFFFFF AND PUSH20 0xFFFFFFFFFFFFFFFFFFFFFFFFFFFFFFFFFFFFFFFF AND DUP2 MSTORE PUSH1 0x20 ADD SWAP1 DUP2 MSTORE PUSH1 0x20 ADD PUSH1 0x0 KECCAK256 SLOAD SWAP1 POP DUP2 DUP2 LT ISZERO PUSH2 0xCB7 JUMPI PUSH1 0x40 MLOAD PUSH32 0x8C379A000000000000000000000000000000000000000000000000000000000 DUP2 MSTORE PUSH1 0x4 ADD PUSH2 0xCAE SWAP1 PUSH2 0x1B1D JUMP JUMPDEST PUSH1 0x40 MLOAD DUP1 SWAP2 SUB SWAP1 REVERT JUMPDEST DUP2 DUP2 SUB PUSH1 0x33 PUSH1 0x0 DUP7 PUSH20 0xFFFFFFFFFFFFFFFFFFFFFFFFFFFFFFFFFFFFFFFF AND PUSH20 0xFFFFFFFFFFFFFFFFFFFFFFFFFFFFFFFFFFFFFFFF AND DUP2 MSTORE PUSH1 0x20 ADD SWAP1 DUP2 MSTORE PUSH1 0x20 ADD PUSH1 0x0 KECCAK256 DUP2 SWAP1 SSTORE POP DUP2 PUSH1 0x33 PUSH1 0x0 DUP6 PUSH20 0xFFFFFFFFFFFFFFFFFFFFFFFFFFFFFFFFFFFFFFFF AND PUSH20 0xFFFFFFFFFFFFFFFFFFFFFFFFFFFFFFFFFFFFFFFF AND DUP2 MSTORE PUSH1 0x20 ADD SWAP1 DUP2 MSTORE PUSH1 0x20 ADD PUSH1 0x0 KECCAK256 PUSH1 0x0 DUP3 DUP3 SLOAD ADD SWAP3 POP POP DUP2 SWAP1 SSTORE POP DUP3 PUSH20 0xFFFFFFFFFFFFFFFFFFFFFFFFFFFFFFFFFFFFFFFF AND DUP5 PUSH20 0xFFFFFFFFFFFFFFFFFFFFFFFFFFFFFFFFFFFFFFFF AND PUSH32 0xDDF252AD1BE2C89B69C2B068FC378DAA952BA7F163C4A11628F55A4DF523B3EF DUP5 PUSH1 0x40 MLOAD PUSH2 0xDA7 SWAP2 SWAP1 PUSH2 0x13E2 JUMP JUMPDEST PUSH1 0x40 MLOAD DUP1 SWAP2 SUB SWAP1 LOG3 PUSH2 0xDBA DUP5 DUP5 DUP5 PUSH2 0x1139 JUMP JUMPDEST POP POP POP POP JUMP JUMPDEST PUSH2 0xDC8 PUSH2 0x8EA JUMP JUMPDEST PUSH20 0xFFFFFFFFFFFFFFFFFFFFFFFFFFFFFFFFFFFFFFFF AND PUSH2 0xDE6 PUSH2 0x68A JUMP JUMPDEST PUSH20 0xFFFFFFFFFFFFFFFFFFFFFFFFFFFFFFFFFFFFFFFF AND EQ PUSH2 0xE3C JUMPI PUSH1 0x40 MLOAD PUSH32 0x8C379A000000000000000000000000000000000000000000000000000000000 DUP2 MSTORE PUSH1 0x4 ADD PUSH2 0xE33 SWAP1 PUSH2 0x1B89 JUMP JUMPDEST PUSH1 0x40 MLOAD DUP1 SWAP2 SUB SWAP1 REVERT JUMPDEST JUMP JUMPDEST PUSH1 0x0 PUSH20 0xFFFFFFFFFFFFFFFFFFFFFFFFFFFFFFFFFFFFFFFF AND DUP3 PUSH20 0xFFFFFFFFFFFFFFFFFFFFFFFFFFFFFFFFFFFFFFFF AND SUB PUSH2 0xEAD JUMPI PUSH1 0x40 MLOAD PUSH32 0x8C379A000000000000000000000000000000000000000000000000000000000 DUP2 MSTORE PUSH1 0x4 ADD PUSH2 0xEA4 SWAP1 PUSH2 0x1BF5 JUMP JUMPDEST PUSH1 0x40 MLOAD DUP1 SWAP2 SUB SWAP1 REVERT JUMPDEST PUSH2 0xEB9 PUSH1 0x0 DUP4 DUP4 PUSH2 0x1134 JUMP JUMPDEST DUP1 PUSH1 0x35 PUSH1 0x0 DUP3 DUP3 SLOAD PUSH2 0xECB SWAP2 SWAP1 PUSH2 0x15AD JUMP JUMPDEST SWAP3 POP POP DUP2 SWAP1 SSTORE POP DUP1 PUSH1 0x33 PUSH1 0x0 DUP5 PUSH20 0xFFFFFFFFFFFFFFFFFFFFFFFFFFFFFFFFFFFFFFFF AND PUSH20 0xFFFFFFFFFFFFFFFFFFFFFFFFFFFFFFFFFFFFFFFF AND DUP2 MSTORE PUSH1 0x20 ADD SWAP1 DUP2 MSTORE PUSH1 0x20 ADD PUSH1 0x0 KECCAK256 PUSH1 0x0 DUP3 DUP3 SLOAD ADD SWAP3 POP POP DUP2 SWAP1 SSTORE POP DUP2 PUSH20 0xFFFFFFFFFFFFFFFFFFFFFFFFFFFFFFFFFFFFFFFF AND PUSH1 0x0 PUSH20 0xFFFFFFFFFFFFFFFFFFFFFFFFFFFFFFFFFFFFFFFF AND PUSH32 0xDDF252AD1BE2C89B69C2B068FC378DAA952BA7F163C4A11628F55A4DF523B3EF DUP4 PUSH1 0x40 MLOAD PUSH2 0xF7D SWAP2 SWAP1 PUSH2 0x13E2 JUMP JUMPDEST PUSH1 0x40 MLOAD DUP1 SWAP2 SUB SWAP1 LOG3 PUSH2 0xF91 PUSH1 0x0 DUP4 DUP4 PUSH2 0x1139 JUMP JUMPDEST POP POP JUMP JUMPDEST PUSH1 0x0 PUSH1 0x65 PUSH1 0x0 SWAP1 SLOAD SWAP1 PUSH2 0x100 EXP SWAP1 DIV PUSH20 0xFFFFFFFFFFFFFFFFFFFFFFFFFFFFFFFFFFFFFFFF AND SWAP1 POP DUP2 PUSH1 0x65 PUSH1 0x0 PUSH2 0x100 EXP DUP2 SLOAD DUP2 PUSH20 0xFFFFFFFFFFFFFFFFFFFFFFFFFFFFFFFFFFFFFFFF MUL NOT AND SWAP1 DUP4 PUSH20 0xFFFFFFFFFFFFFFFFFFFFFFFFFFFFFFFFFFFFFFFF AND MUL OR SWAP1 SSTORE POP DUP2 PUSH20 0xFFFFFFFFFFFFFFFFFFFFFFFFFFFFFFFFFFFFFFFF AND DUP2 PUSH20 0xFFFFFFFFFFFFFFFFFFFFFFFFFFFFFFFFFFFFFFFF AND PUSH32 0x8BE0079C531659141344CD1FD0A4F28419497F9722A3DAAFE3B4186F6B6457E0 PUSH1 0x40 MLOAD PUSH1 0x40 MLOAD DUP1 SWAP2 SUB SWAP1 LOG3 POP POP JUMP JUMPDEST PUSH1 0x0 DUP1 DUP3 PUSH20 0xFFFFFFFFFFFFFFFFFFFFFFFFFFFFFFFFFFFFFFFF AND EXTCODESIZE GT SWAP1 POP SWAP2 SWAP1 POP JUMP JUMPDEST PUSH1 0x0 PUSH1 0x1 SWAP1 SLOAD SWAP1 PUSH2 0x100 EXP SWAP1 DIV PUSH1 0xFF AND PUSH2 0x10CD JUMPI PUSH1 0x40 MLOAD PUSH32 0x8C379A000000000000000000000000000000000000000000000000000000000 DUP2 MSTORE PUSH1 0x4 ADD PUSH2 0x10C4 SWAP1 PUSH2 0x1C87 JUMP JUMPDEST PUSH1 0x40 MLOAD DUP1 SWAP2 SUB SWAP1 REVERT JUMPDEST PUSH2 0x10D7 DUP3 DUP3 PUSH2 0x113E JUMP JUMPDEST POP POP JUMP JUMPDEST PUSH1 0x0 PUSH1 0x1 SWAP1 SLOAD SWAP1 PUSH2 0x100 EXP SWAP1 DIV PUSH1 0xFF AND PUSH2 0x112A JUMPI PUSH1 0x40 MLOAD PUSH32 0x8C379A000000000000000000000000000000000000000000000000000000000 DUP2 MSTORE PUSH1 0x4 ADD PUSH2 0x1121 SWAP1 PUSH2 0x1C87 JUMP JUMPDEST PUSH1 0x40 MLOAD DUP1 SWAP2 SUB SWAP1 REVERT JUMPDEST PUSH2 0x1132 PUSH2 0x11B1 JUMP JUMPDEST JUMP JUMPDEST POP POP POP JUMP JUMPDEST POP POP POP JUMP JUMPDEST PUSH1 0x0 PUSH1 0x1 SWAP1 SLOAD SWAP1 PUSH2 0x100 EXP SWAP1 DIV PUSH1 0xFF AND PUSH2 0x118D JUMPI PUSH1 0x40 MLOAD PUSH32 0x8C379A000000000000000000000000000000000000000000000000000000000 DUP2 MSTORE PUSH1 0x4 ADD PUSH2 0x1184 SWAP1 PUSH2 0x1C87 JUMP JUMPDEST PUSH1 0x40 MLOAD DUP1 SWAP2 SUB SWAP1 REVERT JUMPDEST DUP2 PUSH1 0x36 SWAP1 DUP2 PUSH2 0x119C SWAP2 SWAP1 PUSH2 0x1E78 JUMP JUMPDEST POP DUP1 PUSH1 0x37 SWAP1 DUP2 PUSH2 0x11AC SWAP2 SWAP1 PUSH2 0x1E78 JUMP JUMPDEST POP POP POP JUMP JUMPDEST PUSH1 0x0 PUSH1 0x1 SWAP1 SLOAD SWAP1 PUSH2 0x100 EXP SWAP1 DIV PUSH1 0xFF AND PUSH2 0x1200 JUMPI PUSH1 0x40 MLOAD PUSH32 0x8C379A000000000000000000000000000000000000000000000000000000000 DUP2 MSTORE PUSH1 0x4 ADD PUSH2 0x11F7 SWAP1 PUSH2 0x1C87 JUMP JUMPDEST PUSH1 0x40 MLOAD DUP1 SWAP2 SUB SWAP1 REVERT JUMPDEST PUSH2 0x1210 PUSH2 0x120B PUSH2 0x8EA JUMP JUMPDEST PUSH2 0xF95 JUMP JUMPDEST JUMP JUMPDEST PUSH1 0x0 DUP2 MLOAD SWAP1 POP SWAP2 SWAP1 POP JUMP JUMPDEST PUSH1 0x0 DUP3 DUP3 MSTORE PUSH1 0x20 DUP3 ADD SWAP1 POP SWAP3 SWAP2 POP POP JUMP JUMPDEST PUSH1 0x0 JUMPDEST DUP4 DUP2 LT ISZERO PUSH2 0x124C JUMPI DUP1 DUP3 ADD MLOAD DUP2 DUP5 ADD MSTORE PUSH1 0x20 DUP2 ADD SWAP1 POP PUSH2 0x1231 JUMP JUMPDEST PUSH1 0x0 DUP5 DUP5 ADD MSTORE POP POP POP POP JUMP JUMPDEST PUSH1 0x0 PUSH1 0x1F NOT PUSH1 0x1F DUP4 ADD AND SWAP1 POP SWAP2 SWAP1 POP JUMP JUMPDEST PUSH1 0x0 PUSH2 0x1274 DUP3 PUSH2 0x1212 JUMP JUMPDEST PUSH2 0x127E DUP2 DUP6 PUSH2 0x121D JUMP JUMPDEST SWAP4 POP PUSH2 0x128E DUP2 DUP6 PUSH1 0x20 DUP7 ADD PUSH2 0x122E JUMP JUMPDEST PUSH2 0x1297 DUP2 PUSH2 0x1258 JUMP JUMPDEST DUP5 ADD SWAP2 POP POP SWAP3 SWAP2 POP POP JUMP JUMPDEST PUSH1 0x0 PUSH1 0x20 DUP3 ADD SWAP1 POP DUP2 DUP2 SUB PUSH1 0x0 DUP4 ADD MSTORE PUSH2 0x12BC DUP2 DUP5 PUSH2 0x1269 JUMP JUMPDEST SWAP1 POP SWAP3 SWAP2 POP POP JUMP JUMPDEST PUSH1 0x0 DUP1 REVERT JUMPDEST PUSH1 0x0 PUSH20 0xFFFFFFFFFFFFFFFFFFFFFFFFFFFFFFFFFFFFFFFF DUP3 AND SWAP1 POP SWAP2 SWAP1 POP JUMP JUMPDEST PUSH1 0x0 PUSH2 0x12F4 DUP3 PUSH2 0x12C9 JUMP JUMPDEST SWAP1 POP SWAP2 SWAP1 POP JUMP JUMPDEST PUSH2 0x1304 DUP2 PUSH2 0x12E9 JUMP JUMPDEST DUP2 EQ PUSH2 0x130F JUMPI PUSH1 0x0 DUP1 REVERT JUMPDEST POP JUMP JUMPDEST PUSH1 0x0 DUP2 CALLDATALOAD SWAP1 POP PUSH2 0x1321 DUP2 PUSH2 0x12FB JUMP JUMPDEST SWAP3 SWAP2 POP POP JUMP JUMPDEST PUSH1 0x0 DUP2 SWAP1 POP SWAP2 SWAP1 POP JUMP JUMPDEST PUSH2 0x133A DUP2 PUSH2 0x1327 JUMP JUMPDEST DUP2 EQ PUSH2 0x1345 JUMPI PUSH1 0x0 DUP1 REVERT JUMPDEST POP JUMP JUMPDEST PUSH1 0x0 DUP2 CALLDATALOAD SWAP1 POP PUSH2 0x1357 DUP2 PUSH2 0x1331 JUMP JUMPDEST SWAP3 SWAP2 POP POP JUMP JUMPDEST PUSH1 0x0 DUP1 PUSH1 0x40 DUP4 DUP6 SUB SLT ISZERO PUSH2 0x1374 JUMPI PUSH2 0x1373 PUSH2 0x12C4 JUMP JUMPDEST JUMPDEST PUSH1 0x0 PUSH2 0x1382 DUP6 DUP3 DUP7 ADD PUSH2 0x1312 JUMP JUMPDEST SWAP3 POP POP PUSH1 0x20 PUSH2 0x1393 DUP6 DUP3 DUP7 ADD PUSH2 0x1348 JUMP JUMPDEST SWAP2 POP POP SWAP3 POP SWAP3 SWAP1 POP JUMP JUMPDEST PUSH1 0x0 DUP2 ISZERO ISZERO SWAP1 POP SWAP2 SWAP1 POP JUMP JUMPDEST PUSH2 0x13B2 DUP2 PUSH2 0x139D JUMP JUMPDEST DUP3 MSTORE POP POP JUMP JUMPDEST PUSH1 0x0 PUSH1 0x20 DUP3 ADD SWAP1 POP PUSH2 0x13CD PUSH1 0x0 DUP4 ADD DUP5 PUSH2 0x13A9 JUMP JUMPDEST SWAP3 SWAP2 POP POP JUMP JUMPDEST PUSH2 0x13DC DUP2 PUSH2 0x1327 JUMP JUMPDEST DUP3 MSTORE POP POP JUMP JUMPDEST PUSH1 0x0 PUSH1 0x20 DUP3 ADD SWAP1 POP PUSH2 0x13F7 PUSH1 0x0 DUP4 ADD DUP5 PUSH2 0x13D3 JUMP JUMPDEST SWAP3 SWAP2 POP POP JUMP JUMPDEST PUSH1 0x0 DUP1 PUSH1 0x0 PUSH1 0x60 DUP5 DUP7 SUB SLT ISZERO PUSH2 0x1416 JUMPI PUSH2 0x1415 PUSH2 0x12C4 JUMP JUMPDEST JUMPDEST PUSH1 0x0 PUSH2 0x1424 DUP7 DUP3 DUP8 ADD PUSH2 0x1312 JUMP JUMPDEST SWAP4 POP POP PUSH1 0x20 PUSH2 0x1435 DUP7 DUP3 DUP8 ADD PUSH2 0x1312 JUMP JUMPDEST SWAP3 POP POP PUSH1 0x40 PUSH2 0x1446 DUP7 DUP3 DUP8 ADD PUSH2 0x1348 JUMP JUMPDEST SWAP2 POP POP SWAP3 POP SWAP3 POP SWAP3 JUMP JUMPDEST PUSH1 0x0 PUSH1 0xFF DUP3 AND SWAP1 POP SWAP2 SWAP1 POP JUMP JUMPDEST PUSH2 0x1466 DUP2 PUSH2 0x1450 JUMP JUMPDEST DUP3 MSTORE POP POP JUMP JUMPDEST PUSH1 0x0 PUSH1 0x20 DUP3 ADD SWAP1 POP PUSH2 0x1481 PUSH1 0x0 DUP4 ADD DUP5 PUSH2 0x145D JUMP JUMPDEST SWAP3 SWAP2 POP POP JUMP JUMPDEST PUSH1 0x0 PUSH1 0x20 DUP3 DUP5 SUB SLT ISZERO PUSH2 0x149D JUMPI PUSH2 0x149C PUSH2 0x12C4 JUMP JUMPDEST JUMPDEST PUSH1 0x0 PUSH2 0x14AB DUP5 DUP3 DUP6 ADD PUSH2 0x1312 JUMP JUMPDEST SWAP2 POP POP SWAP3 SWAP2 POP POP JUMP JUMPDEST PUSH2 0x14BD DUP2 PUSH2 0x12E9 JUMP JUMPDEST DUP3 MSTORE POP POP JUMP JUMPDEST PUSH1 0x0 PUSH1 0x20 DUP3 ADD SWAP1 POP PUSH2 0x14D8 PUSH1 0x0 DUP4 ADD DUP5 PUSH2 0x14B4 JUMP JUMPDEST SWAP3 SWAP2 POP POP JUMP JUMPDEST PUSH1 0x0 DUP1 PUSH1 0x40 DUP4 DUP6 SUB SLT ISZERO PUSH2 0x14F5 JUMPI PUSH2 0x14F4 PUSH2 0x12C4 JUMP JUMPDEST JUMPDEST PUSH1 0x0 PUSH2 0x1503 DUP6 DUP3 DUP7 ADD PUSH2 0x1312 JUMP JUMPDEST SWAP3 POP POP PUSH1 0x20 PUSH2 0x1514 DUP6 DUP3 DUP7 ADD PUSH2 0x1312 JUMP JUMPDEST SWAP2 POP POP SWAP3 POP SWAP3 SWAP1 POP JUMP JUMPDEST PUSH32 0x4E487B7100000000000000000000000000000000000000000000000000000000 PUSH1 0x0 MSTORE PUSH1 0x22 PUSH1 0x4 MSTORE PUSH1 0x24 PUSH1 0x0 REVERT JUMPDEST PUSH1 0x0 PUSH1 0x2 DUP3 DIV SWAP1 POP PUSH1 0x1 DUP3 AND DUP1 PUSH2 0x1565 JUMPI PUSH1 0x7F DUP3 AND SWAP2 POP JUMPDEST PUSH1 0x20 DUP3 LT DUP2 SUB PUSH2 0x1578 JUMPI PUSH2 0x1577 PUSH2 0x151E JUMP JUMPDEST JUMPDEST POP SWAP2 SWAP1 POP JUMP JUMPDEST PUSH32 0x4E487B7100000000000000000000000000000000000000000000000000000000 PUSH1 0x0 MSTORE PUSH1 0x11 PUSH1 0x4 MSTORE PUSH1 0x24 PUSH1 0x0 REVERT JUMPDEST PUSH1 0x0 PUSH2 0x15B8 DUP3 PUSH2 0x1327 JUMP JUMPDEST SWAP2 POP PUSH2 0x15C3 DUP4 PUSH2 0x1327 JUMP JUMPDEST SWAP3 POP DUP3 DUP3 ADD SWAP1 POP DUP1 DUP3 GT ISZERO PUSH2 0x15DB JUMPI PUSH2 0x15DA PUSH2 0x157E JUMP JUMPDEST JUMPDEST SWAP3 SWAP2 POP POP JUMP JUMPDEST PUSH32 0x496E697469616C697A61626C653A20636F6E747261637420697320616C726561 PUSH1 0x0 DUP3 ADD MSTORE PUSH32 0x647920696E697469616C697A6564000000000000000000000000000000000000 PUSH1 0x20 DUP3 ADD MSTORE POP JUMP JUMPDEST PUSH1 0x0 PUSH2 0x163D PUSH1 0x2E DUP4 PUSH2 0x121D JUMP JUMPDEST SWAP2 POP PUSH2 0x1648 DUP3 PUSH2 0x15E1 JUMP JUMPDEST PUSH1 0x40 DUP3 ADD SWAP1 POP SWAP2 SWAP1 POP JUMP JUMPDEST PUSH1 0x0 PUSH1 0x20 DUP3 ADD SWAP1 POP DUP2 DUP2 SUB PUSH1 0x0 DUP4 ADD MSTORE PUSH2 0x166C DUP2 PUSH2 0x1630 JUMP JUMPDEST SWAP1 POP SWAP2 SWAP1 POP JUMP JUMPDEST PUSH1 0x0 DUP2 SWAP1 POP SWAP2 SWAP1 POP JUMP JUMPDEST PUSH1 0x0 DUP2 SWAP1 POP SWAP2 SWAP1 POP JUMP JUMPDEST PUSH1 0x0 PUSH2 0x16A2 PUSH2 0x169D PUSH2 0x1698 DUP5 PUSH2 0x1673 JUMP JUMPDEST PUSH2 0x167D JUMP JUMPDEST PUSH2 0x1450 JUMP JUMPDEST SWAP1 POP SWAP2 SWAP1 POP JUMP JUMPDEST PUSH2 0x16B2 DUP2 PUSH2 0x1687 JUMP JUMPDEST DUP3 MSTORE POP POP JUMP JUMPDEST PUSH1 0x0 PUSH1 0x20 DUP3 ADD SWAP1 POP PUSH2 0x16CD PUSH1 0x0 DUP4 ADD DUP5 PUSH2 0x16A9 JUMP JUMPDEST SWAP3 SWAP2 POP POP JUMP JUMPDEST PUSH32 0x45524332303A2064656372656173656420616C6C6F77616E63652062656C6F77 PUSH1 0x0 DUP3 ADD MSTORE PUSH32 0x207A65726F000000000000000000000000000000000000000000000000000000 PUSH1 0x20 DUP3 ADD MSTORE POP JUMP JUMPDEST PUSH1 0x0 PUSH2 0x172F PUSH1 0x25 DUP4 PUSH2 0x121D JUMP JUMPDEST SWAP2 POP PUSH2 0x173A DUP3 PUSH2 0x16D3 JUMP JUMPDEST PUSH1 0x40 DUP3 ADD SWAP1 POP SWAP2 SWAP1 POP JUMP JUMPDEST PUSH1 0x0 PUSH1 0x20 DUP3 ADD SWAP1 POP DUP2 DUP2 SUB PUSH1 0x0 DUP4 ADD MSTORE PUSH2 0x175E DUP2 PUSH2 0x1722 JUMP JUMPDEST SWAP1 POP SWAP2 SWAP1 POP JUMP JUMPDEST PUSH32 0x4F776E61626C653A206E6577206F776E657220697320746865207A65726F2061 PUSH1 0x0 DUP3 ADD MSTORE PUSH32 0x6464726573730000000000000000000000000000000000000000000000000000 PUSH1 0x20 DUP3 ADD MSTORE POP JUMP JUMPDEST PUSH1 0x0 PUSH2 0x17C1 PUSH1 0x26 DUP4 PUSH2 0x121D JUMP JUMPDEST SWAP2 POP PUSH2 0x17CC DUP3 PUSH2 0x1765 JUMP JUMPDEST PUSH1 0x40 DUP3 ADD SWAP1 POP SWAP2 SWAP1 POP JUMP JUMPDEST PUSH1 0x0 PUSH1 0x20 DUP3 ADD SWAP1 POP DUP2 DUP2 SUB PUSH1 0x0 DUP4 ADD MSTORE PUSH2 0x17F0 DUP2 PUSH2 0x17B4 JUMP JUMPDEST SWAP1 POP SWAP2 SWAP1 POP JUMP JUMPDEST PUSH32 0x45524332303A20617070726F76652066726F6D20746865207A65726F20616464 PUSH1 0x0 DUP3 ADD MSTORE PUSH32 0x7265737300000000000000000000000000000000000000000000000000000000 PUSH1 0x20 DUP3 ADD MSTORE POP JUMP JUMPDEST PUSH1 0x0 PUSH2 0x1853 PUSH1 0x24 DUP4 PUSH2 0x121D JUMP JUMPDEST SWAP2 POP PUSH2 0x185E DUP3 PUSH2 0x17F7 JUMP JUMPDEST PUSH1 0x40 DUP3 ADD SWAP1 POP SWAP2 SWAP1 POP JUMP JUMPDEST PUSH1 0x0 PUSH1 0x20 DUP3 ADD SWAP1 POP DUP2 DUP2 SUB PUSH1 0x0 DUP4 ADD MSTORE PUSH2 0x1882 DUP2 PUSH2 0x1846 JUMP JUMPDEST SWAP1 POP SWAP2 SWAP1 POP JUMP JUMPDEST PUSH32 0x45524332303A20617070726F766520746F20746865207A65726F206164647265 PUSH1 0x0 DUP3 ADD MSTORE PUSH32 0x7373000000000000000000000000000000000000000000000000000000000000 PUSH1 0x20 DUP3 ADD MSTORE POP JUMP JUMPDEST PUSH1 0x0 PUSH2 0x18E5 PUSH1 0x22 DUP4 PUSH2 0x121D JUMP JUMPDEST SWAP2 POP PUSH2 0x18F0 DUP3 PUSH2 0x1889 JUMP JUMPDEST PUSH1 0x40 DUP3 ADD SWAP1 POP SWAP2 SWAP1 POP JUMP JUMPDEST PUSH1 0x0 PUSH1 0x20 DUP3 ADD SWAP1 POP DUP2 DUP2 SUB PUSH1 0x0 DUP4 ADD MSTORE PUSH2 0x1914 DUP2 PUSH2 0x18D8 JUMP JUMPDEST SWAP1 POP SWAP2 SWAP1 POP JUMP JUMPDEST PUSH32 0x45524332303A20696E73756666696369656E7420616C6C6F77616E6365000000 PUSH1 0x0 DUP3 ADD MSTORE POP JUMP JUMPDEST PUSH1 0x0 PUSH2 0x1951 PUSH1 0x1D DUP4 PUSH2 0x121D JUMP JUMPDEST SWAP2 POP PUSH2 0x195C DUP3 PUSH2 0x191B JUMP JUMPDEST PUSH1 0x20 DUP3 ADD SWAP1 POP SWAP2 SWAP1 POP JUMP JUMPDEST PUSH1 0x0 PUSH1 0x20 DUP3 ADD SWAP1 POP DUP2 DUP2 SUB PUSH1 0x0 DUP4 ADD MSTORE PUSH2 0x1980 DUP2 PUSH2 0x1944 JUMP JUMPDEST SWAP1 POP SWAP2 SWAP1 POP JUMP JUMPDEST PUSH32 0x45524332303A207472616E736665722066726F6D20746865207A65726F206164 PUSH1 0x0 DUP3 ADD MSTORE PUSH32 0x6472657373000000000000000000000000000000000000000000000000000000 PUSH1 0x20 DUP3 ADD MSTORE POP JUMP JUMPDEST PUSH1 0x0 PUSH2 0x19E3 PUSH1 0x25 DUP4 PUSH2 0x121D JUMP JUMPDEST SWAP2 POP PUSH2 0x19EE DUP3 PUSH2 0x1987 JUMP JUMPDEST PUSH1 0x40 DUP3 ADD SWAP1 POP SWAP2 SWAP1 POP JUMP JUMPDEST PUSH1 0x0 PUSH1 0x20 DUP3 ADD SWAP1 POP DUP2 DUP2 SUB PUSH1 0x0 DUP4 ADD MSTORE PUSH2 0x1A12 DUP2 PUSH2 0x19D6 JUMP JUMPDEST SWAP1 POP SWAP2 SWAP1 POP JUMP JUMPDEST PUSH32 0x45524332303A207472616E7366657220746F20746865207A65726F2061646472 PUSH1 0x0 DUP3 ADD MSTORE PUSH32 0x6573730000000000000000000000000000000000000000000000000000000000 PUSH1 0x20 DUP3 ADD MSTORE POP JUMP JUMPDEST PUSH1 0x0 PUSH2 0x1A75 PUSH1 0x23 DUP4 PUSH2 0x121D JUMP JUMPDEST SWAP2 POP PUSH2 0x1A80 DUP3 PUSH2 0x1A19 JUMP JUMPDEST PUSH1 0x40 DUP3 ADD SWAP1 POP SWAP2 SWAP1 POP JUMP JUMPDEST PUSH1 0x0 PUSH1 0x20 DUP3 ADD SWAP1 POP DUP2 DUP2 SUB PUSH1 0x0 DUP4 ADD MSTORE PUSH2 0x1AA4 DUP2 PUSH2 0x1A68 JUMP JUMPDEST SWAP1 POP SWAP2 SWAP1 POP JUMP JUMPDEST PUSH32 0x45524332303A207472616E7366657220616D6F756E7420657863656564732062 PUSH1 0x0 DUP3 ADD MSTORE PUSH32 0x616C616E63650000000000000000000000000000000000000000000000000000 PUSH1 0x20 DUP3 ADD MSTORE POP JUMP JUMPDEST PUSH1 0x0 PUSH2 0x1B07 PUSH1 0x26 DUP4 PUSH2 0x121D JUMP JUMPDEST SWAP2 POP PUSH2 0x1B12 DUP3 PUSH2 0x1AAB JUMP JUMPDEST PUSH1 0x40 DUP3 ADD SWAP1 POP SWAP2 SWAP1 POP JUMP JUMPDEST PUSH1 0x0 PUSH1 0x20 DUP3 ADD SWAP1 POP DUP2 DUP2 SUB PUSH1 0x0 DUP4 ADD MSTORE PUSH2 0x1B36 DUP2 PUSH2 0x1AFA JUMP JUMPDEST SWAP1 POP SWAP2 SWAP1 POP JUMP JUMPDEST PUSH32 0x4F776E61626C653A2063616C6C6572206973206E6F7420746865206F776E6572 PUSH1 0x0 DUP3 ADD MSTORE POP JUMP JUMPDEST PUSH1 0x0 PUSH2 0x1B73 PUSH1 0x20 DUP4 PUSH2 0x121D JUMP JUMPDEST SWAP2 POP PUSH2 0x1B7E DUP3 PUSH2 0x1B3D JUMP JUMPDEST PUSH1 0x20 DUP3 ADD SWAP1 POP SWAP2 SWAP1 POP JUMP JUMPDEST PUSH1 0x0 PUSH1 0x20 DUP3 ADD SWAP1 POP DUP2 DUP2 SUB PUSH1 0x0 DUP4 ADD MSTORE PUSH2 0x1BA2 DUP2 PUSH2 0x1B66 JUMP JUMPDEST SWAP1 POP SWAP2 SWAP1 POP JUMP JUMPDEST PUSH32 0x45524332303A206D696E7420746F20746865207A65726F206164647265737300 PUSH1 0x0 DUP3 ADD MSTORE POP JUMP JUMPDEST PUSH1 0x0 PUSH2 0x1BDF PUSH1 0x1F DUP4 PUSH2 0x121D JUMP JUMPDEST SWAP2 POP PUSH2 0x1BEA DUP3 PUSH2 0x1BA9 JUMP JUMPDEST PUSH1 0x20 DUP3 ADD SWAP1 POP SWAP2 SWAP1 POP JUMP JUMPDEST PUSH1 0x0 PUSH1 0x20 DUP3 ADD SWAP1 POP DUP2 DUP2 SUB PUSH1 0x0 DUP4 ADD MSTORE PUSH2 0x1C0E DUP2 PUSH2 0x1BD2 JUMP JUMPDEST SWAP1 POP SWAP2 SWAP1 POP JUMP JUMPDEST PUSH32 0x496E697469616C697A61626C653A20636F6E7472616374206973206E6F742069 PUSH1 0x0 DUP3 ADD MSTORE PUSH32 0x6E697469616C697A696E67000000000000000000000000000000000000000000 PUSH1 0x20 DUP3 ADD MSTORE POP JUMP JUMPDEST PUSH1 0x0 PUSH2 0x1C71 PUSH1 0x2B DUP4 PUSH2 0x121D JUMP JUMPDEST SWAP2 POP PUSH2 0x1C7C DUP3 PUSH2 0x1C15 JUMP JUMPDEST PUSH1 0x40 DUP3 ADD SWAP1 POP SWAP2 SWAP1 POP JUMP JUMPDEST PUSH1 0x0 PUSH1 0x20 DUP3 ADD SWAP1 POP DUP2 DUP2 SUB PUSH1 0x0 DUP4 ADD MSTORE PUSH2 0x1CA0 DUP2 PUSH2 0x1C64 JUMP JUMPDEST SWAP1 POP SWAP2 SWAP1 POP JUMP JUMPDEST PUSH32 0x4E487B7100000000000000000000000000000000000000000000000000000000 PUSH1 0x0 MSTORE PUSH1 0x41 PUSH1 0x4 MSTORE PUSH1 0x24 PUSH1 0x0 REVERT JUMPDEST PUSH1 0x0 DUP2 SWAP1 POP DUP2 PUSH1 0x0 MSTORE PUSH1 0x20 PUSH1 0x0 KECCAK256 SWAP1 POP SWAP2 SWAP1 POP JUMP JUMPDEST PUSH1 0x0 PUSH1 0x20 PUSH1 0x1F DUP4 ADD DIV SWAP1 POP SWAP2 SWAP1 POP JUMP JUMPDEST PUSH1 0x0 DUP3 DUP3 SHL SWAP1 POP SWAP3 SWAP2 POP POP JUMP JUMPDEST PUSH1 0x0 PUSH1 0x8 DUP4 MUL PUSH2 0x1D38 PUSH32 0xFFFFFFFFFFFFFFFFFFFFFFFFFFFFFFFFFFFFFFFFFFFFFFFFFFFFFFFFFFFFFFFF DUP3 PUSH2 0x1CFB JUMP JUMPDEST PUSH2 0x1D42 DUP7 DUP4 PUSH2 0x1CFB JUMP JUMPDEST SWAP6 POP DUP1 NOT DUP5 AND SWAP4 POP DUP1 DUP7 AND DUP5 OR SWAP3 POP POP POP SWAP4 SWAP3 POP POP POP JUMP JUMPDEST PUSH1 0x0 PUSH2 0x1D75 PUSH2 0x1D70 PUSH2 0x1D6B DUP5 PUSH2 0x1327 JUMP JUMPDEST PUSH2 0x167D JUMP JUMPDEST PUSH2 0x1327 JUMP JUMPDEST SWAP1 POP SWAP2 SWAP1 POP JUMP JUMPDEST PUSH1 0x0 DUP2 SWAP1 POP SWAP2 SWAP1 POP JUMP JUMPDEST PUSH2 0x1D8F DUP4 PUSH2 0x1D5A JUMP JUMPDEST PUSH2 0x1DA3 PUSH2 0x1D9B DUP3 PUSH2 0x1D7C JUMP JUMPDEST DUP5 DUP5 SLOAD PUSH2 0x1D08 JUMP JUMPDEST DUP3 SSTORE POP POP POP POP JUMP JUMPDEST PUSH1 0x0 SWAP1 JUMP JUMPDEST PUSH2 0x1DB8 PUSH2 0x1DAB JUMP JUMPDEST PUSH2 0x1DC3 DUP2 DUP5 DUP5 PUSH2 0x1D86 JUMP JUMPDEST POP POP POP JUMP JUMPDEST JUMPDEST DUP2 DUP2 LT ISZERO PUSH2 0x1DE7 JUMPI PUSH2 0x1DDC PUSH1 0x0 DUP3 PUSH2 0x1DB0 JUMP JUMPDEST PUSH1 0x1 DUP2 ADD SWAP1 POP PUSH2 0x1DC9 JUMP JUMPDEST POP POP JUMP JUMPDEST PUSH1 0x1F DUP3 GT ISZERO PUSH2 0x1E2C JUMPI PUSH2 0x1DFD DUP2 PUSH2 0x1CD6 JUMP JUMPDEST PUSH2 0x1E06 DUP5 PUSH2 0x1CEB JUMP JUMPDEST DUP2 ADD PUSH1 0x20 DUP6 LT ISZERO PUSH2 0x1E15 JUMPI DUP2 SWAP1 POP JUMPDEST PUSH2 0x1E29 PUSH2 0x1E21 DUP6 PUSH2 0x1CEB JUMP JUMPDEST DUP4 ADD DUP3 PUSH2 0x1DC8 JUMP JUMPDEST POP POP JUMPDEST POP POP POP JUMP JUMPDEST PUSH1 0x0 DUP3 DUP3 SHR SWAP1 POP SWAP3 SWAP2 POP POP JUMP JUMPDEST PUSH1 0x0 PUSH2 0x1E4F PUSH1 0x0 NOT DUP5 PUSH1 0x8 MUL PUSH2 0x1E31 JUMP JUMPDEST NOT DUP1 DUP4 AND SWAP2 POP POP SWAP3 SWAP2 POP POP JUMP JUMPDEST PUSH1 0x0 PUSH2 0x1E68 DUP4 DUP4 PUSH2 0x1E3E JUMP JUMPDEST SWAP2 POP DUP3 PUSH1 0x2 MUL DUP3 OR SWAP1 POP SWAP3 SWAP2 POP POP JUMP JUMPDEST PUSH2 0x1E81 DUP3 PUSH2 0x1212 JUMP JUMPDEST PUSH8 0xFFFFFFFFFFFFFFFF DUP2 GT ISZERO PUSH2 0x1E9A JUMPI PUSH2 0x1E99 PUSH2 0x1CA7 JUMP JUMPDEST JUMPDEST PUSH2 0x1EA4 DUP3 SLOAD PUSH2 0x154D JUMP JUMPDEST PUSH2 0x1EAF DUP3 DUP3 DUP6 PUSH2 0x1DEB JUMP JUMPDEST PUSH1 0x0 PUSH1 0x20 SWAP1 POP PUSH1 0x1F DUP4 GT PUSH1 0x1 DUP2 EQ PUSH2 0x1EE2 JUMPI PUSH1 0x0 DUP5 ISZERO PUSH2 0x1ED0 JUMPI DUP3 DUP8 ADD MLOAD SWAP1 POP JUMPDEST PUSH2 0x1EDA DUP6 DUP3 PUSH2 0x1E5C JUMP JUMPDEST DUP7 SSTORE POP PUSH2 0x1F42 JUMP JUMPDEST PUSH1 0x1F NOT DUP5 AND PUSH2 0x1EF0 DUP7 PUSH2 0x1CD6 JUMP JUMPDEST PUSH1 0x0 JUMPDEST DUP3 DUP2 LT ISZERO PUSH2 0x1F18 JUMPI DUP5 DUP10 ADD MLOAD DUP3 SSTORE PUSH1 0x1 DUP3 ADD SWAP2 POP PUSH1 0x20 DUP6 ADD SWAP5 POP PUSH1 0x20 DUP2 ADD SWAP1 POP PUSH2 0x1EF3 JUMP JUMPDEST DUP7 DUP4 LT ISZERO PUSH2 0x1F35 JUMPI DUP5 DUP10 ADD MLOAD PUSH2 0x1F31 PUSH1 0x1F DUP10 AND DUP3 PUSH2 0x1E3E JUMP JUMPDEST DUP4 SSTORE POP JUMPDEST PUSH1 0x1 PUSH1 0x2 DUP9 MUL ADD DUP9 SSTORE POP POP POP JUMPDEST POP POP POP POP POP POP JUMP INVALID LOG2 PUSH5 0x6970667358 0x22 SLT KECCAK256 KECCAK256 0xEC NUMBER 0x29 0xD5 0xD8 0xCE SWAP4 0xC2 0xC6 PUSH5 0x419A3FB863 0x4A 0x4A 0xE6 0x2C ADD 0x22 0xE4 NOT 0xEC SMOD DUP6 0xCD 0xC0 PUSH29 0x4E3D64736F6C6343000812003300000000000000000000000000000000 "
				},
				"gasEstimates": {
					"creation": {
						"codeDepositCost": "1612800",
						"executionCost": "infinite",
						"totalCost": "infinite"
					},
					"external": {
						"allowance(address,address)": "infinite",
						"approve(address,uint256)": "infinite",
						"balanceOf(address)": "2930",
						"decimals()": "366",
						"decreaseAllowance(address,uint256)": "infinite",
						"increaseAllowance(address,uint256)": "infinite",
						"initialize()": "infinite",
						"mint(address,uint256)": "infinite",
						"name()": "infinite",
						"owner()": "2589",
						"renounceOwnership()": "30421",
						"symbol()": "infinite",
						"totalSupply()": "2505",
						"transfer(address,uint256)": "infinite",
						"transferFrom(address,address,uint256)": "infinite",
						"transferOwnership(address)": "30832"
					}
				},
				"methodIdentifiers": {
					"allowance(address,address)": "dd62ed3e",
					"approve(address,uint256)": "095ea7b3",
					"balanceOf(address)": "70a08231",
					"decimals()": "313ce567",
					"decreaseAllowance(address,uint256)": "a457c2d7",
					"increaseAllowance(address,uint256)": "39509351",
					"initialize()": "8129fc1c",
					"mint(address,uint256)": "40c10f19",
					"name()": "06fdde03",
					"owner()": "8da5cb5b",
					"renounceOwnership()": "715018a6",
					"symbol()": "95d89b41",
					"totalSupply()": "18160ddd",
					"transfer(address,uint256)": "a9059cbb",
					"transferFrom(address,address,uint256)": "23b872dd",
					"transferOwnership(address)": "f2fde38b"
				}
			},
			"storageLayout": {
				"storage": [
					{
						"astId": 138,
						"contract": "contracts/MyToken.sol:HeroToken",
						"label": "_initialized",
						"offset": 0,
						"slot": "0",
						"type": "t_uint8"
					},
					{
						"astId": 141,
						"contract": "contracts/MyToken.sol:HeroToken",
						"label": "_initializing",
						"offset": 1,
						"slot": "0",
						"type": "t_bool"
					},
					{
						"astId": 1340,
						"contract": "contracts/MyToken.sol:HeroToken",
						"label": "__gap",
						"offset": 0,
						"slot": "1",
						"type": "t_array(t_uint256)50_storage"
					},
					{
						"astId": 319,
						"contract": "contracts/MyToken.sol:HeroToken",
						"label": "_balances",
						"offset": 0,
						"slot": "51",
						"type": "t_mapping(t_address,t_uint256)"
					},
					{
						"astId": 325,
						"contract": "contracts/MyToken.sol:HeroToken",
						"label": "_allowances",
						"offset": 0,
						"slot": "52",
						"type": "t_mapping(t_address,t_mapping(t_address,t_uint256))"
					},
					{
						"astId": 327,
						"contract": "contracts/MyToken.sol:HeroToken",
						"label": "_totalSupply",
						"offset": 0,
						"slot": "53",
						"type": "t_uint256"
					},
					{
						"astId": 329,
						"contract": "contracts/MyToken.sol:HeroToken",
						"label": "_name",
						"offset": 0,
						"slot": "54",
						"type": "t_string_storage"
					},
					{
						"astId": 331,
						"contract": "contracts/MyToken.sol:HeroToken",
						"label": "_symbol",
						"offset": 0,
						"slot": "55",
						"type": "t_string_storage"
					},
					{
						"astId": 911,
						"contract": "contracts/MyToken.sol:HeroToken",
						"label": "__gap",
						"offset": 0,
						"slot": "56",
						"type": "t_array(t_uint256)45_storage"
					},
					{
						"astId": 10,
						"contract": "contracts/MyToken.sol:HeroToken",
						"label": "_owner",
						"offset": 0,
						"slot": "101",
						"type": "t_address"
					},
					{
						"astId": 130,
						"contract": "contracts/MyToken.sol:HeroToken",
						"label": "__gap",
						"offset": 0,
						"slot": "102",
						"type": "t_array(t_uint256)49_storage"
					}
				],
				"types": {
					"t_address": {
						"encoding": "inplace",
						"label": "address",
						"numberOfBytes": "20"
					},
					"t_array(t_uint256)45_storage": {
						"base": "t_uint256",
						"encoding": "inplace",
						"label": "uint256[45]",
						"numberOfBytes": "1440"
					},
					"t_array(t_uint256)49_storage": {
						"base": "t_uint256",
						"encoding": "inplace",
						"label": "uint256[49]",
						"numberOfBytes": "1568"
					},
					"t_array(t_uint256)50_storage": {
						"base": "t_uint256",
						"encoding": "inplace",
						"label": "uint256[50]",
						"numberOfBytes": "1600"
					},
					"t_bool": {
						"encoding": "inplace",
						"label": "bool",
						"numberOfBytes": "1"
					},
					"t_mapping(t_address,t_mapping(t_address,t_uint256))": {
						"encoding": "mapping",
						"key": "t_address",
						"label": "mapping(address => mapping(address => uint256))",
						"numberOfBytes": "32",
						"value": "t_mapping(t_address,t_uint256)"
					},
					"t_mapping(t_address,t_uint256)": {
						"encoding": "mapping",
						"key": "t_address",
						"label": "mapping(address => uint256)",
						"numberOfBytes": "32",
						"value": "t_uint256"
					},
					"t_string_storage": {
						"encoding": "bytes",
						"label": "string",
						"numberOfBytes": "32"
					},
					"t_uint256": {
						"encoding": "inplace",
						"label": "uint256",
						"numberOfBytes": "32"
					},
					"t_uint8": {
						"encoding": "inplace",
						"label": "uint8",
						"numberOfBytes": "1"
					}
				}
			},
			"userdoc": {
				"kind": "user",
				"methods": {},
				"version": 1
			}
		}
	}
}